:020000040800F2
:10000000381700207D020008EF190008B318000817
:10001000ED1900088F0800089D1F0008000000006F
:10002000000000000000000000000000131B00089A
:10003000FB08000800000000111B0008151B000849
:10004000970200089702000897020008970200082C
:10005000970200089702000897020008970200081C
:10006000970200089702000897020008970200080C
:1000700091080008970200089D08000897020008F0
:1000800097020008970200089702000897020008EC
:1000900097020008970200089702000897020008DC
:1000A00097020008970200089702000897020008CC
:1000B00097020008970200089702000897020008BC
:1000C00097020008970200089702000897020008AC
:1000D000970200089702000897020008911F000885
:1000E000970200089702000897020008970200088C
:1000F000970200089702000897020008970200087C
:10010000970200089702000897020008970200086B
:10011000970200089702000897020008970200085B
:10012000970200089702000897020008970200084B
:10013000970200089702000897020008970200083B
:10014000970200089702000897020008970200082B
:10015000970200089702000897020008970200081B
:10016000970200089702000897020008970200080B
:10017000970200089702000897020008000000009C
:10018000970200089702000800F002F800F066F8F5
:1001900014A696E8000CB244B344DA4501D100F04D
:1001A0005DF8BAE80F000FA696E83000A5EB04054D
:1001B00004EB0607AAEB0704A7F101074FEA1515A0
:1001C0004FEA3414A4F10104AC4201D300F046F824
:1001D00013F0010F18BFFB1A43F0010300F001F800
:1001E000DBE71847E82B0000082C00000A4410F851
:1001F000014B14F00F0508BF10F8015B240908BF7C
:1002000010F8014B6D1E05D010F8013B6D1E01F872
:10021000013BF9D1641E03D0641E01F8015BFBD1E0
:100220009142E4D37047000070470000002300248F
:1002300000250026103A28BF78C1FBD8520728BFF6
:1002400030C148BF0B6070471FB502F017FD9DE835
:10025000030000F0B7F91FBD10B510BD00F095FA0E
:100260001146FFF7F1FF02F0C7FC00F0B3FA03B448
:10027000FFF7F2FF03BC00F0E3FA000009488047F3
:1002800009480047FEE7FEE7FEE7FEE7FEE7FEE778
:10029000FEE7FEE7FEE7FEE704480549054A064B90
:1002A00070470000BD1B000889010008380B0020C2
:1002B00038170020380F0020380F002070B50D4689
:1002C0000646041F00F062F90268BDB1DEB105F117
:1002D0000B0020F00701A9423CBF002070BD23683D
:1002E0008B4238BF506813D35A1A082A36D3601885
:1002F00040F8042B216000F0C3F92FE0304600F0F5
:10030000BFF9002070BD2846BDE8704000F089B9F3
:10031000002818BFA0423CBF02464068F8D303EB58
:10032000040C84451CD1D0F800C06344994217D80E
:10033000A3EB010CBCF1080F0DD3D0F804C0631877
:10034000C3F804C0D4F800C000686044401A1860C4
:100350002160536002E0236040685060201D70BD42
:10036000284600F05EF9050008D031462068021FDB
:10037000284600F0ACF9201D00F082F9284670BD37
:1003800053EA020C00F069802DE9F04B4FF00006B3
:10039000002B1FBFB3FA83F503FA05F424FA05F620
:1003A0005E4012BF1643B2FA82F502FA05F4C5F1B7
:1003B00020051EBF22FA05FC44EA0C04203556EA4B
:1003C000044C4FEA144418BF641C4FF000084FF06F
:1003D0000009904271EB030C39D3002919BFB1FA1F
:1003E00081F701FA07F6B0FA80F700FA07F6C7F1CD
:1003F00020071EBF20FA07FC46EA0C062037B6FB92
:10040000F4FCA7EB0507103F07F01F0BCBF120060C
:100410002CFA06F60CFA0BFB44BFB3460026202F3D
:10042000A4BF5E464FF0000B5BEA060C08BF4FF01E
:10043000010B19EB0B0948EB0608ABFB027C06FB32
:1004400002CC0BFB03CCC01B71EB0C01C1E70B46CC
:10045000024641464846BDE8F08B13B5084318BF35
:100460004FF0FF300146AFF30080BDE81C407047FD
:1004700010B5431C02E010F8011B71B18107FAD1DD
:100480004FF0013202C88C1A8C4314EAC211F9D021
:10049000C01A0A0603D0C01E10BDC01A10BD0A043F
:1004A00001D0801E10BD0902FCD0401E10BD032AE1
:1004B00040F2308010F0030C00F0158011F8013B81
:1004C000BCF1020F624498BF11F801CB00F8013B68
:1004D00038BF11F8013BA2F1040298BF00F801CB2C
:1004E00038BF00F8013B11F0030300F0F080083A38
:1004F000C0F0088051F8043B083A51F804CBA0E85A
:100500000810F5E7121D5CBF51F8043B40F8043BAE
:10051000AFF30080D20724BF11F8013B11F801CBE3
:1005200048BF11F8012B24BF00F8013B00F801CBB4
:1005300048BF00F8012B70474FF0000200B513468A
:1005400094469646203922BFA0E80C50A0E80C50F3
:10055000B1F12001BFF4F7AF090728BFA0E80C50A4
:1005600048BF0CC05DF804EB890028BF40F8042B9D
:1005700008BF704748BF20F8022B11F0804F18BF0A
:1005800000F8012B7047704770477047004870476C
:10059000B0090020704770477047704738B504466F
:1005A0000A4600206946AFF30080002808BF38BD26
:1005B00002460099204600F0C7F8012038BD01200E
:1005C00000F0DCB8F8B5AFF30080054600200C461B
:1005D0000C2000BF0646A819A0420DD93246694634
:1005E0000020AFF30080070008BF00F0C7F80098B4
:1005F000A04218BF0546C419FFF7C8FF05600746AB
:10060000F01D20F007004619284600F097F8B44284
:1006100008BFF8BDA21B31463868BDE8F84000F0BD
:1006200093B870B50646FFF7B1FF056806F10B00F9
:1006300020F00704B4429CBF002070BD2B466A68BE
:10064000BAB11068A04210D304F1080188423CBF3F
:100650005068586007D35168101941601168091B30
:10066000016058601460101D70BD13465268002A66
:10067000E7D121462846FFF791FF0028DED170BD63
:1006800070B50446051FFFF781FF0068002C14BFFA
:10069000446870BD002C18BFAC423CBF2046646863
:1006A000F8D301680A18AA4218BF456003D12A6826
:1006B00005461144016028684119A1421CBF6C60C5
:1006C00070BD6168696021680844286070BD10B51C
:1006D000203AC0F00B80B1E81850A0E81850B1E8FB
:1006E0001850A0E81850203ABFF4F5AF5FEA027C3A
:1006F00024BFB1E81850A0E8185044BF18C918C06A
:10070000BDE810405FEA827C24BF51F8043B40F80A
:10071000043B08BF7047D20728BF31F8023B48BFEF
:1007200011F8012B28BF20F8023B48BF00F8012B2D
:100730007047000000487047A809002000210160B0
:10074000416070470C207047034640688C46002883
:1007500018BF88423CBF03464068F8D31868184465
:10076000884207D00CF1030020F00700001D411A59
:10077000521A0146081D0A60FFF782BF10B500F04B
:1007800037F8BDE8104000F02EB87546FFF7D2FFED
:10079000AE4605006946534620F00700854618B06E
:1007A00020B5FFF779FDBDE820404FF000064FF07F
:1007B00000074FF000084FF0000BAC46ACE8C00952
:1007C000ACE8C009ACE8C009ACE8C00921F00701F9
:1007D0008D46704710B50446AFF300802046BDE853
:1007E0001040FFF744BD002801D000F029B8704741
:1007F00010B5012805D0002103A000F028F8012041
:1008000010BD09A1F8E7000053494752544D454D2A
:100810003A204F7574206F662068656170206D65A1
:100820006D6F7279000000003A2048656170206D9C
:10083000656D6F727920636F727275707465640094
:1008400001491820ABBEFEE726000200704770B5D4
:1008500005460C460A2000E06D1C00F011F835B189
:1008600028780028F8D102E0641C00F009F814B1DF
:1008700020780028F8D1BDE870400A20AFF300804E
:1008800008B569468DF800000320ABBE08BDFEE741
:10089000014800F085B800BF0C0A0020014800F0B4
:1008A0007FB800BF6C0A0020026840F2FF3122EAE4
:1008B000010102F0F802103A5F2A88BF0431816515
:1008C0001823B2FBF3F202A39A5CC2650846704794
:1008D0000006101600061016B0B50468806825687A
:1008E0004028084625F480252560636008BF10462F
:1008F000A06008BF0A46E260B0BD704772B6FEE76E
:1009000070B5866D044600F095FA054694F83500FA
:10091000022821D12068216C026822F016020260B0
:10092000426922F08002426109B9A16C19B10168E3
:1009300021F00801016001F081F820680068C0071B
:100940000ED000F077FA401B0628F6D32020606511
:10095000032084F835000CE080206065012008E069
:10096000E06D3F2101FA00F0B060012084F835000D
:100970000020002184F8341070BD90F83510022951
:1009800009D1052180F835100068724601F056F84B
:100990009646002070478021416501207047000085
:1009A000F8B504460020544A08210090D4E91660A6
:1009B00015683768814039420CD0226813685B079C
:1009C00008D5136823F004031360B160616D41F032
:1009D0000101616501218140394208D022685269D4
:1009E000120604D5B160616D41F002016165042118
:1009F0008140394208D022681268920704D5B1605C
:100A0000616D41F00401616510218140394217D0C8
:100A100020680268120713D5B160026801685203AA
:100A200006D4C90506D4016821F00801016001E07F
:100A3000080301D4216C00E0A16C09B1204688476D
:100A4000E16D202000FA01F23A4233D020680368B9
:100A5000DB062FD5B26094F835300268052B15D12E
:100A600022F016020260426922F080024261226C8A
:100A70000AB9A26C1AB1026822F0080202603F2093
:100A80008840B06000F0C9FF216D2FE0016852037B
:100A900008D4C9050AD4016821F01001016000F0F2
:100AA000BCFF03E0080301D4616C00E0E16B09B115
:100AB00020468847606DF0B1606DC00715D00521F4
:100AC0004FF4165084F83510B5FBF0F021680A6831
:100AD00022F001020A60009A01328242009202D89A
:100AE0000A68D207F7D100F098FFE16C19B12046EF
:100AF000BDE8F8400847F8BD080000202DE9F041A6
:100B0000044600F097F9ACB10546022084F83500A0
:100B100000F0C0FF206800F091FF21680868C0075E
:100B20000BD000F087F9401B0528F6D903252026B5
:100B300003205BE00120BDE8F081086804F1040CAB
:100B40002D4A9CE8E81100EA020ED4E9072043EAA6
:100B50000E032B4333433B4343EA08031A43636AC0
:100B6000104340EA0C02042B03D1D4E90B052843BF
:100B700002430A60042B486920F0070040EA0302A0
:100B800028D1D4E90A733A4323B3BCF5005F08D0F7
:100B9000BCF1000F14D1022F15D0012F0AD0002F65
:100BA00010E0032F16D8012540260120DFE807F0CA
:100BB0001E0B1E02A3F1C070B0FA80F0400904E0E1
:100BC000032F03D306D1C3F3006018B101254026DB
:100BD00001200BE020464A61FFF766FEE16D3F22EF
:100BE0000026012502FA01F181600020666584F883
:100BF0003550BDE8F08100BF3F8010F0B0B500F087
:100C00005FFF27D00120A56D84F8340094F83500EB
:100C100001281DD1022084F835000020606520469F
:100C2000FFF75AFEE26D3F232068216C03FA02F2BF
:100C3000AA60026842F01602026019B1016841F030
:100C400008010160016841F0010101600020B0BDB0
:100C500000F020FF0220B0BDB0B5044600F0EAF875
:100C600005469648611C007818BF044400F0E2F87D
:100C7000401BA042FAD3B0BD2DE9FE4F5E4A0824C6
:100C80004FF0010B4FF0000C90425C4A08BF072464
:100C900002444FEAB223072B38BF4FEAB22400F1D7
:100CA00020020194009200250022102A08BFBDE80E
:100CB000FE8F0C680BFA02FA14EA0A0900F097801A
:100CC000D1F804E0032303FA0CF40EF00308E64322
:100CD000A8F10104012C12D88468D1F80CB00BFAE9
:100CE0000CF734404FF0010B3C438460CEF300140A
:100CF0004768944027EA0A073C43446005E0B8F19E
:100D0000030F02D14FF0030823E0C4688F6834401A
:100D100007FA0CF73C43B8F1020FC46019D105F093
:100D20001C040F23A84603FA04F76FF0030303EA39
:100D3000520E009B1D4653F80E30BB430F6907FA55
:100D400004F4234345F80E304546D1F804E00EF094
:100D50000308046808FA0CF3344023431EF4403FB0
:100D6000036044D00023284C254EA84602932368F4
:100D700043F48043236023680F2403F480430293E9
:100D800005F00C0322F00305029F35449C401F4FE1
:100D9000BE46EF5927EA0404019F07FA03F32343F1
:100DA00045F80E30B3684D6843EA0904EF0258BFB6
:100DB00023EA0904134BB460AF029E461B6843EA62
:100DC000090458BF23EA0904CEF80040AF03736852
:100DD00043EA090458BF23EA09047460ED03336849
:100DE000454643EA090458BF23EA090434600CF17C
:100DF000020C0435013258E7001C02400000FEBF1F
:100E0000003C01400C3C01404438024008FCFFFF1C
:100E10000069084018BF01207047426902EA0103D7
:100E2000914341EA034181617047002A08BF0904E8
:100E30008161704705480068704700BF1F4803493B
:100E400000780A6810440860704700BF180B002043
:100E500080B50B48016841F400710160016841F4FC
:100E600080610160016841F480710160032000F03D
:100E700079F80F2000F006F800F022F8002080BD7D
:100E8000003C024070B50D4E04464FF47A71307844
:100E9000B1FBF0F08B490968B1FBF0F000F0DCFA2F
:100EA00001250F2C08D838B94FF0FF302146002219
:100EB000002500F031F87460284670BD0000002065
:100EC00082B000200B4901904A6842F480424A6097
:100ED0004A6802F480420192019A0090086840F04A
:100EE00080500860086800F080500090009802B0C0
:100EF000704700BF40380240002809D41C2101225D
:100F000001EAD00100F01F0002FA00F0014A885007
:100F1000704700BF00E100E0F0B5184B4FF0FF361E
:100F20001C68C4F30224E51E84F0070438BF0025C2
:100F300006FA05F7BA43042C28BF042406FA04F481
:100F4000A14300F00F04A940043C1143044A234488
:100F500009010244002848BF03F10C021170F0BDE2
:100F600000E400E005494FF6FF030A681A4060F309
:100F70000A22034810430860704700BF0CED00E0F0
:100F80000000FA05002852D02DE9F041404B0446FC
:100F90008846D3F8000400F00700884204D283F8A2
:100FA000008400F034FD4BD12068810711D5410742
:100FB00003D5996841F4E0519960010703D5996818
:100FC00041F460419960A1689A6822F0F0021143EF
:100FD0009960C0072DD100F01AFD04D983F8008470
:100FE00000F015FD2CD12068410705D5E1689A680D
:100FF00022F4E05211439960000706D520699968F0
:1010000021F4604141EAC00098601C4600F060F89D
:10101000A168204AC1F30311515CC8402949086006
:101020001D480068FFF72EFF0020BDE8F081012079
:1010300070476068811E022905D21968890107D4AA
:101040000120BDE8F08101281DD119688903F7D579
:1010500099681D4621F0030108439860FFF7EAFEF6
:10106000064641F288376068A9682B4601F00C01FA
:10107000B1EB800FAFD0FFF7DDFE801BB842F2D995
:101080000320BDE8F08119688907D9D5E0E700BFE2
:1010900000380240962C00080400002009480A4944
:1010A0000A4A00680968C1F38221515CC840704750
:1010B00004480549054A00680968C1F34231515C9A
:1010C000C84070470800002008380240A62C0008DD
:1010D00010B5134C606800F00C011248082903D0C9
:1010E00004291CD1104810BD2168236801F03F027B
:1010F00021685B02C1F3881105D4A1FB0001002324
:10110000FFF73EF903E008484843B0FBF2F02168DE
:101110000222C1F3014102EB4101B0FBF1F010BD2D
:10112000043802400024F40000127A00002864D041
:101130002DE9FC4104460078C44EC0070CD0B068CD
:1011400000F00C00042840F090803068800303D544
:101150006068002800F0A1802078800719D5B06869
:1011600010F00C0F07D000F090FC40F099807068F0
:10117000400200F195803068800703D5E0680128BF
:1011800040F08B802069316821F0F80141EAC0000D
:1011900030602078000732D42078400742D4A76915
:1011A00047B300F072FC40F0AD80012F75D0E169CB
:1011B000706800F480028A426FD1216A00F03F0219
:1011C0008A426AD147F6C071626A0140B1EB821F60
:1011D00063D1A16A4FF6FF72C903914300F4403214
:1011E000A1F580318A4258D1E16A00F07060B0EB1D
:1011F000016F52D10020BDE8FC8101207047606979
:1012000000286ED092480121C0F8801EFFF712FE20
:101210000546706F8007BFD4FFF70CFE401B022805
:10122000F7D9C9E0306C5FEAC0080AD40020019009
:10123000306C40F080503064306C00F08050019091
:101240000198844F3868C0053DD4386840F48070F8
:101250003860FFF7EFFD05463868C00533D4FFF767
:10126000E9FD401B0228F7D9A6E000F00EFC03D1EF
:10127000706840023FF569AF30686168B1F5803F42
:1012800007D0B1F5A02F40F0828040F4802030607C
:10129000306840F48030306082E00120BDE8FC819D
:1012A000E1686B4800294BD001210160FFF7C2FDC6
:1012B0000546306880073FF565AFFFF7BBFD401B73
:1012C0000228F6D978E0306FA168012905D00529F8
:1012D00046D140F004003067306F40F001003067C5
:1012E00047E05B480021C0F8801EFFF7A3FD0546DC
:1012F000706F80077FF550AFFFF79CFD401B022801
:10130000F6D959E05249002088460866FFF792FD59
:101310000546022F09D13068800150D5FFF78AFDBC
:10132000411B03200229F6D965E7306880017FF56B
:1013300061AFFFF77FFD411B03200229F5D95AE772
:1013400000210160FFF776FD0546306880077FF5D4
:1013500020AFFFF76FFD411B03200229F5D94AE7B3
:1013600020F0010000293067306F20F00400306762
:1013700045D0FFF75FFD054641F28837306F8007A3
:101380004CD4FFF757FD401BB842F7D914E020F4C6
:10139000803000293060306820F48020306046D0F2
:1013A000FFF748FD0546306880033FF5D5AEFFF7EF
:1013B00041FD401B6428F6D90320BDE8FC811C34A4
:1013C0001FCC0843D90340EA82104FF6FF729143C5
:1013D00040EA0460A1F58031084370600120C8F83C
:1013E0006000FFF727FD0446306880013FF502AF3B
:1013F000FFF720FD011B03200229F5D9FBE6FFF7CB
:1014000019FD054641F28837306F800706D5FFF792
:1014100011FD411B0320B942F6D9ECE6B8F1000FEB
:101420003FF5BDAE306C20F080503064B7E6FFF77A
:1014300001FD0546306880037FF58EAEFFF7FAFCAC
:10144000411B03206429F5D9D5E600BF00380240CE
:101450000000474200700040411E0020B0EB116FB9
:101460001CBF01207047044AF023516003490B70F0
:10147000072190601160704710E000E023ED00E06C
:1014800070477047F8B5044600680268C16846694D
:1014900015074FEA82633FD001F4907706F001060A
:1014A000BF193DD0D70705D0CF0503D5676C47F0EE
:1014B00001076764570704D51EB1676C47F0020740
:1014C0006764920704D51EB1626C42F00402626444
:1014D000002D07D501F02002921903D0626C42F072
:1014E00008026264626C002A00F0E580002B05D5DA
:1014F000890603D5204600F029FC20684069616C0C
:1015000000F0400001F00801401847D12046FFF7E5
:10151000B8FF00206064CEE0002B01D58B0653D4C9
:10152000236B012B03D1D30601D5CB0651D413066F
:1015300001D50B0611D4520640F1BD80490640F199
:10154000BA80C16821F04001C160202084F84100C8
:101550002046BDE8F84000F0A5B994F841102129D3
:1015600040F0A980A168B1F5805F03D1216900290D
:1015700000F0A280216A4A1C226209784160E18C55
:101580000139E184090440F09680C16821F08001AE
:10159000C160C16841F04001C160F8BD00F083FA4C
:1015A00000F06AFA49D500F028FAFCD1E06B002877
:1015B00043D045490165FFF7E0F900287BD0E06B97
:1015C000016DBDE8F84008472046BDE8F84000F04E
:1015D000BDBB002100910168009141680091009914
:1015E000406940062ED4E08DA18DE28D002A62D0A4
:1015F000814260D0081A00F03AFA21F4907142E872
:101600000313002BF7D1216851E8051F226821F050
:10161000010142E80513002BF5D1202184F8421086
:101620000021216300F023FA21F0100142E80313A6
:10163000002BF7D1022161632EE02046BDE8F8407F
:10164000FFF71FBFE06BA28D01684B6899B249B3E9
:10165000914227D2E385C069B0F5807F17D000F0B2
:101660000FFA20F4807000F03BFAF8D100F01EFA77
:10167000FCD100F0C2F9FCD1202084F84200002007
:10168000206300F0D1F9FCD1E06BFFF739F90220BB
:101690006063A08DE18D401A81B22046BDE8F8401C
:1016A000FFF7EEBE8A4206D1C069B0F5807F02D155
:1016B00002206063F1E7F8BD216A31F8022B6FF375
:1016C0005F22216242605AE7CD1B000890B110B53D
:1016D000044690F8410008B900F014FA00F0F5F95A
:1016E0002068016921F490410161416921F02A01DA
:1016F00000F0FAB9012070472DE9F04786B00446A2
:1017000001A81421FEF718FF2168B74881425DD176
:101710000026A64900F5DE3000960A6942F48022D0
:101720000A610A6902F480220092009A00960A680F
:1017300042F002020A60096801F0020100910721EB
:1017400005910321CDE90361022102914FF440612B
:101750000191009901A9FFF78FFA1E4D1E4F4FF41A
:10176000003A4FF480684FF000692846C5E908A6A2
:10177000C5E90079C5E90266C5E90486C5E90666DA
:10178000FFF7BCF908B1FFF7B9F8AC63E563134D97
:1017900007F130014020C5E9001905F10801C5E94C
:1017A00008A6C5E90566EE6181E841012846FFF714
:1017B000A5F908B1FFF7A2F8272000210022AC63A9
:1017C000A563FFF7A9FB2720FFF796FB06B0BDE84E
:1017D000F08700BF0C0A0020286002406C0A00203D
:1017E00090F84230202B1CBF0220704721B11AB163
:1017F0000023036300F06ABB0120704710B590F826
:101800004230202B06D139B132B10024046300F0FC
:10181000A5FB02E0022400E00124204610BD0000E8
:101820002248043000F0C8BB7047000070B5044681
:1018300090F8410020281CBF022070BDD9B113468A
:10184000CAB10022E384144E6264A3842162A06BB7
:101850002568C0E91362114A114EC0E90F622122C6
:1018600084F841202A1DFFF7C9F930B110206064C7
:10187000202084F84100012070BD20686FF04001F5
:10188000016000F00BF940F0800041E80502002AF9
:10189000F7D1002070BD00BFD71B0008E91C00086D
:1018A000AD1C00080148043000F0A6BB0C0000206D
:1018B0007047FEE7E0B50020002201903B48016838
:1018C00041F4001101600021006800F40010019053
:1018D00001980C20FFF720FB0C20FFF70DFB0E20DA
:1018E00000210022FFF718FB0E20BDE88C40FFF717
:1018F00003BB00BF2DE9F04186B00DF104081421AF
:101900004046FEF719FE00262848294D01224FF4D3
:10191000007701240096016841F010010160016820
:1019200001F0100100F064F841F004010160016869
:1019300001F0040100F05CF841F020010160016851
:1019400001F0200100F054F841F0800101600168CD
:1019500001F0800100F04CF841F0020101600168E3
:1019600001F0020100F044F841F0010101604FF480
:101970000071006800F00100009000982846FFF711
:1019800054FA10204146CDE902640190A5F580602B
:10199000FFF772F928464146CDE90366CDE90174A7
:1019A000FFF76AF906B0BDE8F08100BF30380240A9
:1019B0000014024010B50B480B4C00210C224FF4D0
:1019C000E133C0E90043C0E90211C0E90412C0E9F3
:1019D0000611FFF77BFE18B1BDE81040FEF78EBF81
:1019E00010BD00BFCC0A002000480040FEE7FEE723
:1019F00000910099009601687047206850E8050F33
:101A0000216820F0400041E80502002A7047D3F821
:101A1000000400F0070040457047002084F83400BF
:101A2000012084F835007047206850E8030F2168D2
:101A300020F0100041E80302002A7047016821F0FD
:101A4000010101607047016851E8051F026821F03B
:101A5000010142E80513002B7047016851E8031F9C
:101A6000026821F0100142E80313002B704721683F
:101A700051E8031F2268704720684069400670479C
:101A8000206850E8030F21687047B06800F00C0030
:101A900008287047002084F834007047206850E818
:101AA000050F21687047204600F021B9206850E8F2
:101AB000050F216820F0010041E80502002A704767
:101AC000044690F8340001287047242084F841002F
:101AD0002068C16821F40051C160204600F094B92B
:101AE00041E80302002A70474161C16841F4005196
:101AF000C16000202021606484F8411084F8421005
:101B0000606310BD002084F840002046FFF7F4BD5C
:101B100070477047FFF792B970B592B006AC3021AC
:101B20002046FEF709FD01A81421FEF705FD00255A
:101B3000204802260095016841F08051016000684C
:101B400000F080500090009800951B48016841F417
:101B500080410160006800F48040009004201096ED
:101B600011904FF4A8700F9008200E904FF4800051
:101B7000CDE90C604FF4803007900120069000986A
:101B80002046FFF7D3FA08B172B6FEE74FF4805053
:101B9000CDE90265052105904FF4A05004900F2077
:101BA000019001A8FFF7EEF908B172B6FEE712B096
:101BB00070BD00BF4038024000700040024801681C
:101BC00041F470010160704788ED00E0806B0021F6
:101BD000C185FFF756BC10B5846B2068416994F845
:101BE0004120212A08D111F0800105D00020E08495
:101BF000204600F09DF82068406994F842102229A0
:101C000006D110F0400003D00020E085FFF74BFF25
:101C1000606C40F0100060642046BDE81040FFF7A3
:101C200030BC0168806B0968C90529D40021C185D1
:101C3000016851E8031F026821F4807142E8031330
:101C4000002BF5D14DF808EDFFF7FDFE5DF808EB30
:101C5000F8D1016851E8051F026821F0400142E80F
:101C60000513002BF5D1202180F84210016B0129CA
:101C700006D14DF808EDFFF7F0FE5DF808EBF8D15E
:101C800000214163016B012918BFFFF7C9BD818D98
:101C9000FFF7F6BB806B01214163016B012918BF7F
:101CA000FFF7C2BD818D4908FFF7EABB0168806B71
:101CB0000968C90548BFFFF7F5BD0021C184016867
:101CC00051E8051F026821F0800142E80513002B4E
:101CD000F5D1016851E8031F026841F0400142E874
:101CE0000313002BF5D17047806BFFF7E1BD01684E
:101CF00051E8031F026821F4907142E80313002B9E
:101D0000F5D14DF808EDFFF79EFE5DF808EBF8D130
:101D1000016B012906D14DF808EDFFF79EFE5DF835
:101D200008EBF8D1202180F84210002101637047B0
:101D3000016851E8031F026821F0C00142E8031363
:101D4000002BF5D1202180F84110704790F8421007
:101D5000222920D183680246B3F5805F08D152F86A
:101D6000281F52F8183C002B45D003685B6809E037
:101D700052F8281F13B90369002BF6D003685B687B
:101D800003F07F030B70116801311160C18D0139BF
:101D9000C185090400D070470168CA6822F020029A
:101DA000CA60CA6822F48072CA604A6922F00102DD
:101DB0004A61202180F8421000214163026B012A10
:101DC00018BFFFF72DBD81B001634DF808EDFFF797
:101DD00044FE5DF808EBF8D101680A68D20606D522
:101DE000002200920A680092496800910099818D52
:101DF00001B0FFF745BB026852686FF35F2221F81C
:101E0000022B8162C2E70000B0B50446006804F10D
:101E100008030ECB056925F4405519432A4349F2BE
:101E20000C650261C26863691943E369AA431943F7
:101E30001143C1604169A26921F4407111434161BC
:101E4000204940F48060884202D1FFF731F901E077
:101E5000FFF724F9E269192163681B4DA0FB01011A
:101E6000B2F5004F16D15A00DB0FFEF789FA642154
:101E700005F18053B0FBF1F202FB0300322303EBC8
:101E8000C000B0FBF1F04FF4F87101EA400100F03E
:101E9000070011E09A009B0FFEF772FA64213223CB
:101EA000B0FBF1F202FB050003EB0010B0FBF1F018
:101EB00000F0F00100F00F0001EB0211084421686E
:101EC0008860B0BD001401409CFFFF0FF8B51346B9
:101ED000002504461E4E0A461F4F456483858162D5
:101EE000222084F84200E06B2168C0E91365194E96
:101EF0000431C0E90F76FEF781FE30B11020606436
:101F0000202084F842000120F8BD00952068016877
:101F10000091406800900098206930B1FFF7B0FD53
:101F200040F48070FFF7DCFDF8D1FFF7B7FD40F01B
:101F3000010041E80502002AF7D1FFF7AFFD40F0AC
:101F4000400041E80502002AF7D10020F8BD00BF9B
:101F5000D71B0008951C0008231C00080023C2851D
:101F6000436481622221828580F842100168006901
:101F700018B1C86840F48070C860486940F001003A
:101F80004861C86840F02000C86000207047000029
:101F90000148FFF777BA00BFCC0A0020FEE7000037
:101FA00090ED040B90ED061B90ED102B0148A0EC7A
:101FB000060B7047200B002001464FF4007201C948
:101FC000FFF70EBC0268D0F80412D26B1268526898
:101FD00052426FF35F22914202D14FF0FF3108E08D
:101FE0004A1C0144C0F804226FF35F220979C0F84B
:101FF000042208467047000070B50446134D00687F
:10200000297890F84120202A08BF002900D070BD0F
:102010000121D4F808242970D4F80C148A4211D074
:10202000914228BF4FF40072561A2144B2B201F512
:102030000271FFF7FBFBD4F80C0430446FF35F2010
:10204000C4F80C040020287070BD00BF080A0020EE
:102050002DE9F8438946D0F808141546B2F5007FFB
:1020600000F502780446A8BF4FF40075C1F500776B
:1020700008EB010049463E46BD4238BF2E46324677
:10208000FEF715FAD4F80804BD4228446FF35F2028
:10209000C4F8080405D909EB0601AA1B4046FEF75F
:1020A00006FA2046BDE8F843FFF7A6BF70B505461F
:1020B00008300C4600F00CF80646211805F12800FF
:1020C00000F006F8304470BDCC487047C2487047F5
:1020D0000A684B68C0E902238A68CB68C0E9042318
:1020E0000A694969C0E906211820704700A07047B5
:1020F00034613834326236356634313330383464E2
:102100006332623130666234383465613766313744
:102110000000000000A0704767656F6D65747279FC
:102120005F6D7367732F566563746F7233000000C1
:102130002DE9F84F8346D1F8008040680C46804571
:1021400007D9DBF80C004FEA8801FEF7B7F8CBF8A7
:102150000C0000260120CBF80480A21914F82010EE
:1021600053799579D27941EA032141EA054141EA5F
:102170000267411E414509D2DBF80C10CBF808700C
:1021800001308F510436DBF80480E6E7DBF81000FD
:10219000874206D9DBF81800B900FEF78FF8CBF8B4
:1021A00018000020CBF81070A1198D68B8420AD22F
:1021B000DBF81810CBF81450043641F820500130E9
:1021C000DBF81070F0E7DBF81C000C36854206D90E
:1021D000DBF82400A900FEF771F8CBF82400A4F185
:1021E000010A4FF00009E8460027CBF81C50AF4227
:1021F0001CD2A119404600F09BFB0098311D0844F9
:10220000321D824204D2A21901361379D370F7E746
:102210000AF8009051440646DBF82420CBF8201041
:1022200042F827100137DBF81C50E0E73046BDE8E4
:10223000F88F000000A07047396630653938626455
:10224000613635393831393836646466353361661C
:102250006137613430653439000000000048704750
:10226000AE2C00087CB50D46044611F8010B207118
:1022700001A800F05DFB01990022481D531D834217
:1022800004D2AB1801325E791E71F7E729440022AF
:102290000A71291DA1607CBD00A0704731316162C7
:1022A0006437333163323539333332363163643630
:1022B000313833626431326436323935000000001F
:1022C00000A07047726F7373657269616C5F6D73A4
:1022D00067732F4C6F6700002DE9FF418046087837
:1022E0000D46A8F80400497840EA0120A91CA8F886
:1022F000040003A800F01CFB039E0021B01D8A1DF2
:10230000824204D26A18013193795371F7E7A81910
:1023100000214171691DC8F80810811D02A800F054
:1023200007FB029F06F10A0031463C1801F10A0240
:10233000A24204D26A180131937A5372F6E7284414
:1023400029190022013801F8012CC8F80C0001A855
:1023500000F0EEFA0198211DF219084402F10E0373
:10236000834204D2AB1801329C7B5C73F6E72944AC
:102370002A180023013902F8013CC8F81010295826
:102380000430C8F8141004B0BDE8F08100A0704714
:1023900030616435316638386663343438393266D2
:1023A00038633130363834303737363436303035BC
:1023B0000000000000A07047726F7373657269615E
:1023C0006C5F6D7367732F546F706963496E666FCE
:1023D0000000000000487047B82D0008C06D70472D
:1023E000B0B500F1100504462846FFF75FFEA16D69
:1023F0002846BDE8B040084700487047882D0008CF
:102400002DE9F04186B0044600206FF063064FF4DA
:1024100000786D4605902948CDE90300284808302A
:102420000090FEB1A719D7F88818C9B1D1E90020EA
:102430008968ADF8041001680292896888470390A2
:10244000D7F8880840680168C9688847CDE904085A
:1024500020682A460368D7F888080169204698470B
:102460000436DEE76FF063064FF400786D46FEB188
:10247000A719D7F8EC08C8B190E80E000293ADF8A0
:102480000420896888470390D7F8EC080168C96878
:102490008847CDE90408D7F8EC08016849688847FF
:1024A000014620682A460368204698470436DEE73E
:1024B000012084F8000906B0BDE8F081CB2D0008AA
:1024C0002C2D00081FB5044600200A21CDE902008A
:1024D0000648083001902068036801AA2046984702
:1024E000FEF7A8FCC4F814041FBD00BF702D00083F
:1024F000F8B58DF80810054903920831019101687B
:102500000B6801AA072198478FBD00BF142D000852
:1025100070B50C460546FEF78DFC4FF47A71D4E990
:102520000046B0FBF1F202FB11000949D3432344FA
:1025300000FB0160FD49C5F81834084405F21C4150
:10254000C5F81C0405F58360BDE8704000F0E2B9F1
:10255000C0BDF0FF70B50D460446642904DB94F855
:10256000000908B9002439E0106804F22B610368FF
:1025700010469847290A84F82956C21D00230025D1
:1025800084F8260684F82A164FF6FF61A4F824166C
:10259000010A84F8271600EB1021C94384F8281695
:1025A00004F224615E1D964205DAE618013396F8BE
:1025B00029663544F6E7EB43B0F5FC7F8B5407DC26
:1025C000221D00F1080410462246FFF741FD05E0F8
:1025D00003A1204600F031F84FF0FF34204670BDD3
:1025E0004D6573736167652066726F6D20646576F3
:1025F0006963652064726F707065643A206D6573FD
:1026000073616765206C6172676572207468616EC2
:10261000206275666665722E0000000010B50446E3
:102620000430FFF7C9FC0020C4F8EC08C4F8F00837
:10263000C4F8F408C4F8F80810BD0A460321FFF7EF
:1026400057BF00002DE9FE4F0446FEF7F3FB054699
:10265000D4F8080942F6F921281A884224BF00203C
:1026600084F80009D4F8EC08261D30B1D4F80C0920
:10267000854284BF0020C4F8EC0804F688007D4F32
:1026800005F1140904F224484FF0000A4FF0000B42
:10269000019004F61410009000200290D4F8200459
:1026A00038B1FEF7C7FBD4F82014401B884200F273
:1026B000CE803046FFF786FC002800F1A880D4F8D1
:1026C000FC28D4F8EC1802440829C4F8FC28E5D802
:1026D0003A40DFE801F0053A151F0D40482958003F
:1026E000FF286CD10120C4F80C99C4F8EC08D5E798
:1026F000FF2A12BFC4F8ECA80520C4F8EC08CDE707
:102700000321C4F8F8A8C4F8FC08C4F8F008C4F819
:10271000EC18C3E70421C4F8EC18D4F8F01801EB66
:102720000020C4F8F008B9E7D4F8F8184A1CC4F837
:10273000F82808F80100D4F8F0080138C4F8F008C7
:10274000ACD10820C4F8EC08A8E7FE2840D102204C
:10275000C4F8EC08A2E70621C4F8FC08C4F8F408A1
:10276000C4F8EC189AE7D4F8F428D4F8F01802EB7F
:1027700000200029C4F8F4084FF0070008BF082023
:10278000C4F8EC088AE7FF2AC4F8ECA87FF486AF07
:10279000D4F8F40806282DD00A2824D00B2831D0EC
:1027A000002858D0019901EB800033494058002897
:1027B0003FF474AF01680A68414690476EE7FEF740
:1027C00039FB401B41F289318842FFF467AF3BE09F
:1027D00094F80009C4F8ECA800287FF45FAF204605
:1027E000FFF770FE5AE72046414600F047F84FF0E9
:1027F000010B53E700984146FFF79AFC012084F84B
:1028000010094BE7012084F800A9029046E794F8EC
:10281000000958B1D4F8040940F6C511281A8842B5
:1028200004D32046FFF74EFEC4F8045902984FEA3D
:10283000CB7110F0010018BF6FF00200002918BF23
:102840006FF00300BDE8FE8F002084F800096FF0F0
:102850000100BDE8FE8F2046FFF734FE2046FFF75B
:10286000CFFD4FF0FF30C4F80459C4F80859BDE853
:10287000FE8F00BFFF00008070FEFFFF2DE9FF41CB
:10288000044600200D46CDE90200154808300190AD
:10289000FEF7D0FA0DF104080646D4F81474294660
:1028A000404600F05DF8F01B4FF47A71DDE9023527
:1028B000B0FBF1F202FB110043F6095113440293FD
:1028C000484308F1040105EB801003902046FFF710
:1028D0001FFEFEF7AFFAC4F80809BDE8FF8100BF8C
:1028E000702D000890F80009704700F6880000225B
:1028F000192A09D050F822300BB10132F8E740F81C
:10290000221002F1640048600020192A38BF01201B
:1029100070470000B0B50A68044B0568B2FBF3F4D9
:102920002544056004FB13200860B0BD00CA9A3B33
:1029300010B5002200230260202A08BF10BD11F844
:10294000014B9440083223430360F5E70022202A1C
:1029500008BF704721FA02F3083200F8013BF6E79E
:102960000A7842604B7842EA032242608B7842EA5E
:1029700003424260CB7842EA036242600A79826095
:102980004B7942EA032282608B7942EA03428260F9
:10299000C97942EA016181600820704700A0704750
:1029A00063643731363663373463353532633331F8
:1029B0003166626363326665356137626332383926
:1029C0000000000000A070477374645F6D7367734C
:1029D0002F54696D6500000070B5054608300C463F
:1029E00000F008F80646211805F1280000F002F86A
:1029F000304470BD10B5D0E902231C0E0B710A7073
:102A0000CC711C0C1B0A4B71130E8C71CB70130C08
:102A1000120A8B704A70D0E904231C0E0B730A72E1
:102A2000CC731C0C1B0A4B73130E8C73CB72130CE0
:102A3000120A8B724A72D0E90620030E08750A74D6
:102A4000CB75030C000A4875100E8B75C874100CFA
:102A50008874100A4874182010BD2DE9F04105460D
:102A60004068884608706868000A4870E88888707E
:102A7000E879C870002001216A684B1E934208EB78
:102A800000020CD2EB681B5804301C0E08F82130F1
:102A90000131D4711C0C1B0A94715371ECE72B6942
:102AA00008F821302969090A5171698A9171E97C14
:102AB000D17100212A69914208EB000206D2AB696C
:102AC000043053F8213001319360F3E7E96900F1F4
:102AD0000C0600241172E969090A5172E98B91729E
:102AE000E97FD172E869844216D2686A50F82400FE
:102AF000FDF7BEFC074608EB06003946FFF726FF48
:102B0000686A04363A4650F8241008EB0600FDF7D0
:102B1000CEFC3E440134E5E73046BDE8F081F8B52F
:102B2000054600790E460C4606F8050BA868FDF729
:102B30009FFC0746601C3946FFF708FFA96830462E
:102B40003A46FDF7B4FC781DF8BD00002DE9F047CA
:102B500005460079DFF868900C460870687948707F
:102B6000A868C8470646DFF85CA0A01C3146D047DD
:102B700004F10608A96832464046FDF798FCE8686B
:102B8000C847074608EB06003946D0470A36E968C9
:102B90003A46A019FDF78BFC28693744C84706461A
:102BA000E0193146D047043729693246E019FDF76C
:102BB0007EFC6969F01921500430BDE8F08700BF40
:102BC000710400084D29000842680A704268120A20
:102BD0004A70C2888A70C279CA7082680A71826833
:102BE000120A4A7142898A71C07AC87108207047F6
:102BF0002048FFF727BD00BFFEF72AF9FEF78CFF3C
:102C0000FEF778FEFEF756FEFEF7D4FE1048114997
:102C10000122FEF7F3FD104CA4F580652846102133
:102C2000FEF7F6F840B120464FF40071FEF7F5F8D4
:102C3000C820FEF711F8F1E720464FF4007100229A
:102C4000FEF7F3F800F00AF8FFF7D2FFFCE700BF49
:102C5000CC0A0020140B00200014024010B5054CD3
:102C60002046FFF7DBFC04492046BDE81040FFF793
:102C70003CBE00BF0C00002048090020F1EE100A05
:102C80004FF6FF71C0F2C03120EA010040F0407001
:102C9000E1EE100A70470000000000000000010291
:102CA0000304060708090000000001020304726F14
:102CB0007373657269616C5F6D7367732F526571B1
:102CC00075657374506172616D0000000000000052
:102CD00000000000D9290008AD200008CD20000820
:102CE000C92000080000000000000000F5290008CD
:102CF000D120000815210008ED2000080000000088
:102D0000000000005B2A0008312100085D22000855
:102D10003522000800000000000000001F2B000802
:102D200065220008C1220008992200080000000066
:102D3000000000004D2B0008D9220008B523000830
:102D40008D2300080000000000000000E1230008BF
:102D5000DD230008D5230008F92300080000000047
:102D6000000000005525000845260008E528000859
:102D70000000000000000000C92B000861290008C5
:102D8000C52900089D29000839663139356638386B
:102D900031323436666466613237393864316433CF
:102DA000656562636138346100676976655F636198
:102DB000725F73706565640067656F6D65747279C5
:102DC0005F6D7367732F547769737400F02D00087B
:102DD00000000020A8090000EC010008402E0008B7
:102DE000A8090020900D00002C020008000000003F
:102DF000420152100CFF24F400642D0008CC0A009C
:102E00002001FF01FF01FF01FF01FF01FF01FF01A1
:102E1000FF011F0525042D0008554C2D000855A95C
:102E20002D000855D42C0008051DEC2C0008051DAC
:102E3000EC2C000846A11F00080100000000000063
:040000050800018965
:00000001FF
