:020000040800F2
:10000000E818002029030008794500089D400008F1
:1000100081440008B51A00087D4E00080000000069
:100020000000000000000000000000002D46000855
:10003000F11C00080000000029460008AD46000839
:100040004303000843030008430300084303000878
:100050004303000843030008430300084303000868
:100060004303000843030008430300084303000858
:10007000D91C000843030008E51C000843030008DE
:100080004303000843030008430300084303000838
:100090004303000843030008430300084303000828
:1000A0004303000843030008430300084303000818
:1000B0004303000871470008430300084303000896
:1000C00043030008430300084303000843030008F8
:1000D00043030008654E000843030008714E000802
:1000E00043030008430300084303000843030008D8
:1000F00043030008430300084303000843030008C8
:1001000043030008430300084303000843030008B7
:1001100043030008430300087D4700084303000829
:100120004303000843030008430300084303000897
:100130004303000843030008430300084303000887
:100140004303000843030008430300084303000877
:100150004303000843030008430300084303000867
:100160004303000843030008430300084303000857
:100170004303000843030008430300080000000095
:10018000430300084303000800F002F800F0BCF845
:1001900014A696E8000CB244B344DA4501D100F04D
:1001A000B3F8BAE80F000FA696E83000A5EB0405F7
:1001B00004EB0607AAEB0704A7F101074FEA1515A0
:1001C0004FEA3414A4F10104AC4201D300F09CF8CE
:1001D00013F0010F18BFFB1A43F0010300F001F800
:1001E000DBE7184788650000A86500000A4410F89E
:1001F000014B14F00F0508BF10F8015B240908BF7C
:1002000010F8014B6D1E05D010F8013B6D1E01F872
:10021000013BF9D1641E03D0641E01F8015BFBD1E0
:100220009142E4D37047000070470000002300248F
:1002300000250026103A28BF78C1FBD8520728BFF6
:1002400030C148BF0B6070476E2900F08983702968
:1002500000F0CB84662906F06981652906F0668185
:10026000672906F06381612906F0628103681B0A31
:1002700028BF41F08001692900F03683642900F02D
:100280003383752900F030836F2900F05984782971
:1002900000F09784E92900F0F383E42900F0F0836B
:1002A000F52900F0ED83EF2900F05684F82900F0DD
:1002B00096840368DB0928BF41F08001632901F0BF
:1002C0002B82732901F03082E32901F03B82F3296C
:1002D00001F04082002070471FB506F01AF99DE832
:1002E000030000F019FA01F091FA04000020002147
:1002F00006F082F8401C60600020002106F066F8DD
:10030000E0601FBD10B510BD01F053FA1146FFF7B4
:10031000E3FF05F0F9FB01F02FFB03B4FFF7F2FF59
:1003200003BC01F05FFB0000094880470948004713
:10033000FEE7FEE7FEE7FEE7FEE7FEE7FEE7FEE795
:10034000FEE7FEE704480549054A064B70470000F2
:100350005D47000889010008E80C0020E81800202B
:10036000E8100020E810002070B50D460646041F76
:1003700000F0B6F90268BDB1DEB105F10B0020F066
:100380000701A9423CBF002070BD23688B4238BFE3
:10039000506813D35A1A082A36D3601840F8042B31
:1003A000216000F017FA2FE0304600F013FA002029
:1003B00070BD2846BDE8704000F0DDB9002818BFC8
:1003C000A0423CBF02464068F8D303EB040C8445CE
:1003D0001CD1D0F800C06344994217D8A3EB010C9C
:1003E000BCF1080F0DD3D0F804C06318C3F804C0E3
:1003F000D4F800C000686044401A1860216053605F
:1004000002E0236040685060201D70BD284600F067
:10041000B2F9050008D031462068021F284600F0D6
:10042000B3FC201D00F0D6F9284670BD53EA020C3B
:1004300000F069802DE9F04B4FF00006002B1FBF44
:10044000B3FA83F503FA05F424FA05F65E4012BF09
:100450001643B2FA82F502FA05F4C5F120051EBF73
:1004600022FA05FC44EA0C04203556EA044C4FEA13
:10047000144418BF641C4FF000084FF0000990426C
:1004800071EB030C39D3002919BFB1FA81F701FAD6
:1004900007F6B0FA80F700FA07F6C7F120071EBF8B
:1004A00020FA07FC46EA0C062037B6FBF4FCA7EB63
:1004B0000507103F07F01F0BCBF120062CFA06F6BC
:1004C0000CFA0BFB44BFB3460026202FA4BF5E46A8
:1004D0004FF0000B5BEA060C08BF4FF0010B19EB65
:1004E0000B0948EB0608ABFB027C06FB02CC0BFBBE
:1004F00003CCC01B71EB0C01C1E70B460246414621
:100500004846BDE8F08B13B5084318BF4FF0FF30E5
:100510000146AFF30080BDE81C4070471CB50C4697
:10052000064B7B4469460090204600F032FA0446B0
:100530000020694600F040FA20461CBD93040000EC
:1005400010B5431C02E010F8011B71B18107FAD10C
:100550004FF0013202C88C1A8C4314EAC211F9D050
:10056000C01A0A0603D0C01E10BDC01A10BD0A046E
:1005700001D0801E10BD0902FCD0401E10BD032A10
:1005800040F2308010F0030C00F0158011F8013BB0
:10059000BCF1020F624498BF11F801CB00F8013B97
:1005A00038BF11F8013BA2F1040298BF00F801CB5B
:1005B00038BF00F8013B11F0030300F0E583083A6F
:1005C000C0F0088051F8043B083A51F804CBA0E889
:1005D0000810F5E7121D5CBF51F8043B40F8043BDE
:1005E000AFF30080D20724BF11F8013B11F801CB13
:1005F00048BF11F8012B24BF00F8013B00F801CBE4
:1006000048BF00F8012B7047431A28BF9A427FF673
:10061000B6AF10441144032A40F2268010F0030FB5
:100620001EBF11F8013D521E00F8013D10F0030FEE
:100630007FF4F6AF11F0030300F0EB83083AC0F04B
:100640000B8051F8043D083A51F804CD40F8043DC0
:1006500040F804CDFFF7F3BF121D5CBF51F8043D15
:1006600040F8043DAFF30080D20724BF11F8013DEC
:1006700011F801CD48BF11F8012C24BF00F8013D4D
:1006800000F801CD48BF00F8012C70474FF0000280
:1006900000B5134694469646203922BFA0E80C5078
:1006A000A0E80C50B1F12001BFF4F7AF090728BF53
:1006B000A0E80C5048BF0CC05DF804EB890028BFCF
:1006C00040F8042B08BF704748BF20F8022B11F0F8
:1006D000804F18BF00F8012B704770477047704774
:1006E00000487047500900207047704770477047B6
:1006F00038B504460A4600206946AFF3008000285A
:1007000008BF38BD02460099204600F0B7FB012023
:1007100038BD012001F046B8F8B5AFF300800546BA
:1007200000200C460C2000BF0646A819A0420DD997
:10073000324669460020AFF30080070008BF01F091
:1007400031F80098A04218BF0546C419FFF7C8FF4A
:1007500005600746F01D20F007004619284600F006
:1007600087FBB44208BFF8BDA21B31463868BDE81C
:10077000F84000F083BB70B50646FFF7B1FF05688F
:1007800006F10B0020F00704B4429CBF002070BDAE
:100790002B466A68BAB11068A04210D304F1080170
:1007A00088423CBF5068586007D3516810194160B7
:1007B0001168091B016058601460101D70BD13465C
:1007C0005268002AE7D121462846FFF791FF00280A
:1007D000DED170BD70B50446051FFFF781FF0068CC
:1007E000002C14BF446870BD002C18BFAC423CBF45
:1007F00020466468F8D301680A18AA4218BF456009
:1008000003D12A6805461144016028684119A142B4
:100810001CBF6C6070BD6168696021680844286015
:1008200070BD70B5044685690068C10601D53026E3
:1008300000E02026C00707D070BDD4E90121304672
:100840009047206A401C20626D1EF6D570BD70B5C1
:10085000044685690078C00707D170BDD4E901213D
:1008600020209047206A401C20626D1EF6D570BD86
:1008700009684A0501D540B27047C905FCD500B2E8
:10088000704709684A0501D5C0B27047C905FCD553
:1008900080B2704770B50C460546012A05D028780D
:1008A000800600D5EA69002302E0012305E05B1C15
:1008B000934202D2E05C0028F9D1A869E618C01A78
:1008C000A861286A184428622846FFF7AAFF04E0B6
:1008D000D5E9012114F8010B9047B442F8D328461A
:1008E000FFF7B5FF70BD00002DE9F041064600247A
:1008F00010687529314616A510D0FFF7B9FF0028FA
:1009000002DA404213A507E031688A0701D512A533
:1009100002E0490704D511A5012401E0FFF7B1FF6A
:1009200000210A2206F1240709E0B0FBF2FCB0FB2B
:10093000F2F302FB1C00303078541846491C0028A2
:10094000F3D123462A463046BDE8F04100F0F5BA1F
:10095000000000002D0000002B000000200000001F
:1009600011680268006A530501D508700AE0D305D2
:1009700001D5088006E0130603D5C217C1E90002BD
:1009800000E008600120704701694A1C0261087894
:10099000704700B58FB0CDE90131002105910549BF
:1009A0007944CDE903101146684600F029F90FB0EB
:1009B00000BD0000E5FFFFFF0A6802F8010B0A60B6
:1009C000704700002DE9FF5F15468A460446DFF8B0
:1009D000AC80F8440027D8E900103E46CDE900106D
:1009E00010E03AF816106A4602A800F0B7FE411C63
:1009F00007D02178890603D5E269391891420DD8CC
:100A00000744761C2078800602D5E069B84205DDEF
:100A1000AE42E6DB3AF816000028E2D1A069C01B1E
:100A2000A0612046FFF7FDFED8E90010CDE90010D7
:100A3000002017E03AF818106A4602A800F08EFE6F
:100A4000B0F1FF3F81460BD000250DF1080B05E00A
:100A5000D4E901211BF8050090476D1C4D45F7D3E3
:100A600008F10100B0428046E4DB206A384420628D
:100A70002046FFF7ECFEBDE8FF9F00005E5B000034
:100A80002DE9F0418046D21D22F007020025D2E96F
:100A90000002F52915A614D0011E72F1000106DA34
:100AA0000023D0EB030063EB020211A608E0D8F8A4
:100AB00000108B0701D50FA602E0490701D50EA64D
:100AC00001251146002408F1240704E000F0F0F9A4
:100AD00030323A55641C50EA0102F7D12B463246B7
:100AE00021464046BDE8F04100F027BA0000000072
:100AF0002D0000002B0000002000000030B4002179
:100B000000F1240408E002F00705D208303542EA7B
:100B10004372DB086554491C52EA0305F3D10468AB
:100B2000002310A2250708D504F020040C4304D0AC
:100B3000C46901230CA2641EC46130BC00F0FDB97D
:100B400010B5044621461068FFF79BFE024620467A
:100B5000BDE810400023D1E7D21D22F00701D1E902
:100B60000023CBE70000000030000000F0B40D4689
:100B70000188090502D5214C7C4402E01F4C7C44CD
:100B80000E34002100F1240608E002F00F071209DC
:100B9000E75D42EA03721B097754491C52EA0307D6
:100BA000F3D102780023120704D5702D06D009B1C5
:100BB000022311342246F0BC00F0BFB901231034E7
:100BC000F8E770B504460D4621461068FFF759FE58
:100BD000024629462046BDE870400023C6E7D21DE4
:100BE00022F00703D3E90023C0E70368126843F04B
:100BF000200303600823C3610023B7E7C059000046
:100C00002DE9F05F894604464FF0000ADFF874B121
:100C1000FB44C0F820A02046E1688847002874D033
:100C2000252806D0D4E901219047206A401C206283
:100C3000F1E700265F462046E16888472028054600
:100C400007DB312D05D2781910F8200C08B10643C6
:100C5000F1E7B00701D526F00406C4F81CA0002770
:100C6000C4F818A02A2D09D0284605F0A7FB38B3F0
:100C700004EB8708303DC8F8185019E059F8041BF8
:100C8000204604EB87029161E1688847012F054601
:100C900018D1E069002820DA26F020061DE0D8F8F7
:100CA000180000EB800005EB40003038C8F8180051
:100CB0002046E1688847054605F080FB0028EED114
:100CC000012F0AD02E2D08D12046E16888477F1CCD
:100CD0000546022F46F02006C4DBA069002803DA8F
:100CE000404246F00106A061F00701D026F0100650
:100CF0006C2D0BD0682D09D04C2D39D06A2D35D0F4
:100D0000742D35D07A2D33D016E038E0E1682F46C7
:100D100020468847B842054609D16C2F26D04FF4AB
:100D20008060E168064320468847054604E06C2F52
:100D30001AD04FF4807006430DB3A5F14100192875
:100D400002D8203546F400664A46294620462660E9
:100D50004E46FFF779FA80B101280BD0F61D26F038
:100D6000070000F1080956E74020E4E78020D8E7B3
:100D70000020D6E706F104094DE7284652E7206A2D
:100D8000BDE8F09F5059000010B5203AC0F00B802C
:100D9000B1E81850A0E81850B1E81850A0E8185071
:100DA000203ABFF4F5AF5FEA027C24BFB1E81850E7
:100DB000A0E8185044BF18C918C0BDE810405FEA49
:100DC000827C24BF51F8043B40F8043B08BF7047C5
:100DD000D20728BF31F8023B48BF11F8012B28BFCA
:100DE00020F8023B48BF00F8012B7047431A28BF88
:100DF0009A427FF6C9AF1044114410F0030F1EBF92
:100E000011F8013D521E00F8013D10F0030F7FF470
:100E1000F6AF103AC0F00A8010B531E9185020E959
:100E20001850103ABFF4F9AFBDE81040530724BF83
:100E300031E9081020E9081044BF51F8043D40F89A
:100E4000043D12F0030F08BF7047D20728BF31F8E6
:100E5000023D48BF11F8012C28BF20F8023D48BFD1
:100E600000F8012C70470000004870474809002036
:100E700000210160416070470C20704703464068C4
:100E80008C46002818BF88423CBF03464068F8D310
:100E900018681844884207D00CF1030020F00700BE
:100EA000001D411A521A0146081D0A60FFF792BC44
:100EB00030B5B0F10A0271F100034FEA900E4EEA2C
:100EC000817EB0EB0E0061EB91014FEA101E4EEAFD
:100ED000017E10EB0E0041EB11114FEA102E4EEA8D
:100EE000016E10EB0E0041EB11214FEA104E4EEA5D
:100EF000014E10EB0E0041EB1141401841F1000191
:100F00004FEAD00040EA41704FEAD1014FEA810434
:100F100044EA907410EB800544EB01046D1944EB36
:100F20000404521BA3414FF0000348BF0A3200D50E
:100F300030BD401C41F1000130BD2DE9F0470D46A8
:100F400099469246044600F124080168880604D5B3
:100F5000E06921F01001216000E00120A84201DDDC
:100F6000471B00E00027A1697A1902EB0900081A63
:100F7000A0612078C00602D42046FFF752FC00266C
:100F800008E0D4E901211AF806009047206A401CC5
:100F9000761C20624E45F4DB2078C0060AD5204638
:100FA000FFF73FFC06E0D4E9012130209047206A9A
:100FB000401C2062381EA7F10107F4DC07E0D4E9E9
:100FC000012118F805009047206A401C2062281E65
:100FD000A5F10105F3DC2046FFF739FC2078000677
:100FE00002D50220BDE8F0870120FBE72DE9FF4F85
:100FF0000C461E464FF0FF378BB0D2E90001DDF8FA
:1010000060800A908A46C1F30A5505B93D46002121
:1010100008464FF00000BAF1000F00F4400005DA76
:1010200000EB80004FF4400101EA50004FEA905974
:10103000B9F1010F00DDB9460A9850EA4A000ED016
:1010400044F61050A5F2FF3545432F14B8F1000FB8
:101050001ED07542291E1EDDC9F100021CE0B8F148
:10106000010F4FF0000001D0302103E0F24305E012
:101070002154401CB042FBDB3046002200212154A9
:101080000B99C1F80880C1E900200FB0BDE8F08FCE
:10109000BD1B6D1CDEE74A4600DA694206A800F077
:1010A000F9FB06AB93E8070003AB83E80700504663
:1010B0000A9904F0A2FD8DE80700A0F500501F3842
:1010C00000900398002D0ADD42F21F014A460844B1
:1010D000002303A90390684605F00CF809E0A0F589
:1010E00000504A461F38002303A90390684605F0C4
:1010F00016F88DE807000004000C03D04FF0FF3015
:10110000410800E01046B8F1000F03D00022009221
:1011100015461EE0751E05D4FFF7CAFE3032625533
:101120006D1EF9D5B3460122084302D000227F1C70
:1011300004E02078302801D100227F1E002A099780
:1011400084D01DE0112D07DAFFF7B2FE3032625570
:101150006D1C50EA0102F5D1084302D00098C8B1D5
:101160000EE00021681E05E0235C625C635422549B
:10117000401E491C8142F7DBAB46A81B401E09906C
:10118000002004F80B000B98099AC0F80880C0E909
:10119000002B7AE711264FF0000857E72DE9F04FB2
:1011A00088460446D21D22F0070191B0D1E9000122
:1011B000CDE90A0105F0EAF802460B98C00F01D00C
:1011C0002D2007E02068810701D52B2002E0202197
:1011D00001EAC000032A099001D0072A05DB034673
:1011E0004146204600F016FB0BE12078800601D531
:1011F000E06900E00620B8F1650F814606D0B8F13D
:10120000660F18D0B8F1670F70D131E00020B9F146
:10121000110F009001DB112301E009F101030AAA7B
:1012200001A90CA8FFF7E2FEDDE90C70002609F128
:101230000105834647E001204B4600904FF00047F0
:101240000AAA01A90CA8FFF7D1FEDDE90DB00C999F
:101250005D46002610B909F101000D18B9EB050033
:1012600003D4C0F1FF3609F10105A5EB09002BE01D
:10127000B9F1010F01DA4FF001090020B9F1110FA6
:101280000090484601DD112300E003460AAA01A9A7
:101290000CA8FFF7ABFEDDE90C704D460026834637
:1012A000207800070AD4AB4500DA5D4601A8012D7D
:1012B00004DD411911F8011C302907D04F4502DA2D
:1012C00017F1040F04DA012082460FE06D1EEEE7ED
:1012D000002F02DCED1B3E4403E0781CA84200DD39
:1012E0007D1CB81B00F1010A4FF000472078000771
:1012F00003D4AA4501DB4FF0FF3A0021B7F1004FBC
:101300000DF143088DF8431024D002202B23002F29
:1013100001DA7F422D230A21021EA0F1010000DC28
:101320005FB197FBF1FC97FBF1F201FB1C7C1746C8
:101330000CF1300C08F801CDEEE7A8F101000370C4
:101340002188090501D5452100E06521A0F10108AA
:1013500000F8011C09980FA9A1EB0807FF1D00B1B7
:101360000120411901EBEA70A1693844081A401EB6
:10137000A0612078C00602D42046FFF752FA0998EF
:1013800028B1D4E901219047206A401C20622078CE
:10139000C00622D52046FFF744FA1EE0002E04DBEB
:1013A000B34502DD01A8805D00E03020D4E90121D1
:1013B0009047206A401C2062761CAAF101005FEA77
:1013C000000A0AD100F022FAC0680168405CD4E942
:1013D00001219047206A401C2062281EA5F10105CA
:1013E000DCDC07E0D4E9012118F8010B9047206A02
:1013F000401C2062381EA7F10107F3DC2046FFF7EE
:1014000026FA032011B041E62DE9F04F04460D46BF
:10141000D21D22F0070089B0D0E90097484639462E
:1014200004F0B4FF0246F80F01D02D2307E0206836
:10143000810701D52B2302E0202101EAC0038DF8AA
:1014400020300BB1012000E00020032A824601D0A9
:10145000072A04DB2946204600F0DCF93FE120782A
:10146000800601D40D2500E0E569C7F30A560D2D6D
:1014700049DA00214FEA175B08464FF00000002FC1
:1014800000F4400007DA00EB80004FF4400100EB6D
:10149000D07001EA60008115012901DD4FF0FF31B4
:1014A00000224FEA850CBCF1180F06D31346ACF1AD
:1014B00018004FF08052C24003E04FF4801323FA2B
:1014C0000CF30CF10C0CBCF1200F04D3ACF1200C8C
:1014D00009FA0CF001E007FA0CF000294FF000487F
:1014E00001DD18B90FE00ED140450CD319EB02090C
:1014F0005F4121B9404502D19F4329EA0209BBEB74
:10150000175F00D0761C2088000502D57B48784400
:1015100002E07A487844193808AA302302F80A30E1
:10152000037C0AF10101002E0AF1020A53546A46B3
:1015300002DC4FF0300101E04FF031014FF00108C3
:101540008DF8001002D0A6F2FF3603E059EA4701F9
:1015500000D06B4E002D02DC2178090704D54FF036
:1015600002082E218DF80110C44600210BE0C7F3BC
:1015700003433F01C35C491C6D1E02F80830052976
:1015800008F1010801DA002DF1DC00210CE000EB8C
:101590001973491C1B786D1E082902F808304FEAA0
:1015A000091908F1010801DA002DF0DC21688B0629
:1015B00002D516E0A8F10108E04505DD02EB0803BD
:1015C00013F8013C302BF5D0B8F1000F09DD02EB28
:1015D000080313F8013C2E2B03D1090701D4A8F10D
:1015E0000108002D05DD3E2102F808106D1E08F1EE
:1015F0000108407C002E02F8080008F1010804DA16
:101600002D20764202F8080002E02B2002F80800A4
:101610000A214FF47A70864208F101080BDB96FB31
:10162000F0F3303302F8083096FBF0F308F10108CC
:1016300000FB136601E0642E0CDB642096FBF0F3E4
:10164000303302F8083096FBF0F308F1010800FB94
:10165000136601E00A2E06DB96FBF1F0303002F84B
:10166000080008F1010896FBF1F001FB1060303032
:1016700002F80800A16908F1010808EB050202EB75
:101680000A00081AA0612078C00602D42046FFF79D
:10169000C8F8216A08AE01EB0A00206204E0D4E930
:1016A000012116F8010B9047BAF1010AF7D2207810
:1016B000C00602D52046FFF7B4F86E4609E016F8DA
:1016C000010B3E280FD0D4E901219047206A401C2D
:1016D0002062B8F10108F2D22046FFF7B8F809B04D
:1016E0000320BDE8F08F206A2844206203E0D4E99B
:1016F0000121302090476D1EEBD3F8E776500000B3
:1017000002FCFFFF10B5436913B1AFF3008001E0A5
:10171000FFF7C0F8012010BD127800F124010A7013
:1017200000224A700122EDE711684FF0FF32E9E72D
:1017300010B5436913B1AFF3008001E0FFF742F940
:10174000012010BD128800F1240182840022C2848D
:101750000122EDE711684FF0FF32E9E72DE9F04192
:1017600016460C46054600F049F8036893F8010157
:10177000012807D0FF2C12D8185D80B101202C70F1
:10178000BDE8F081D3F807013246214603F2071382
:10179000C7182846BC46BDE8F041002360474FF01B
:1017A000FF30EDE710B500F0F5F8BDE8104000F0AF
:1017B000ECB87546FFF758FBAE4605006946534640
:1017C00020F00700854618B020B5FEF7BBFDBDE848
:1017D00020404FF000064FF000074FF000084FF098
:1017E000000BAC46ACE8C009ACE8C009ACE8C009E5
:1017F000ACE8C00921F007018D46704710B500F034
:1018000005F8001D10BD00BFF14B000000487047F7
:10181000680900202DE9F0411F46044603260168AF
:10182000072A01F4006004DB08B116A505E016A53F
:1018300003E008B115A500E015A521F01000206017
:10184000A069C01EA0610FB1401EA0612046FEF736
:10185000E8FF4FB1D4E9012138469047206A401C87
:101860002062C01C206206E0206AFAE7D4E9012168
:1018700015F8010B9047761EF8D22046FEF7E7FFD9
:10188000BDE8F0814E414E006E616E00494E46004B
:10189000696E66002DE9F047814616468AB03548E4
:1018A00078440DC88DE80D0032487844801C03ACA4
:1018B0000DC884E80D0041F69B300844372190FBA9
:1018C000F1F290FBF1F5A5F1800501FB12041B3C40
:1018D00002D56442012000E00020DFF898A0804695
:1018E0000027FA44AAF1BE0A0EE0E0070AD0324609
:1018F000684607EB470101230AEB810104F00FFC66
:101900008DE8070064107F1C002CEED1194F7F4436
:10191000AE3F19E0E80715D007EB04100DF1180AE7
:1019200090E80E008AE80E00C068F04201D19819D4
:1019300008903246012306A903A804F0F0FB03AB8C
:1019400083E807006D10641C002DE3D14FF0010304
:1019500032466946B8F1000F03A802D004F0CAFB72
:1019600001E004F0DCFBC9E90001C9F808200AB075
:10197000BDE8F087744D000010B50446AFF3008059
:101980002046BDE81040FEF7C8BC002801D000F09A
:1019900029B8704710B5012805D0002103A000F038
:1019A00028F8012010BD09A1F8E70000534947526B
:1019B000544D454D3A204F7574206F66206865611F
:1019C00070206D656D6F7279000000003A204865E7
:1019D0006170206D656D6F727920636F72727570C2
:1019E0007465640001491820ABBEFEE726000200C2
:1019F000704770B505460C460A2000E06D1C00F0EB
:101A000051F835B128780028F8D102E0641C00F0C4
:101A100049F814B120780028F8D1BDE870400A20B8
:101A200000F040B80000000030B44FF0013C50F826
:101A3000042B51F8043BCCFA52F4D51A20D1FCB94E
:101A400050F8042B51F8043BCCFA52F4D51A17D1B4
:101A5000B4B950F8042B51F8043BCCFA52F4D51A1F
:101A60000ED16CB950F8042B51F8043BCCFA52F467
:101A7000D51A05D1002CDAD030BC4FF000007047E9
:101A800029BAB1FA81F111F01801D1F12000844096
:101A9000F2D1CA40CB4012F0FF0213F0FF0330BC7A
:101AA000D01A704708B569468DF800000320ABBE18
:101AB00008BD0000FEE7000010B52DED0A8B40F6D2
:101AC000AC149FED298A9FED299A9FED29AA9FEDDD
:101AD00029BA9FED29CAC2F2000404F11000B0EE49
:101AE000480AF0EE490AB0EE4A1AF0EE4B1AB0EE90
:101AF0004C2A02F043FD04F13C00B0EE480AF0EE3F
:101B0000490AB0EE4A1AF0EE4B1AB0EE4C2A02F037
:101B100035FD40F614249FED199A9FED19BA9FEDFB
:101B200019CAC2F20004B7EE008A2046B0EE480A95
:101B3000F0EE4A0AB0EE491AF0EE4B1AB0EE4C2A1B
:101B400002F01CFD04F12C00B0EE480AF0EE4A0A47
:101B5000B0EE491AF0EE4B1AB0EE4C2ABDEC0A8BEF
:101B6000BDE8104002F00ABDCDCC4C3ECDCCCC3D02
:101B7000000000000000C8420000C8C26666663F60
:101B80000000A0420000A0C22DE9F0472DED0A8B15
:101B90008EB000F0AFF8044600F0B6F840F6AC1690
:101BA000C2F2000600EE104A96ED021A40F6142426
:101BB000B8EEC08A96ED000AC2F20004054671EE46
:101BC000080A2046C6ED020A02F0E8FC06F1100001
:101BD000F0EE480AB0EE409A02F0E0FCBDEEC00A1A
:101BE00010EE10AA504602F06BFC00EE105A96ED73
:101BF000031AB8EEC08A96ED010A71EE080A04F1E4
:101C00002C00C6ED030A02F0C9FC06F13C00F0EE20
:101C1000480AB0EE40AA02F0C1FCBDEEC00A10EEC8
:101C2000105A284602F078FCD6E90007D6E90246A9
:101C300004F0FEFB80462046894604F0F9FB41ECA7
:101C4000180B19EE100A04F0F3FB41EC190B38469F
:101C500004F0EEFB41EC1B0B304604F0E9FB41ECD9
:101C60001C0B1AEE100A04F0E3FB41EC100B0BA066
:101C700042464B460C958DED06BB8DED08CB8DEDA8
:101C80000A0BCDF810A08DED008B8DED029B02F0BC
:101C9000DBFC0EB0BDEC0A8BBDE8F08725662C2579
:101CA000662C25662C25642C25662C25662C25663D
:101CB0002C25640D0A00000040F6AC10C2F20000B2
:101CC00080ED000A7047000040F6AC10C2F2000040
:101CD00080ED010A7047000040F67020C2F200005B
:101CE00000F07AB840F6D020C2F2000000F074B8DC
:101CF0007047000040F63030C2F200000168002258
:101D0000486A4A627047000040F6C030C2F20000E4
:101D100001680022486A4A6200B2704772B600BF8A
:101D2000FEE7000070B5866D044600F025FB94F8D0
:101D30003510022928D105462068216C026822F05E
:101D400016020260426922F08002426109B9A16C68
:101D500019B1016821F008010160016821F0010159
:101D6000016000BF20680068C00715D000F004FBC8
:101D7000401B0628F6D320206065032084F8350038
:101D8000002184F8341070BD80206065012000219E
:101D900084F8341070BD00BFE06D3F2101FA00F0FF
:101DA000B060012084F835000020002184F8341050
:101DB00070BD000090F83510022909D1052180F886
:101DC00035100068016821F00101016000207047B2
:101DD0008021416501207047F0B581B0002100915C
:101DE00040F20801C2F200010B68D0E9166148F226
:101DF000B51537680822C1F64E358A403A42A3FB32
:101E000005350CD003681C68640708D51C6824F0ED
:101E100004041C60B260426D42F00102426501227E
:101E20008A403A4208D003685B691B0604D5B26059
:101E3000426D42F00202426504228A403A4208D0D2
:101E400003681B689B0704D5B260426D42F0040230
:101E5000426510228A403A4219D001680B681B077C
:101E600015D5B2600B680A685B0309D4D20509D4A2
:101E70000A6822F008020A60016C29B907E000BF75
:101E8000110341D4016C11B1044688472046C26D4C
:101E9000202101FA02F33B4243D001680F68FF069C
:101EA0003FD5B36090F835700B68052F1CD123F037
:101EB00016030B604B6923F080034B61036C0BB975
:101EC000836C1BB10B6823F008030B603F2191402A
:101ED000B160012180F83510016D0022002980F8E1
:101EE000342054D158E000BF0A685B0310D4D205F7
:101EF00012D40A6822F010020A60012180F835101D
:101F0000002180F8341007E0816C0029BCD1BEE7C5
:101F1000110301D4416C00E0C16B11B10446884744
:101F20002046416DC1B3416DC9072ED0052180F80F
:101F300035100168AA0A0B6823F001030B60009BAF
:101F40000133934200931AD80B68DB0717D0009B2C
:101F500001339342009312D80B68DB070FD0009B2C
:101F60000133934200930AD80B68DB0707D0009B2C
:101F700001339342009302D80B68DB07DFD10121C4
:101F800080F83510002180F83410C16C21B101B007
:101F9000BDE8F040084700BF01B0F0BD2DE9F041B9
:101FA000044600F0E9F9ECB10546022084F835005A
:101FB0000020216884F83400086820F001000860DF
:101FC00021680868C00711D000F0D6F9401B052829
:101FD000F6D9032520230320636584F83550BDE836
:101FE000F08100BF0120BDE8F08100BF086848F221
:101FF0003F02CFF21002D4E9013500EA020C04F1ED
:102000000C0898E8C10143EA0C032B431843D4E9B8
:10201000072E304338431043626A40EA0E00042A18
:1020200040EA08031CD1206BD4E90A2E40EA0E00D6
:10203000184308604869BEF1000F20F0030040EA31
:10204000020040F0040C11D0B8F5005F36D0B8F1B2
:10205000000F45D1022A46D0012A3BD032B942E0D6
:102060000B60486920F0070040EA020C01F0F8001C
:102070004AF6AB221038CAF6AA22A0FB02231A099C
:1020800046F2D863C1F814C0C0F600039A5C40F26F
:10209000FF335F284FF03F0021EA030100FA02F00E
:1020A00088BF0431C4E9161288600023012500208E
:1020B000636584F83550BDE8F08100BF032AD5D8A8
:1020C000012540230120DFE802F0030E030500BFD5
:1020D00082E700BFAEF1C070B0FA80F0400904E0C2
:1020E000032A04D3C2D1CEF300600028BED001255C
:1020F00040230120636584F83550BDE8F08100007D
:1021000090F834C0BCF1010F04BF0220704770B5D5
:102110004FF0010C80F834C0D0F858E090F835C08A
:10212000BCF1010F38D14FF0020C80F835C04FF0F0
:10213000000CC0F854C0D0F800C08468056CC06DB5
:10214000DCF80060402C26F48026CCF80060CCF847
:1021500004300B4604BF13460A463F2101FA00F043
:10216000CCF80830CCF80C20CEF80800DCF80000E1
:1021700040F01600CCF800002DB1DCF8000040F073
:102180000800CCF80000DCF8000040F00100CCF8BA
:102190000000002070BD00BF002180F83410022034
:1021A00070BD0000B0B5044600F0E6F8054640F208
:1021B0000000C2F200000078611C18BF044400BF98
:1021C00000F0DAF8401BA042FAD3B0BD2DE9F04F81
:1021D00083B000F1200200F13E4741F60045009235
:1021E00007F1FF77C4F2020508224FEAB726A8429A
:1021F00008BF072200254FF000084FF00009072E06
:1022000038BF4FEAB72201920AE000BF09F1010985
:1022100008F10208B9F1100F05F1040500F0A280E1
:102220000F68012202FA09FE17EA0E0AEED0D1F871
:1022300004C003220CF003077E1E02FA08F4012EEC
:102240006FEA040B12D88468CE6804EA0B0406FA1D
:1022500008F634438460446824EA0E06CCF3001484
:1022600004FA09F42643466004E000BF032F01D1BD
:1022700003271EE0C6688C6806EA0B0604FA08F419
:102280002643022FC66014D16FF00302009E02EABB
:10229000590756F807C005F01C040F220B69A2402D
:1022A0002CEA0202A3401A43F251D1F804C00CF008
:1022B0000307026807FA08F302EA0B021A431CF448
:1022C000403F0260A2D0002243F644030292C4F2CF
:1022D00002031A6843F6004442F480421A601A6806
:1022E000C4F2010402F480420292029A29F003022D
:1022F0004FF6084C2244CFF6FF7C52F80C3005F024
:102300000C070F26BE40B343019E06FA07F73B4376
:1023100042F80C30A2684B6842EA0A0743F60C4CBC
:10232000DE0258BF22EA0A07A760C4F2010CDCF8FB
:1023300000209E0242EA0A0758BF22EA0A07CCF8A8
:10234000007062689E0342EA0A0758BF22EA0A0741
:1023500067602268DB0342EA0A0758BF22EA0A07DD
:10236000276053E703B0BDE8F08F0000002A08BFE4
:10237000090481617047000040F6E040C2F20000AD
:102380000068704740F2000040F6E041C2F20000F1
:10239000C2F2000100780A6810440860704700002B
:1023A00080B543F60040C4F20200016841F40071B8
:1023B0000160016841F480610160016841F480714D
:1023C0000160032000F086F80F2000F005F800F00F
:1023D00027F8002080BD000070B540F20006C2F270
:1023E000000640F208013278C2F200014FF47A731D
:1023F0000968B3FBF2F20446B1FBF2F1084600F0C3
:102400005FFB0F2C4FF0010508D838B94FF0FF30B3
:1024100021460022002500F031F87460284670BD86
:1024200082B0002043F640010190C4F202014A68E4
:1024300042F480424A604A6802F480420192019A62
:102440000090086840F080500860086800F08050F4
:102450000090009802B07047002848BF704700F015
:102460001F01012202FA01F11C2202EAD0004EF201
:102470000012CEF2000281507047000010B54EF6F7
:102480000C5CCEF2000CDCF80030C3F3022E8EF0B0
:102490000704042C28BF0424BEF103034FF0FF3EC1
:1024A0000EFA04F438BF0023A14399400EFA03F357
:1024B0009A43114300F00F0200F160430901043A0E
:1024C00003F564436244002848BF02F10C0319700D
:1024D00010BD00004EF60C51CEF200010A684FF616
:1024E000FF031A4060F30A2242F0806040F0FD7062
:1024F00008607047002804BF012070472DE9F041B3
:1025000043F60808C4F202080446D8F8F8030D465A
:1025100000F00700884207D288F8F853D8F8F8038B
:1025200000F00700A84277D12068810717D541073E
:1025300005D5D8F8001041F4E051C8F800100107A3
:1025400005D5D8F8001041F46041C8F80010D8F85B
:102550000010A26821F0F0011143C8F80010C00774
:1025600040D1D8F8F80300F00700A84207D988F84E
:10257000F853D8F8F80300F00700A8424CD12068BF
:10258000410707D5D8F80010E26821F4E051114363
:10259000C8F80010000708D5D8F80000216920F419
:1025A000604040EAC100C8F8000000F07DF8D8F8AB
:1025B000001046F23062C1F30311C0F60002515C14
:1025C00040F2080220FA01F140F20400C2F20000D9
:1025D0000068C2F200021160FFF7FEFE0020BDE8B5
:1025E000F08100BF6068811E022907D258F8081CDC
:1025F00089015CBF0120BDE8F08111E0012807D10D
:1026000058F8081C89035CBF0120BDE8F08107E091
:1026100058F8081C890703D40120BDE8F08100BFE9
:10262000D8F8001021F003010843C8F80000FFF7B4
:10263000A3FE064641F28837D8F80000616800F032
:102640000C00B0EB810F8CD0FFF796FE801BB842D8
:10265000F2D90320BDE8F08140F2080043F60801FA
:10266000C2F20000C4F202010068096846F240624A
:10267000C1F38221C0F60002515CC84070470000DF
:1026800040F2080043F60801C2F20000C4F2020161
:102690000068096846F24062C1F34231C0F60002A8
:1026A000515CC8407047000010B543F60404C4F202
:1026B0000204606800F00C0142F200400829C0F2F8
:1026C000F40007D0042918BF10BD41F20020C0F269
:1026D0007A0010BD216801F03F0221682368490299
:1026E000C3F3881106D4A1FB00010023FDF79EFE71
:1026F00007E000BF41F20020C0F27A004843B0FB7F
:10270000F2F021680222C1F3014102EB4101B0FB6A
:10271000F1F010BD002804BF012070472DE9F04101
:1027200082B00446007843F60006C007C4F20206F1
:102730000CD0B06800F00C00042840F081803068B4
:10274000800303D56068002800F068812078800746
:102750001BD5B06810F00C0F09D0B06800F00C0069
:10276000082840F087807068400200F1838030685C
:10277000800703D5E068012840F050813068216966
:1027800020F0F80040EAC10030602078000713D440
:10279000207840072AD4A569002D00F03A81B0685E
:1027A00000F00C00082840F0A580012D40F00E81BB
:1027B000012002B0BDE8F0816069002800F082804D
:1027C0000020C4F247200121C0F8801EFFF7D4FD8D
:1027D000054600BF706F8007DAD4FFF7CDFD401BC0
:1027E0000228F7D9032002B0BDE8F081306C5FEA1F
:1027F000C0080AD400200190306C40F08050306452
:10280000306C00F080500190019847F20007C4F24C
:1028100000073868C00547D4386840F480703860D5
:10282000FFF7AAFD054600BF3868C0053CD4FFF796
:10283000A3FD401B0228F7D9032002B0BDE8F081B8
:10284000B06800F00C00082803D1706840023FF522
:1028500076AF61683068B1F5803F07D0B1F5A02F41
:1028600040F09A8040F480203060306840F480303E
:1028700030609AE0E068002840F20000C4F247208F
:102880005CD001210160FFF777FD054630688007C5
:102890003FF574AFFFF770FD401B0228F6D9032007
:1028A00002B0BDE8F08100BFA168306F012905D0FA
:1028B000052955D140F004003067306F40F0010029
:1028C000306756E00020C4F247200021C0F8801E87
:1028D000FFF752FD054600BF706F80077FF558AFC8
:1028E000FFF74AFD401B0228F6D9032002B0BDE8DD
:1028F000F08100BF0027C4F2472700203866FFF7A9
:102900003BFD022D05460DD13068800140F18A80E3
:10291000FFF732FD401B02284FF00300F4D902B04C
:10292000BDE8F0813068800173D5FFF725FD401BBD
:1029300002284FF00300F5D9F1E700BF0021016044
:10294000FFF71AFD054600BF306880077FF51DAF11
:10295000FFF712FD401B02284FF00300F4D9DEE719
:1029600020F001003067306F002920F0040030674C
:102970007AD0FFF701FD054641F28837306F8007B6
:1029800000F18480FFF7F8FC401BB842F6D9032021
:1029900002B0BDE8F08100BF20F4803030603068C4
:1029A000002920F4802030607AD0FFF7E5FC05464E
:1029B000306880033FF5CAAEFFF7DEFC401B642899
:1029C000F6D9032002B0BDE8F08100BF7068E1696C
:1029D00000F480028A4221D1216A00F03F028A423B
:1029E0001CD147F6C071626A0140B1EB821F15D15C
:1029F000A16A4FF6FF73C903994300F44032A1F571
:102A000080318A420AD1E16A00F07060B0EB016F58
:102A100004D1002002B0BDE8F08100BF012002B067
:102A2000BDE8F08104F11C052FCD084340EA821077
:102A3000D9034FF6FF729143A1F5803140EA05605A
:102A40000843706001203866FFF796FC044600BF1B
:102A500030688001DDD4FFF78FFC001B02284FF0A7
:102A60000300F5D95BE700BFFFF786FC054641F29E
:102A7000883700BF306F800708D5FFF77DFC401B0B
:102A8000B8424FF00300F5D949E700BFB8F1000F95
:102A90003FF581AE306C20F0805030647BE600BFA3
:102AA000FFF76AFC054600BF306880037FF54EAE35
:102AB000FFF762FC401B64284FF00300F4D92EE7B7
:102AC000411E0020B0EB116F1CBF012070474EF279
:102AD0001002CEF2000251604EF62351CEF20001F8
:102AE000F0230B7007219060116070477047000061
:102AF0007047000090F83C20012A4FF0020254D0A9
:102B000010B580F83D200268D2F804E0D2F808C081
:102B10000C682EF07003234341F2FF74C4F20004EA
:102B2000A24253600EDC40F2FF73C4F200039A42EB
:102B300016DCB2F1804F2BD040F20043C4F2000308
:102B400024E000BF40F2FF33C4F201039A4213DCD9
:102B500041F60003C4F200039A4219D0002313E0A7
:102B600040F60003C4F200039A4211D040F600433D
:102B7000C4F200030AE000BF44F20003C4F2010300
:102B80009A4205D040F20043C4F201039A4204D1B4
:102B900049682CF08003194391600121002280F8DC
:102BA0003D1080F83C20BDE8104010467047000002
:102BB000002804BF0120704710B5044690F83D007E
:102BC00028B9002084F83C00204600F01FF80220BD
:102BD00084F83D002068211D01F0D6FD012084F815
:102BE000460084F83E0084F83F0084F8400084F8F2
:102BF000410084F8420084F8430084F8440084F8DB
:102C0000450084F83D00002010BD0000006841F23E
:102C10000001C4F20001884218BF704780B582B03D
:102C20000020019043F64000C4F202000168002237
:102C300041F0100101600068002100F010000190D7
:102C400001983620FFF71AFC362002B0BDE880401C
:102C5000FFF702BC90F83D1001291CBF012070470E
:102C6000022180F83D10006841F2FF72C168C4F291
:102C70000002904241F00101C1600DDC40F2FF71A1
:102C8000C4F20001884215DCB0F1804F2AD040F236
:102C90000041C4F2000123E040F2FF31C4F201011F
:102CA000884213DC41F60001C4F20001884219D0C9
:102CB000002113E040F60001C4F20001884211D067
:102CC00040F60041C4F200010AE000BF44F20001F6
:102CD000C4F20101884205D040F20041C4F2010172
:102CE000884206D1816801F00701062904BF00204F
:102CF0007047016841F00101016000207047000049
:102D0000002804BF012070472DE9F047044690F8E1
:102D10003D000D4628B9002084F83C00204600F014
:102D200049F8022084F83D00206844F207028168D7
:102D300091438160211D01F027FD20684FF6FF7847
:102D400081688269D0F820C0D5E9003ED5E9026AE1
:102D500043EA0109AB6922EA080246EA03234FF677
:102D6000FC46B343D5E9076742EA0A0229691A43D8
:102D700042EA062242EA01112CF0AA026B6942EAF9
:102D80000E0241EA073142EA0312C0F8089081615D
:102D90000262012084F8460084F83E0084F83F0077
:102DA00084F8420084F8430084F83D000020BDE828
:102DB000F0870000F0B587B0006840F600020024FC
:102DC000C4F20002C4F2020400219042CDE90511D0
:102DD000CDE90311029139D0B0F1804F5AD10025CD
:102DE00043F630000195C4F202000169022641F069
:102DF000010101610169012701F0010101910199BE
:102E00000195016841F001010160016801F00101D3
:102E1000019101990195016841F00201016000688A
:102E200002A900F00200019001984FF400400290C6
:102E30002046CDE9036505950697FFF7C7F90820F9
:102E4000CDE90206CDE9045506971EE043F63000B1
:102E50000191C4F20200026942F0040202610269B7
:102E600002F004020192019A0191026842F002020A
:102E70000260006800F0020001900198C0200290FA
:102E80000220CDE90301CDE9051004F5806002A917
:102E9000FFF79CF907B0F0BD80B590F83E2090F8A0
:102EA0003F3090F842E090F843C004290AD0B9B905
:102EB000012A4FF0010208BFBEF1010F34D01046C5
:102EC00080BD00BF012B4FF0010208BFBCF1010F14
:102ED000F5D1022180F83F1080F8431000681EE011
:102EE000012A4FF0010208BF012BE8D1BEF1010F0A
:102EF000E5D1BCF1010FE2D1022280F83E2080F83A
:102F00003F2080F8422080F8432091B10068016A98
:102F100021F001010162016A41F001010162102109
:102F20006FF0100209E000BF022180F83E1080F827
:102F30004210006801216FF00102036A1A40026228
:102F4000026A114301620168002241F0010101603F
:102F5000104680BD7047000070B504460068C56823
:102F60000669B10716D515F0020113D06FF0020102
:102F70000161012121778069800703D02046FFF796
:102F8000E9FF05E0204600F08FF8204600F0F0F958
:102F900000202077700719D515F0040016D020689E
:102FA0006FF00401016102212177806910F4407FF4
:102FB00004D02046FFF7CEFF06E000BF204600F019
:102FC00073F8204600F0D4F900202077300717D599
:102FD00015F0080014D020686FF008010161042189
:102FE0002177C069800703D02046FFF7B3FF05E0D3
:102FF000204600F059F8204600F0BAF9002020776A
:10300000F00619D515F0100016D020686FF01001E9
:10301000016108212177C06910F4407F04D0204667
:10302000FFF798FF06E000BF204600F03DF820467D
:1030300000F09EF900202077F00718BF15F001007E
:1030400002D1300609D412E020686FF0010101615D
:10305000204600F017FA300609D515F0800006D09A
:1030600020686FF0800101612046FFF73FFD700688
:1030700009D515F0400006D020686FF040010161CD
:10308000204600F009FAB00658BF70BD15F02000C8
:1030900008D021686FF0200220460A61BDE8704028
:1030A000FFF726BD70BD00007047000090F83C306F
:1030B000012B04BF022070474FEAB202032A00F23C
:1030C000FF802DE9F043DFE802F003B13F7F00BF4E
:1030D000036840F200461C6A1A6A24F0020422F0D7
:1030E00001021A621A46D3F804C052F818EF8F682A
:1030F00043F48065C4F20106B54244EA070405D1F1
:10310000CF6824F00C0427F004073C430F68B54255
:1031100006D1D1E905582CF440762E4346EA080C36
:103120002EF073063743C3F804C09F614F680969E6
:103130005F631C629F6947F008079F619F6927F0E2
:1031400004079F61B1E000BF036840F200481C6AB9
:103150001A6A24F4007422F480721A621A46D3F8B0
:1031600004C052F81CEF8F6843F48065C4F2010874
:10317000454544EA072408D1CF6840F2FF463F02A4
:1031800024F4406427EA06063443D1F8009045450C
:1031900006D1D1E905562CF440572E4347EA061CC8
:1031A0002EF0730747EA0907C3F804C0DF614F68D0
:1031B0000969DF631C62DF6947F00807DF61DF69C7
:1031C00027F00407DF6170E0036840F20045D3F8A0
:1031D00020C01A6A43F4806722F480521A621A46A9
:1031E0005C6852F81C8FD1F800E08E68C4F20105CB
:1031F000AF4204D14D6924F4804444EA85142CF490
:10320000005747EA063728F4E64646EA0E265C6091
:10321000DE614E6809691E641F62DF6947F400675A
:10322000DF61DF6927F48067DF613DE0036840F21A
:1032300000481C6A1A6A24F0200422F010021A6264
:103240001A46D3F804C052F818EF8F6843F480652B
:10325000C4F20108454544EA071407D1CF686FF06E
:10326000400624F0C00406EA07163443D1F8009063
:10327000454506D1D1E905562CF440672E4347EA6F
:10328000860C2EF4E64747EA0927C3F804C09F617D
:103290004F6809699F631C629F6947F400679F61DB
:1032A0009F6927F480679F610902136819431160C1
:1032B0000021BDE8F043002280F83C20084670471A
:1032C0000121002280F83C2008467047002804BFF6
:1032D0000120704710B5044690F83D0028B9002041
:1032E00084F83C00204600F01FF8022084F83D00DE
:1032F0002068211D01F048FA012084F8460084F876
:103300003E0084F83F0084F8400084F8410084F8CF
:10331000420084F8430084F8440084F8450084F8AF
:103320003D00002010BD0000006840F20041C4F2E2
:103330000001884218BF704780B582B0002001901C
:1033400043F64000C4F202000168002241F002018D
:1033500001600068002100F00200019001981D202A
:10336000FFF78CF81D2002B0BDE88040FFF774B86D
:1033700070470000C1B1042908D0082914BF4122B8
:103380004022825C012A05D016E000BF3F22825C09
:10339000012A11D10222082910D0042914BF80F873
:1033A000412080F83F200BE090F83E20012A03D115
:1033B000022280F83E2003E00120704780F8402080
:1033C000006801F01F010122036A02FA01F123EAF9
:1033D00001020262026A114341F2FF72C4F200026A
:1033E000904201620CDC40F2FF71C4F2000188429D
:1033F00014DCB0F1804F37D040F2004116E000BF3E
:1034000040F2FF31C4F20101884215DC41F60001AF
:10341000C4F20001884227D0002115E040F60001E7
:10342000C4F2000188421FD040F60041C4F20001FE
:10343000884219D01FE000BF44F20001C4F201012C
:10344000884211D040F20041C4F20101884212D1F9
:10345000416C40F2004340F48062C4F2010341F445
:1034600000419A42416406D1816801F007010629B2
:1034700004BF00207047016841F001010160002095
:1034800070470000006841F20001C4F20001884268
:1034900018BF7047FEF778BB704700007047000008
:1034A00070470000B0B582B001680A68CC684B690B
:1034B00002F02F05202D04F0200505D125B102B022
:1034C000BDE8B04001F0DABB5FEA027C1EBF03F04A
:1034D000010E04F4907313EB0E0341D1036BD50678
:1034E00018D5012B16D114F0100313D0002201922D
:1034F0000A6801924A680192019A496949064BD4C7
:10350000818DC28DC38D002B18BF914240F0068281
:1035100002B0B0BD13062DD514F080032AD090F868
:103520004120212AF4D18268B2F5805F03D102697B
:10353000002A00F07982026A531C036212784A6002
:10354000C28C013A1304C284E2D1C86820F0800022
:10355000C860C86840F04000C86002B0B0BD00BF9D
:10356000D30718BF14F4807340F0E280530700F1D2
:10357000E580EAE05206CBD514F04002C8D0CA6814
:1035800022F04002CA60202180F8411002B0BDE85C
:10359000B04000F077BD00BFC26B11684B68858DED
:1035A00099B2002900F0B480A94280F0B180C385AF
:1035B000D169B1F5807F00F0A080016851E8031F58
:1035C000026821F4807142E80313DBB1016851E81D
:1035D000031F026821F4807142E8031393B101686C
:1035E00051E8031F026821F4807142E803134BB1D4
:1035F000016851E8031F026821F4807142E8031357
:10360000002BDAD1016851E8051F026821F00101A1
:1036100042E80513BBB3016851E8051F026821F0B9
:10362000010142E8051373B3016851E8051F026800
:1036300021F0010142E805132BB3016851E8051F91
:10364000026821F0010142E80513002BDAD11AE0EB
:10365000016851E8051F026821F0400142E80513A6
:10366000DBB1016851E8051F026821F0400142E822
:10367000051393B1016851E8051F026821F040016C
:1036800042E805134BB1016851E8051F026821F0BB
:10369000400142E80513002BDAD1202180F84210C6
:1036A00000210163016851E8031F026821F0100145
:1036B00042E80313DBB1016851E8031F026821F0FF
:1036C000100142E8031393B1016851E8031F026837
:1036D00021F0100142E803134BB1016851E8031FC8
:1036E000026821F0100142E80313002BDAD1C16B0C
:1036F00004460846FEF716FB204602214163818DF1
:10370000C28D891A89B202B0BDE8B040FFF7C6BECB
:103710008D427FF4FDAED269B2F5807F7FF4F8AEC2
:103720000222426302B0BDE8B040FFF7B7BE00BF5F
:10373000436C43F001034364530706D5BEF1000F09
:1037400003D0436C43F002034364930706D5BEF1F4
:10375000000F03D0436C43F004034364BCF1000F3B
:1037600006D55EEA050303D0436C43F008034364C7
:10377000436C002B3FF4CCAE920605D525B1044630
:1037800001F07CFA216820464969426C01F0400151
:1037900002F00802891800F0B98000BF016851E802
:1037A000031F026821F4907142E80313BBB3016860
:1037B00051E8031F026821F4907142E8031373B3C8
:1037C000016851E8031F026821F4907142E8031375
:1037D0002BB3016851E8031F026821F4907142E89D
:1037E0000313002BDAD11AE0016851E8051F0268C3
:1037F00021F0010142E80513DBB1016851E8051F22
:10380000026821F0010142E8051393B1016851E813
:10381000051F026821F0010142E805134BB1016860
:1038200051E8051F026821F0010142E80513002B51
:10383000DAD1016B012924D1016851E8031F026824
:1038400021F0100142E80313DBB1016851E8031FC6
:10385000026821F0100142E8031393B1016851E8B6
:10386000031F026821F0100142E803134BB1016805
:1038700051E8031F026821F0100142E80313002BF6
:10388000DAD1202180F842100021016301684969E2
:10389000490640F1C380016851E8051F026821F024
:1038A000400142E80513DBB1016851E8051F0268D9
:1038B00021F0400142E8051393B1016851E8051F6A
:1038C000026821F0400142E805134BB1016851E85C
:1038D000051F026821F0400142E80513002BDAD1F0
:1038E000C16B002900F09A8044F6C502C0F60002C0
:1038F000044608460A65FEF75DFA00283FF408AE64
:10390000E06B016D02B0BDE8B04008470446FFF728
:10391000C7FD0020606402B0B0BD00BF891A00BFBF
:10392000026852E8032F036822F4907243E80325EB
:10393000BDB3026852E8032F036822F4907243E893
:10394000032575B3026852E8032F036822F49072CE
:1039500043E803252DB3026852E8032F036822F4DD
:10396000907243E80325002DDAD11AE0026852E88C
:10397000052F036822F0010243E80525DDB1026846
:1039800052E8052F036822F0010243E8052595B1AE
:10399000026852E8052F036822F0010243E805257A
:1039A0004DB1026852E8052F036822F0010243E896
:1039B0000525002DDAD1202280F842200022026362
:1039C000026852E8032F036822F0100243E803253F
:1039D000DDB1026852E8032F036822F0100243E8C9
:1039E000032595B1026852E8032F036822F0100204
:1039F00043E803254DB1026852E8032F036822F023
:103A0000100243E80325002DDAD1022289B2426375
:103A100002B0BDE8B040FFF741BD00BF02B0BDE855
:103A2000B040FFF73DBD00BF026A32F8023B6FF3C2
:103A30005F234B60026283E5002804BF01207047CA
:103A400010B5044690F8410028B9002084F84000E1
:103A5000204600F021F8242084F841002068C16845
:103A600021F40051C160204601F088F92068016905
:103A700021F490410161416921F02A014161C1684D
:103A800041F40051C16000202021606484F841109D
:103A900084F84210606310BD2DE9F04786B00446FB
:103AA000006844F60001C4F2000100268842CDE916
:103AB0000466CDE90266019632D041F20001C4F2FB
:103AC0000101884240F09C80002043F630010090C4
:103AD000C4F202014A6942F010024A614A6902F0E6
:103AE00010020092009A00900A6842F001020A60F7
:103AF000096801F00101009100994FF4C061019142
:103B00000221CDE902100320049007200590002037
:103B1000C4F2020001A9FEF759FB252468E000BFAA
:103B200043F630000096C4F20200016946F228080C
:103B300041F4802101610169C4F2020801F480218D
:103B4000009100990096016841F00201016000684F
:103B500001A900F00200009000984FF4406001902D
:103B60000220CDE9020603200490072005900020E2
:103B7000C4F2020000F58060FEF728FB40F67025D5
:103B8000C2F200054FF0006A4FF480694FF400372D
:103B90002846C5E9008AC5E90266C5E90496C5E973
:103BA0000666C5E90876FEF7F9F9002818BFFEF7A2
:103BB000B5F8E563AC6340F6D02508F13000C2F2F9
:103BC00000054021C5E9000A05F10800002280E84F
:103BD00006022846C5E90522EA61C5E90872FEF732
:103BE000DDF9002818BFFEF799F8A563AC63272418
:103BF000204600210022FEF741FC2046FEF72CFC67
:103C000006B0BDE8F087000070B582B090F8425071
:103C1000202D0BD113460A460146002A4FF0010021
:103C200018BF002B06D102B070BD00BF022002B049
:103C300070BD00BF002622200E638A628B854E6411
:103C400081F842000C680D46C86B44F64D2C44F6D2
:103C5000AD31C0F6000CC0F60001C0E90FC144F65A
:103C6000D101C0F60001C0E91316211DFEF748FA84
:103C700040B110206864202085F84200012002B085
:103C800070BD00BF0196286829460268019240680D
:103C900001900198286928B3086850E8030F0A6862
:103CA00040F4807042E80303E3B1086850E8030F72
:103CB0000A6840F4807042E803039BB1086850E84A
:103CC000030F0A6840F4807042E8030353B10868A8
:103CD00050E8030F0A6840F4807042E80303002BA9
:103CE000DAD100BF086850E8050F0A6840F001000B
:103CF00042E80503DBB3086850E8050F0A6840F0A6
:103D0000010042E8050393B3086850E8050F0A680C
:103D100040F0010042E805034BB3086850E8050F86
:103D20000A6840F0010042E80503002BDAD11EE0EA
:103D3000086850E8050F0A6840F0400042E80503B3
:103D4000FBB1086850E8050F0A6840F0400042E8FF
:103D50000503B3B1086850E8050F0A6840F0400059
:103D600042E80503002B4FF000003FF45CAF086809
:103D700050E8050F0A6840F0400042E80503002BB8
:103D8000D6D1002002B070BD90F84230202B07D170
:103D900000294FF0010318BF002A05D118467047CB
:103DA00002231846704700BF00230363816222216B
:103DB0008285C285436480F842100169006819B1A8
:103DC000C16841F48071C160416941F00101416104
:103DD000C16841F02001C16018467047006844F690
:103DE0000001C4F20001884214D041F20001C4F283
:103DF0000101884218BF704740F6A81140F65040B4
:103E0000C2F200010123C2F2000001224B70FFF751
:103E1000BBBF00BF01F0B8BE704700002DE9F04302
:103E200081B0044690F84100202809D100294FF0C4
:103E3000010018BF002A07D101B0BDE8F08300BF20
:103E4000022001B0BDE8F0830020606421201D46FF
:103E50000E4684F841001746FEF78EFAA784E784E1
:103E6000A1688146B1F5805F02D1206900285DD04C
:103E700037460020E28C2168002A5DD06A1C24D0DD
:103E8000002D4AD0804600BF0868000608D4FEF71F
:103E900073FAA0EB0900A8427AD82168C868F3E752
:103EA00017B117F8010B04E038F8020B00276FF385
:103EB0005F204860E08C0138E084E08C0028E3D18A
:103EC0003AE000BF0A68120609D40A68120606D44E
:103ED0000A6812065CBF0A685FEA0262F2D51FB187
:103EE00017F8012B05E000BF30F8022B00276FF315
:103EF0005F224A60E28C013AE284E28C002AE4D13B
:103F00001AE000BF30F8022B00276FF35F224A60EF
:103F1000E28C013AE284E28C72B10A68120635D56D
:103F2000002FEFD017F8012BF1E700BF0027304634
:103F3000E28C2168002AA1D1086840061ED42DB366
:103F4000681C14D1086840062AD40868400627D4A3
:103F50000868400624D4086840064FF00000F1D5F8
:103F60000DE000BF2068C1680068400618D4FEF765
:103F700003FAA0EB0900A842F4D909E000202021AF
:103F800084F8411001B0BDE8F08300BFFEF7F4F9FA
:103F90000320202184F8411001B0BDE8F08300BF68
:103FA0000020202184F8411001B0BDE8F08300001A
:103FB000B0B590F84140202C1CBF0220B0BD134684
:103FC000024600294FF0010018BF002B00D1B0BD00
:103FD0004FF0000C212011629384D384C2F844C0B6
:103FE00082F8410014681546906B44F6C53E44F6CD
:103FF0007542C0F6000EC0F60002C0E90FE244F6BA
:10400000D102C0F60002C0E9132C221DFEF778F899
:1040100030B110206864202085F841000120B0BD37
:10402000286829466FF04002026000BF086850E827
:10403000050F0A6840F0800042E8050303B30868F2
:1040400050E8050F0A6840F0800042E80503BBB164
:10405000086850E8050F0A6840F0800042E8050350
:1040600073B1086850E8050F0A6840F0800042E824
:104070000503002B4FF0000008BFB0BDD6E700BF1E
:104080000020B0BD006844F60001C4F2000188427F
:1040900018BF704701F082BD70470000FEE70000C6
:1040A0007047000080B582B00020019043F63000D8
:1040B000C4F202000168002241F4001101600068AE
:1040C000002100F40010019001980C20FEF7D6F9B1
:1040D0000C20FEF7C1F90E2000210022FEF7CEF9D8
:1040E0000E2002B0BDE88040FEF7B6B92DE9F04FD2
:1040F00087B0002443F630000694CDE90444CDE9AE
:1041000002440194C4F20200016840F2004841F008
:10411000100101600168C4F2020801F01001019170
:1041200001990194016808F5805541F0040101608E
:104130000168012201F004010191019901940168D3
:104140004FF0010941F020010160016801F02001F8
:10415000019101990194016841F0800101600168B9
:1041600001F08001019101990194016841F002017F
:104170000160016801F00201019101990194016857
:1041800041F00101016000684FF4007100F001008E
:10419000019001982846FEF7E9F808F58066304658
:1041A000302100224FF0300AFEF7E0F840464FF48D
:1041B000404100224FF4404BFEF7D8F8102002A9EE
:1041C00002AF81E8110208F540603946FDF7FEFFB5
:1041D0004FF40070CDE9020928463946CDE9044480
:1041E000FDF7F4FF30463946CDE902A9CDE9044494
:1041F000FDF7ECFF40463946CDE902B9CDE904446C
:10420000FDF7E4FF07B0BDE8F08F000080B58CB08B
:1042100040F630300021C2F200004FF08042C0E989
:10422000002103224FF0FF33CDE903210122CDE924
:104230000011C0E9021301618161CDE90521CDE9D9
:104240000711CDE909210B9103A9FEF759FD0028BB
:1042500018BFFDF763FD40F63030C2F2000069463A
:10426000FEF748FC002818BFFDF758FD0CB080BDD4
:10427000B0B590B040F2004540F67830C4F2000589
:104280000021C2F2000029226323CDE90811CDE903
:104290000611CDE90411C0E90052C0E90213016121
:1042A0008161FFF713F8002818BFFDF737FD40F6CE
:1042B0007830C2F2000008A9FEF71CFC002818BFE5
:1042C000FDF72CFD602001900020CDE90200059053
:1042D00040F67830C2F2000001A90822FEF7E6FE9F
:1042E000002818BFFDF71AFD40F67834C2F200042A
:1042F00001A920460C22FEF7D9FE002818BFFDF7C1
:104300000DFD21680020A9420F90CDE90D000C9011
:104310000B9001D010B0B0BD43F630010A90C4F24A
:1043200002010A6842F002020A60096801F0020113
:104330000A910A9903210B910221CDE90C10CDE9D4
:104340000E0105F500300BA9FDF740FF10B0B0BD20
:1043500080B58CB040F6C03040F600020021C2F2B9
:104360000000C4F20002C0E9002103224FF6FF73EF
:10437000CDE903210122CDE90011C0E90213016159
:104380008161CDE90521CDE90711CDE909210B9125
:1043900003A9FEF7B5FC002818BFFDF7BFFC40F6E7
:1043A000C030C2F200006946FEF7A4FB002818BF27
:1043B000FDF7B4FC0CB080BD80B582B040F608407B
:1043C00041F200020021C2F20000C4F200025323B5
:1043D0004FF6FF7CCDE90011C0E90023C0E9021CC3
:1043E0008161FEF7E5FB002818BFFDF797FC40F65A
:1043F0000840C2F200006946FEF77CFB002818BFA7
:10440000FDF78CFC02B080BD80B540F6504041F213
:104410000001C2F20000C4F2010100234FF00C0CB5
:104420004FF4E13280E80E00C0E90333C0E905C370
:10443000C361FFF701FB002808BF80BDBDE88040D5
:10444000FDF76CBC80B540F6984044F60001C2F21E
:104450000000C4F2000100234FF00C0C4FF4E132D5
:1044600080E80E00C0E90333C0E905C3C361FFF76C
:10447000E3FA002808BF80BDBDE88040FDF74EBCD0
:10448000FEE7000010B540F67834C2F20004204682
:104490000821FEF76FFF20460C21FEF76BFF40F668
:1044A000C030C2F200003C21FEF7F6FC40F630308E
:1044B000C2F200003C21BDE81040FEF7EDBC000058
:1044C000B0B56428054640F60004A8BF642515F180
:1044D000640FC4F20204D8BF6FF0630500282046C1
:1044E0004FF0100108D40122FDF740FF20462021A3
:1044F0000022FDF73BFF08E00022FDF737FF2046D2
:1045000020210122FDF732FF6D4240F67830C2F2E1
:10451000000000680564B0BDB0B56428054640F2EF
:104520000044A8BF642515F1640FC4F20204D8BF8B
:104530006FF06305002820464FF480410AD4012221
:10454000FDF714FF20464FF400410022FDF70EFF57
:104550000AE000BF0022FDF709FF20464FF40041AA
:104560000122FDF703FF6D4240F67830C2F20000F1
:104570000068C563B0BD0000FEE7000000F10C015B
:1045800081EC030A0021C0ED091A80ED0A2AC0E976
:1045900006110162C0E900118160704790ED042AA4
:1045A00090ED061AB5EE402A80EC020A30EE600A61
:1045B000F1EE10FA80ED060A80ED071A04D090EDB6
:1045C000083A30EE033A01E09FED163A90ED034AC7
:1045D00090ED055A80ED083A22EE033A24EE004AA7
:1045E00030EE410A90ED092A34EE033A25EE000A36
:1045F00030EE030AB4EE420AF1EE10FA80ED020A40
:10460000C4BF80ED022AB0EE420A90ED0A1AB4EE61
:10461000410AF1EE10FABCBF80ED021AB0EE410A79
:10462000704700BF000000007047000070470000A6
:1046300040F6504040F6A811C2F20000C2F200015C
:104640000122FFF7A1BB000083B010B59BB08446E8
:104650001DA802AC0EC01DAA204661460192FBF7C0
:104660005DFF002081B2615C89B140F001018AB236
:10467000A25C5AB140F002018AB2A25C32B140F0B1
:1046800003018AB2A25C0430002AEBD1084682B250
:1046900040F65040C2F2000002A94FF47A73FFF7CF
:1046A000BDFB1BB0BDE8104003B07047FDF76ABE0C
:1046B00070B592B006AC20463021FBF7E7FF00252D
:1046C00043F640000595CDE90355CDE90155009528
:1046D000C4F202000168022641F0805101600068C6
:1046E00000F080500090009847F200000095C4F25E
:1046F0000000016841F480410160006800F48040DE
:1047000000900098012006904FF4803007904FF4FD
:1047100080000D9008200E904FF4A870CDE90F0690
:104720000420119020460C96FDF7F4FF10B172B6EC
:10473000FEE700BF0F20CDE901064FF4A050049022
:104740004FF48050059001A805210395FDF7D2FE96
:1047500010B172B6FEE700BF12B070BD4EF68850C1
:10476000CEF20000016841F4700101607047000062
:1047700040F67830C2F20000FEF7EEBB40F608408B
:10478000C2F20000FEF7E8BBB0B540F6FF3E056898
:10479000C4F2000E40F2004C7045C4F2010C25DC5E
:1047A000B0F1804F2FD040F20043C4F20003984292
:1047B00029D040F60003C4F20003984223D041F60A
:1047C000FF73C4F20003984228DC70453ADCB0F174
:1047D000804F5BD040F20043C4F20003984255D0B2
:1047E00040F60003C4F200034EE000BF40F6004371
:1047F000C4F20003984206D0604504D00023C4F2FE
:1048000001039842DBD14B6825F0700243EA0205B0
:1048100041F6FF73C4F200039842D6DD43F6FF73FE
:10482000C4F2010398421FDC42F20003C4F2000309
:1048300098422BD00023C4F20103984226D0604551
:1048400024D028E040F60043C4F2000398421DD073
:1048500041F60003C4F20003984217D041F600432A
:10486000C4F2000310E000BF44F20003C4F20103ED
:1048700098420BD044F60003C4F20103984205D0DD
:1048800044F20043C4F20103984204D1CB6825F4FA
:10489000407243EA02050A688C684B69C46240F4BE
:1048A00080648262644504BF09690163026825F07F
:1048B000800142F00402194302600122426101605A
:1048C000B0BD0000806B0021C185FEF7E9BD00008E
:1048D000806B01684A6990F84130212B2DD112F08C
:1048E00080022AD00021C184016851E8031F0268B8
:1048F00021F0C00142E80313DBB1016851E8031F56
:10490000026821F0C00142E8031393B1016851E845
:10491000031F026821F0C00142E803134BB1016894
:1049200051E8031F026821F0C00142E80313002B85
:10493000DAD1202180F841100168496990F84220BD
:10494000222A40F07D8011F0400179D00021C185FC
:10495000016851E8031F026821F4907142E80313D3
:10496000BBB3016851E8031F026821F4907142E86B
:10497000031373B3016851E8031F026821F49071B7
:1049800042E803132BB3016851E8031F026821F4C6
:10499000907142E80313002BDAD11AE0016851E864
:1049A000051F026821F0010142E80513DBB101682F
:1049B00051E8051F026821F0010142E8051393B197
:1049C000016851E8051F026821F0010142E8051362
:1049D0004BB1016851E8051F026821F0010142E86E
:1049E0000513002BDAD1016B012924D1016851E8AC
:1049F000031F026821F0100142E80313DBB10168D4
:104A000051E8031F026821F0100142E8031393B13B
:104A1000016851E8031F026821F0100142E8031306
:104A20004BB1016851E8031F026821F0100142E810
:104A30000313002BDAD1202180F8421000210163FA
:104A4000416C41F010014164FEF72ABD0168806BA2
:104A50000968C90500F19F800021C185016851E8FE
:104A6000031F026821F4807142E80313E3B1016877
:104A700051E8031F026821F4807142E803139BB1DF
:104A8000016851E8031F026821F4807142E80313B2
:104A900053B1016851E8031F026821F4807142E8B4
:104AA0000313002BDAD100BF016851E8051F02682B
:104AB00021F0010142E80513BBB3016851E8051F6D
:104AC000026821F0010142E8051373B3016851E85F
:104AD000051F026821F0010142E805132BB30168AC
:104AE00051E8051F026821F0010142E80513002B7F
:104AF000DAD11AE0016851E8051F026821F040018F
:104B000042E80513DBB1016851E8051F026821F096
:104B1000400142E8051393B1016851E8051F02689E
:104B200021F0400142E805134BB1016851E8051F2F
:104B3000026821F0400142E80513002BDAD1202160
:104B400080F84210016B012925D100BF016851E8AE
:104B5000031F026821F0100142E80313DBB1016872
:104B600051E8031F026821F0100142E8031393B1DA
:104B7000016851E8031F026821F0100142E80313A5
:104B80004BB1016851E8031F026821F0100142E8AF
:104B90000313002BDAD100214163016B012918BFF7
:104BA000FFF71CB9818DFEF779BC0000806B0121F5
:104BB0004163016B012918BFFFF72EB9818D4908A8
:104BC000FEF76CBC0168806B0968C90548BFFFF738
:104BD00059BA0021C18400BF016851E8051F02686D
:104BE00021F0800142E8051383B3016851E8051FF5
:104BF000026821F0800142E805133BB3016851E8E7
:104C0000051F026821F0800142E80513F3B1016835
:104C100051E8051F026821F0800142E80513002BCE
:104C2000DAD113E0016851E8031F026841F0400146
:104C300042E80313002B08BF7047016851E8031FC7
:104C4000026841F0400142E8031393B1016851E862
:104C5000031F026841F0400142E803134BB10168B1
:104C600051E8031F026841F0400142E80313002BA2
:104C7000D8D17047806BFFF70FBA000081B090F871
:104C80004210222921D183680246B3F5805F09D101
:104C900052F8281F52F8183C002B63D003685B6859
:104CA0000AE000BF52F8281F13B90369002BF5D0A2
:104CB00003685B6803F07F030B70116801311160BA
:104CC000C18D01390A04C18502D001B0704700BF0F
:104CD0000168CA6822F02002CA60CA6822F48072A1
:104CE000CA604A6922F001024A61202180F842101C
:104CF00000214163026B012A3CD10163016851E844
:104D0000031F026821F0100142E80313DBB10168C0
:104D100051E8031F026821F0100142E8031393B128
:104D2000016851E8031F026821F0100142E80313F3
:104D30004BB1016851E8031F026821F0100142E8FD
:104D40000313002BDAD101680A68D20606D50022C7
:104D500000920A680092496800910099818D01B023
:104D6000FEF79CBB026852686FF35F2221F8022BAA
:104D70008162A5E701B0FFF731B80000B0B5044685
:104D8000006804F108030ECB0569194325F440556A
:104D90002A4302616269E3691143C268194349F217
:104DA0000C639A431143C1604169A26921F44071C7
:104DB00041F20043114340F48062C4F201039A427D
:104DC000416103D1FDF75CFC02E000BFFDF744FC4C
:104DD000E1694FF69C7563681922C0F6FF75B1F55D
:104DE000004FA0FB02011FD15A00DB0FFBF71EFB97
:104DF00048F21F51C5F2EB11A0FB01235A0905F13E
:104E0000805302FB0300322303EBC000A0FB01012F
:104E10004FF4F87000EA111000EB0210C1F34211D8
:104E2000084421688860B0BD9A009B0FFBF7FEFA2A
:104E300048F21F51C5F2EB11A0FB01235A0902FBF6
:104E40000500322303EB0010A0FB0101F02000EA73
:104E5000511000EB0210C1F343110844216888602F
:104E6000B0BD000040F65040C2F20000FEF71ABB91
:104E700040F69840C2F20000FEF714BBFEE70000C7
:104E80002DE9F04705460C6840688846844207D9FA
:104E9000E868A100FBF768FAE8606C6002E000BF18
:104EA0006C605CB300206FF0030100BF08EB0102EF
:104EB00008EB80035F79167A9B79D27A46EA072756
:104EC00047EA034343EA0262EB68AA6043F8202002
:104ED0006A680130904201F10401E7D301F108064C
:104EE00058F80640286984420ED9A869A100FBF74A
:104EF0003BFAA8612C61301D0AE000BF042658F877
:104F0000064028698442F0D806F104002C618CB177
:104F100008F10101002200BF0B1853F8013CAF69F2
:104F20006B6147F822302B6901329A4200F104008C
:104F3000F2D3061F58F80040E8690836844207D9C2
:104F4000686AA100FBF710FA6862EC6103E000BF39
:104F5000002CEC614ED0A8F10109A8F1040C4FF02F
:104F6000000E00220FE000BF09F800E009EB03018A
:104F70006B6A296243F82210E96901328A420646C7
:104F800028BFBDE8F08758F80670331DF818834233
:104F9000EAD217F0030A1BD018F8034008EB03010C
:104FA00001F8014CBAF1010F06F1050411D018F80F
:104FB0000410444404F8011CBAF1020F06F106047F
:104FC00007D018F80410444404F8011CF41D00E054
:104FD0001C46791E0329C7D33E440CEB0401341B45
:104FE000043400BF51F8046F043C41F8016CF9D15E
:104FF000BAE700BF3046BDE8F087000000A0704768
:105000003966306539386264613635393831393856
:1050100036646466353361666137613430653439CE
:105020000000000046F24860C0F600007047000033
:105030002DE9F0410E4609783546017115F8041F37
:10504000804615F8030C15F8022C15F8013C40EACF
:10505000022747EA034747EA0164671D062F0BD37F
:105060004FEA022C1B040A061A4342EA0C02711D85
:1050700002432846FBF7C8FA30190021017138466F
:10508000C8F80850BDE8F08100A070473131616276
:105090006437333163323539333332363163643612
:1050A0003138336264313264363239350000000001
:1050B00000A07047726F7373657269616C5F6D7386
:1050C00067732F4C6F6700002DE9F04F83B00D46DA
:1050D00009788146818068782E4641EA0020A9F847
:1050E000040016F8050F16F803BC16F8021C16F893
:1050F000012C4FEA01284BEA012141EA024141EA31
:105100000067791E140411F1080F4FEA006A09D8EC
:105110004AEA040040EA0800A91D40EA0B023046B2
:10512000FBF772FAE8194FF0000C80F805C0C9F8D7
:105130000860CDE90148D0F8068007F10A0308EBC2
:1051400003018B4232D218F00306A8F1010E17D0EA
:10515000E85CEA1802F8010C012E07F10B0210D0EE
:10516000A85C2A4402F8010C022E07F10C0208D0B8
:10517000A85C2A4402F8010C07F10D0201E000BF0F
:105180001A46BEF1030F11D35019019E071F08EBF9
:105190000A003044029E30445844801A0A3000BF4E
:1051A00057F8042F043847F8012CF9D1681800F893
:1051B00001CCE8180138C9F80C006F580B1DFA181B
:1051C000934233D217F0030EA7F1010C18D0EE5C16
:1051D000E81800F8016CBEF1010F01F1050610D0CE
:1051E000A85D2E4406F8010CBEF1020F01F106067F
:1051F00007D0A85D2E4406F8010CCE1D01E000BFCB
:105200001E46BCF1030F11D37019011F08EB0700F4
:10521000019F50443844029F38445844801B0E304C
:1052200051F8047F043841F8017CF9D1A818002115
:1052300000F8011CE8180138C9F81000A958101D21
:10524000C9F8141003B0BDE8F08F000000A070474B
:1052500030616435316638386663343438393266E3
:1052600038633130363834303737363436303035CD
:105270000000000000A07047726F7373657269616F
:105280006C5F6D7367732F546F706963496E666FDF
:10529000000000002DE9F04186B0044646F294601B
:1052A000C0F600000830009046F26A70C0F60000B8
:1052B000CDE9030000206FF063064FF400786D46DF
:1052C000059001E0043621D0A719D7F888180029E5
:1052D000F8D0D1E900208968036802929A68ADF895
:1052E00004109047D7F88818039049680A68084660
:1052F000D2689047CDE90408D7F888082268016988
:10530000136820462A469847DCE700BF6FF0630623
:105310004FF400786D4601E0043623D0A719D7F882
:10532000EC080028F8D08268D0E90013029289685E
:10533000ADF804308847D7F8EC1803900A6808469F
:10534000D2689047D7F8EC1804900868CDF814801C
:1053500042680846904721682A460B680146204665
:105360009847D9E7012084F8000906B0BDE8F0812C
:105370002DE9F04784B00E466429814608DB99F890
:10538000000928B90026304604B0BDE8F08700BF08
:10539000106809F22B610368104609F224689847E7
:1053A0004FF6FF61A9F82416010A89F8271600EBC9
:1053B0001021C94389F82816310A10F1020F00F1B3
:1053C000070E89F8260689F8296689F82A1611DD5C
:1053D0007246BEF1060FD8BF0622531F063A032AB3
:1053E00003F0030C0AD200230527BCF1000F22D1E1
:1053F0002FE000BFFF2208F80E2030E023F0030367
:1054000009F5C567C3F1000A0026002317F8042F29
:10541000043E17F8031C17F8024C17F8015C1944F6
:1054200021442944B24501EB0203EFD1C6F105073F
:10543000BCF1000F0DD018F80760BCF1010F334428
:1054400007D047447E78BCF1020F33441CBFBA78C2
:105450001344DA43B0F5FC7F08F80E204CDCD9F891
:105460000C1400F10806C1F50074254609F5037710
:10547000A64238BF3546781841462A46FBF77FF8E2
:10548000D9F80C04A64230446FF35F20C9F80C042D
:1054900005D908EB0501721B3846FBF770F8D9F8FF
:1054A000040090F8411020297FF46DAF40F66C2580
:1054B000C2F20005297800297FF465AFD9F80C24E1
:1054C000D9F8101401238A422B700FD0914228BFC3
:1054D0004FF40072541A3944A2B2FEF769FDD9F8AC
:1054E000100420446FF35F20C9F8100400202870D6
:1054F000304604B0BDE8F08746F27C60C0F600009C
:105500000830019003208DF8080007A0D9F800109A
:1055100003900B6801AA4846072198474FF0FF36D1
:10552000304604B0BDE8F0874D6573736167652050
:1055300066726F6D206465766963652064726F7052
:105540007065643A206D657373616765206C617284
:10555000676572207468616E206275666665722E7A
:10556000000000002DE9F04F8BB00446FCF704FF6B
:10557000D4F808190546401A42F6F921884224BF9A
:10558000002084F80009D4F8EC0830B1D4F80C09F4
:10559000854284BF0020C4F8EC0804F61410029081
:1055A00004F58360059004F21C40049004F6880022
:1055B000039005F11400079046F2C060FF27C0F683
:1055C0000000C8F2000704F1080A04F224494FF071
:1055D000000808304FF0000B00260690D4F8200495
:1055E00038B1FCF7C9FED4F82014401B884200F201
:1055F00046816068C06B0168D4F808024968494276
:105600006FF35F21884200F00F81411CC4F808123B
:105610006FF35F211AF80000C4F80812D4F8FC18E0
:10562000D4F8EC280144082AC4F8FC18D6D8DFE8DE
:1056300002F00F3F192305454D2D5D0001EA0700DB
:10564000FF2812BFC4F8EC880520C4F8EC08C5E7B1
:10565000FF2840F067800120C4F8EC080798C4F8E0
:105660000C09BBE70321C4F8EC18C4F8F008C4F82F
:10567000F888C4F8FC08B1E7D4F8F01801EB002072
:105680000421C4F8EC18C4F8F008A7E7D4F8F81817
:105690004A1CC4F8F82809F80100D4F8F0080138C9
:1056A000C4F8F0087FF49AAF0820C4F8EC0895E736
:1056B000FE2841D10220C4F8EC088FE70621C4F887
:1056C000F408C4F8EC18C4F8FC0887E7D4F8F41818
:1056D000D4F8F02801EB0020C4F8F4080720002AD1
:1056E00008BF0820C4F8EC0878E700BF01EA07000B
:1056F000FF28C4F8EC887FF471AFD4F8F4080B28C5
:1057000000F28280DFE800F0C08080808080068028
:105710008080327A02984946FFF7B2FB012084F874
:1057200010095BE7FCF728FE401B41F289318842F3
:10573000FFF454AFA0E000BF94F80009C4F8EC886F
:1057400000287FF44BAF069800210890206809914B
:105750000A91036820460A2108AA4FF000089847DA
:10576000FCF70AFEC4F8140438E700BFFCF704FE97
:10577000D4F81414D4F82834401A44F6D351C1F2A2
:105780006201A0FB0112D4F82414009393094FF492
:105790007A77CDF804B003FB170701EB921BFCF7F7
:1057A000EBFD44F6D351C1F26201A0FB0112910955
:1057B0004FF47A735943081A384443F60951484361
:1057C00000996FEA921201EB80104CF60021C3F6AB
:1057D0009A310844C4F81C04DDE904105A44FF2738
:1057E000DDF804B0C8F20007C4F8182400F06CF823
:1057F000FCF7C2FDC4F808090126EFE684F8008929
:105800004FF0010BEAE600BF039901EB80004FF671
:105810007061CFF6FF71405800283FF4DFAE016899
:105820000A6849469047D9E694F80009B8B1D4F817
:10583000040940F6C511281A884210D30698216839
:105840000890002009900A900B6808AA20460A21B7
:105850009847FCF791FDC4F81404C4F804591BF0F0
:10586000010018BF6FF00200F10718BF6FF00300CE
:105870000BB0BDE8F08F00BF002084F800096FF086
:1058800001000BB0BDE8F08F069821680890002059
:1058900009900A900B6808AA20460A219847FCF74D
:1058A0006BFDC4F814042046FFF7F4FCC4F8045957
:1058B000C4F808594FF0FF300BB0BDE8F08F00007E
:1058C00090F800097047000010B5D1F800E044F6E8
:1058D00083334FEA5E2CC0F20403ACFB03324CF678
:1058E000002CD309C3F69A3C046803FB1CE304EBC9
:1058F000D21202600B6010BD0B78024643604878FC
:1059000043EA002050608B7840EA03405060CB7837
:1059100040EA03605060087990604B7940EA0320C8
:1059200090608B7940EA03409060C97940EA016158
:10593000082091607047000000A070476364373111
:1059400036366337346335353263333131666263FB
:1059500063326665356137626332383900000000B2
:1059600000A070477374645F6D7367732F54696D23
:10597000650000002DE9F041044640688846087043
:105980006068000A4870E0888870E079C8706068D4
:10599000D0B100206FF00301E26808EB010352F878
:1059A000202008EB8006170A1A727771170C120E66
:1059B000B771DA7262680130904201F10401EBD3F1
:1059C00001F1080001E000BF0420216908F800107F
:1059D000226908EB0001120A4A70628A8A70E27C2E
:1059E000CA70226962B10022002300BFA7698E1825
:1059F000BF580133776027690432BB42F6D31044A5
:105A0000E269011D08F80120E2694144120A4A7066
:105A1000E28B00F108068A70E27FCA70E169B9B1D1
:105A2000002500BF606A50F82500FAF789FD48F8A4
:105A300006000746606A043650F8251008EB060099
:105A40003A46FAF79CFDE069013585423E44E9D3C8
:105A50003046BDE8F081000070B5044600790D467F
:105A60000870A068FAF76CFDC5F801000646A16849
:105A7000681D3246FAF783FD701D70BDF0B581B028
:105A8000054600790C46087068794870A868FAF7EE
:105A900057FDC4F802000646A968A01D3246FAF771
:105AA0006EFDE868FAF74CFD0746A019C0F80670CD
:105AB0000A36E968A0193A46FAF761FD28693744C1
:105AC000FAF73EFDE051064604372969E0193246EF
:105AD000FAF755FD6A69F119081D625001B0F0BD71
