:020000040800F2
:10000000302900209D020008A9330008CD2E0008E9
:10001000B1320008CD090008BD3B00080000000017
:100020000000000000000000000000005D34000837
:10003000410C000800000000593400087934000821
:10004000B7020008B7020008B7020008B7020008AC
:10005000B7020008B7020008B7020008B70200089C
:10006000B7020008B7020008B7020008B70200088C
:10007000290C0008B7020008350C0008B702000878
:10008000B7020008B7020008B7020008B70200086C
:10009000B7020008B7020008B7020008B70200085C
:1000A000B7020008B7020008B7020008B70200084C
:1000B000B70200083D350008B7020008B702000883
:1000C000B7020008B7020008B7020008B70200082C
:1000D000B7020008793B0008B7020008853B00081A
:1000E000B7020008B7020008B7020008B70200080C
:1000F000B7020008B7020008B7020008B7020008FC
:10010000B7020008B7020008B7020008B7020008EB
:10011000B7020008B702000849350008B702000816
:10012000B7020008B7020008B7020008B7020008CB
:10013000B7020008B7020008B7020008B7020008BB
:10014000B7020008B7020008B7020008B7020008AB
:10015000B7020008B7020008B7020008B70200089B
:10016000B7020008B7020008B7020008B70200088B
:10017000B7020008B7020008B7020008000000003C
:10018000B7020008B702000800F002F800F076F8A5
:1001900014A696E8000CB244B344DA4501D100F04D
:1001A0006DF8BAE80F000FA696E83000A5EB04053D
:1001B00004EB0607AAEB0704A7F101074FEA1515A0
:1001C0004FEA3414A4F10104AC4201D300F056F814
:1001D00013F0010F18BFFB1A43F0010300F001F800
:1001E000DBE71847F4760000147700000A444FF06C
:1001F000000C10F8013B13F0070408BF10F8014B86
:100200001D1108BF10F8015B641E05D010F8016BCA
:10021000641E01F8016BF9D113F0080F1EBF10F82E
:10022000014BAD1C0C1B09D16D1E58BF01F801CB51
:10023000FAD505E014F8016B01F8016B6D1EF9D5D4
:100240009142D6D37047000070470000002300247D
:1002500000250026103A28BF78C1FBD8520728BFD6
:1002600030C148BF0B6070471FB507F066F99DE8C5
:10027000030000F02BFA1FBD10B510BD00F023FBEA
:100280001146FFF7F1FF05F0F3FE00F041FB03B468
:10029000FFF7F2FF03BC00F071FB00000948804744
:1002A00009480047FEE7FEE7FEE7FEE7FEE7FEE758
:1002B000FEE7FEE7FEE7FEE704480549054A064B70
:1002C000704700002935000889010008301500201A
:1002D00030290020301900203019002070B50D465B
:1002E0000646041F00F0D6F90268BDB1DEB105F183
:1002F0000B0020F00701A9423CBF002070BD23681D
:100300008B4238BF506813D35A1A082A36D3601864
:1003100040F8042B216000F037FA2FE0304600F05F
:1003200033FA002070BD2846BDE8704000F0FDB9EA
:10033000002818BFA0423CBF02464068F8D303EB38
:10034000040C84451CD1D0F800C06344994217D8EE
:10035000A3EB010CBCF1080F0DD3D0F804C0631857
:10036000C3F804C0D4F800C000686044401A1860A4
:100370002160536002E0236040685060201D70BD22
:10038000284600F0D2F9050008D031462068021F47
:10039000284600F023F9201D00F0F6F9284670BD2C
:1003A00053EA020C00F069802DE9F04B4FF0000693
:1003B000002B1FBFB3FA83F503FA05F424FA05F600
:1003C0005E4012BF1643B2FA82F502FA05F4C5F197
:1003D00020051EBF22FA05FC44EA0C04203556EA2B
:1003E000044C4FEA144418BF641C4FF000084FF04F
:1003F0000009904271EB030C39D3002919BFB1FAFF
:1004000081F701FA07F6B0FA80F700FA07F6C7F1AC
:1004100020071EBF20FA07FC46EA0C062037B6FB71
:10042000F4FCA7EB0507103F07F01F0BCBF12006EC
:100430002CFA06F60CFA0BFB44BFB3460026202F1D
:10044000A4BF5E464FF0000B5BEA060C08BF4FF0FE
:10045000010B19EB0B0948EB0608ABFB027C06FB12
:1004600002CC0BFB03CCC01B71EB0C01C1E70B46AC
:10047000024641464846BDE8F08B13B5084318BF15
:100480004FF0FF300146AFF30080BDE81C407047DD
:1004900010B5431C02E010F8011B71B18107FAD1BD
:1004A0004FF0013202C88C1A8C4314EAC211F9D001
:1004B000C01A0A0603D0C01E10BDC01A10BD0A041F
:1004C00001D0801E10BD0902FCD0401E10BD032AC1
:1004D00040F2308010F0030C00F0158011F8013B61
:1004E000BCF1020F624498BF11F801CB00F8013B48
:1004F00038BF11F8013BA2F1040298BF00F801CB0C
:1005000038BF00F8013B11F0030300F06780083AA0
:10051000C0F0088051F8043B083A51F804CBA0E839
:100520000810F5E7121D5CBF51F8043B40F8043B8E
:10053000AFF30080D20724BF11F8013B11F801CBC3
:1005400048BF11F8012B24BF00F8013B00F801CB94
:1005500048BF00F8012B7047431A28BF9A427FF624
:10056000B6AF10441144032A40F2268010F0030F66
:100570001EBF11F8013D521E00F8013D10F0030F9F
:100580007FF4F6AF11F0030300F04381083AC0F0A6
:100590000B8051F8043D083A51F804CD40F8043D71
:1005A00040F804CDFFF7F3BF121D5CBF51F8043DC6
:1005B00040F8043DAFF30080D20724BF11F8013D9D
:1005C00011F801CD48BF11F8012C24BF00F8013DFE
:1005D00000F801CD48BF00F8012C704710B5203A53
:1005E000C0F00B80B1E81850A0E81850B1E81850DE
:1005F000A0E81850203ABFF4F5AF5FEA027C24BFB0
:10060000B1E81850A0E8185044BF18C918C0BDE898
:1006100010405FEA827C24BF51F8043B40F8043B61
:1006200008BF7047D20728BF31F8023B48BF11F816
:10063000012B28BF20F8023B48BF00F8012B704770
:100640004FF0000200B5134694469646203922BF6B
:10065000A0E80C50A0E80C50B1F12001BFF4F7AFB6
:10066000090728BFA0E80C5048BF0CC05DF804EB98
:10067000890028BF40F8042B08BF704748BF20F806
:10068000022B11F0804F18BF00F8012B7047704704
:100690007047704700487047E81100207047704766
:1006A0007047704738B504460A4600206946AFF3E4
:1006B0000080002808BF38BD02460099204600F09F
:1006C000E1F8012038BD012000F0F6B8F8B5AFF32D
:1006D0000080054600200C460C2000BF0646A819E5
:1006E000A0420DD9324669460020AFF300800700D2
:1006F00008BF00F0E1F80098A04218BF0546C419F1
:10070000FFF7C8FF05600746F01D20F007004619F7
:10071000284600F0B1F8B44208BFF8BDA21B31462C
:100720003868BDE8F84000F0ADB870B50646FFF790
:10073000B1FF056806F10B0020F00704B4429CBF2E
:10074000002070BD2B466A68BAB11068A04210D371
:1007500004F1080188423CBF5068586007D35168D3
:10076000101941601168091B016058601460101D68
:1007700070BD13465268002AE7D121462846FFF78C
:1007800091FF0028DED170BD70B50446051FFFF74C
:1007900081FF0068002C14BF446870BD002C18BF96
:1007A000AC423CBF20466468F8D301680A18AA42EC
:1007B00018BF456003D12A680546114401602868C6
:1007C0004119A1421CBF6C6070BD616869602168FD
:1007D0000844286070BD10B500F04AF8006810BDEC
:1007E00010B5044600F044F8046010BD431A28BF59
:1007F0009A427FF6F3AE1044114410F0030F1EBF6F
:1008000011F8013D521E00F8013D10F0030F7FF476
:10081000F6AF103AC0F00A8010B531E9185020E95F
:100820001850103ABFF4F9AFBDE81040530724BF89
:1008300031E9081020E9081044BF51F8043D40F8A0
:10084000043D12F0030F08BF7047D20728BF31F8EC
:10085000023D48BF11F8012C28BF20F8023D48BFD7
:1008600000F8012C7047000000487047E01100209C
:1008700000487047E011002000210160416070478E
:100880000C207047034640688C46002818BF8842F9
:100890003CBF03464068F8D318681844884207D024
:1008A0000CF1030020F00700001D411A521A014606
:1008B000081D0A60FFF768BF10B500F037F8BDE803
:1008C000104000F02EB87546FFF7CEFFAE4605008B
:1008D0006946534620F00700854618B020B5FFF75B
:1008E000EBFCBDE820404FF000064FF000074FF052
:1008F00000084FF0000BAC46ACE8C009ACE8C009FA
:10090000ACE8C009ACE8C00921F007018D4670478A
:1009100010B50446AFF300802046BDE81040FFF755
:10092000B6BC002801D000F029B8704710B50128E6
:1009300005D0002103A000F028F8012010BD09A176
:10094000F8E7000053494752544D454D3A204F7542
:1009500074206F662068656170206D656D6F7279B7
:10096000000000003A2048656170206D656D6F726F
:100970007920636F72727570746564000149182084
:10098000ABBEFEE726000200704770B505460C4678
:100990000A2000E06D1C00F011F835B1287800281D
:1009A000F8D102E0641C00F009F814B120780028A6
:1009B000F8D1BDE870400A20AFF3008008B5694661
:1009C0008DF800000320ABBE08BD0000FEE700006C
:1009D00010B52DED088B41F244249FED158A9FED53
:1009E000159A9FED15AA9FED15BAC2F2000404F105
:1009F0001400B0EE480AF0EE490AB0EE491AF0EEE3
:100A00004A1AB0EE4B2A02F0D1FC04F14000B0EEDD
:100A1000480AF0EE490AB0EE491AF0EE4A1AB0EE72
:100A20004B2ABDEC088BBDE8104002F0BFBC00BFF4
:100A300052B85E3F000000000000C8420000C8C27B
:100A40002DE9F04F81B02DED0C8B82B000F0FAF85B
:100A5000044600F001F900EE104A9FED6D1AB8EE61
:100A6000C00A02EE100A80EE010AB8EEC22A82EE37
:100A7000011A9FED68BA41F2B020C2F200009FED6A
:100A8000663A9FED68CAB6EE00DA41F24428C2F237
:100A900000089FED624A80EE0B8A90ED000A81EE1D
:100AA0000B9A41F2B420C2F2000090ED001A08F156
:100AB0001400B0EEC82AB4EE432AB0EEC92AF1EE13
:100AC00010FAB4EE432A9FED562AB8BFB0EE448A1E
:100AD00020EE022A21EE0C0A20EE0D1A32EE410A17
:100AE000F0EE480AF1EE10FAB8BFB0EE449A32EEDA
:100AF00001AA02F06BFCBDEEC00A10EE100A02F073
:100B0000F7FB08F14000B0EE4A0AF0EE490A02F0A5
:100B10005DFCBDEEC00A10EE100A02F015FC39EEC5
:100B2000480A80EE0C0A38EE091A21EE0D1A11EE71
:100B3000100A88ED031A88ED040A06F08DFC0446BD
:100B4000D8F808000D4606F087FC41EC100B05F0C4
:100B500007FB51EC100B22462B4606F085FA0646A1
:100B60000F46D8F80000D8E90219019106F074FC8C
:100B70009FED250B04465AEC10BB0D463046394616
:100B80005A46534606F070FA22462B4606F00EF8F7
:100B900005F0DAFFC8F80000484606F05DFC0446A0
:100BA00001980D4606F058FC41EC100B05F03CFB9B
:100BB00051EC100B22462B4606F056FA0446D8F8A4
:100BC00004000D4606F048FC06460F46204629461E
:100BD0005A46534606F048FA32463B4605F0E6FFD1
:100BE00005F0B2FF98ED040A98ED021A20EE0B0A08
:100BF00030EE010AC8F8040088ED020A02B0BDEC2C
:100C00000C8B01B0BDE8F08F00000040E17A843F1A
:100C1000A4F0F3420AD7233CCDCCCC3D0000000029
:100C20000000C8426666AA4141F2B820C2F2000044
:100C300000F07AB841F21830C2F2000000F074B847
:100C40007047000041F27830C2F2000001680022D3
:100C5000486A4A627047000041F20840C2F2000050
:100C600001680022486A4A6200B2704772B600BF4B
:100C7000FEE7000070B5866D044600F011FB94F8A5
:100C80003510022928D105462068216C026822F01F
:100C900016020260426922F08002426109B9A16C29
:100CA00019B1016821F008010160016821F001011A
:100CB000016000BF20680068C00715D000F0F0FA9E
:100CC000401B0628F6D320206065032084F83500F9
:100CD000002184F8341070BD80206065012000215F
:100CE00084F8341070BD00BFE06D3F2101FA00F0C0
:100CF000B060012084F835000020002184F8341011
:100D000070BD000090F83510022909D1052180F846
:100D100035100068016821F0010101600020704772
:100D20008021416501207047F0B581B0002100911C
:100D300040F23001C2F200010B68D0E9166148F2BE
:100D4000B51537680822C1F64E358A403A42A3FBF2
:100D500005350CD003681C68640708D51C6824F0AE
:100D600004041C60B260426D42F00102426501223F
:100D70008A403A4208D003685B691B0604D5B2601A
:100D8000426D42F00202426504228A403A4208D093
:100D900003681B689B0704D5B260426D42F00402F1
:100DA000426510228A403A4219D001680B681B073D
:100DB00015D5B2600B680A685B0309D4D20509D463
:100DC0000A6822F008020A60016C29B907E000BF36
:100DD000110341D4016C11B1044688472046C26D0D
:100DE000202101FA02F33B4243D001680F68FF065D
:100DF0003FD5B36090F835700B68052F1CD123F0F8
:100E000016030B604B6923F080034B61036C0BB935
:100E1000836C1BB10B6823F008030B603F219140EA
:100E2000B160012180F83510016D0022002980F8A1
:100E3000342054D158E000BF0A685B0310D4D205B7
:100E400012D40A6822F010020A60012180F83510DD
:100E5000002180F8341007E0816C0029BCD1BEE786
:100E6000110301D4416C00E0C16B11B10446884705
:100E70002046416DC1B3416DC9072ED0052180F8D0
:100E800035100168AA0A0B6823F001030B60009B70
:100E90000133934200931AD80B68DB0717D0009BED
:100EA00001339342009312D80B68DB070FD0009BED
:100EB0000133934200930AD80B68DB0707D0009BED
:100EC00001339342009302D80B68DB07DFD1012185
:100ED00080F83510002180F83410C16C21B101B0C8
:100EE000BDE8F040084700BF01B0F0BD2DE9F0417A
:100EF000044600F0D5F9ECB10546022084F835002F
:100F00000020216884F83400086820F0010008609F
:100F100021680868C00711D000F0C2F9401B0528FD
:100F2000F6D9032520230320636584F83550BDE8F6
:100F3000F08100BF0120BDE8F08100BF086848F2E1
:100F40003F02CFF21002D4E9013500EA020C04F1AD
:100F50000C0898E8C10143EA0C032B431843D4E979
:100F6000072E304338431043626A40EA0E00042AD9
:100F700040EA08031CD1206BD4E90A2E40EA0E0097
:100F8000184308604869BEF1000F20F0030040EAF2
:100F9000020040F0040C11D0B8F5005F36D0B8F173
:100FA000000F45D1022A46D0012A3BD032B942E097
:100FB0000B60486920F0070040EA020C01F0F800DD
:100FC0004AF6AB221038CAF6AA22A0FB02231A095D
:100FD00047F66803C1F814C0C0F600039A5C40F2FB
:100FE000FF335F284FF03F0021EA030100FA02F0CF
:100FF00088BF0431C4E9161288600023012500204F
:10100000636584F83550BDE8F08100BF032AD5D868
:10101000012540230120DFE802F0030E030500BF95
:1010200082E700BFAEF1C070B0FA80F0400904E082
:10103000032A04D3C2D1CEF300600028BED001251C
:1010400040230120636584F83550BDE8F08100003D
:1010500090F834C0BCF1010F04BF0220704770B596
:101060004FF0010C80F834C0D0F858E090F835C04B
:10107000BCF1010F38D14FF0020C80F835C04FF0B1
:10108000000CC0F854C0D0F800C08468056CC06D76
:10109000DCF80060402C26F48026CCF80060CCF808
:1010A00004300B4604BF13460A463F2101FA00F004
:1010B000CCF80830CCF80C20CEF80800DCF80000A2
:1010C00040F01600CCF800002DB1DCF8000040F034
:1010D0000800CCF80000DCF8000040F00100CCF87B
:1010E0000000002070BD00BF002180F834100220F5
:1010F00070BD00002DE9F04F83B000F1200200F137
:101100003E4741F60045009207F1FF77C4F2020521
:1011100008224FEAB726A84208BF072200254FF051
:1011200000084FF00009072E38BF4FEAB72201929E
:101130000AE000BF09F1010908F10208B9F1100F36
:1011400005F1040500F0A2800F68012202FA09FEF1
:1011500017EA0E0AEED0D1F804C003220CF0030700
:101160007E1E02FA08F4012E6FEA040B12D884687E
:10117000CE6804EA0B0406FA08F634438460446837
:1011800024EA0E06CCF3001404FA09F42643466060
:1011900004E000BF032F01D103271EE0C6688C685E
:1011A00006EA0B0604FA08F42643022FC66014D19F
:1011B0006FF00302009E02EA590756F807C005F0D7
:1011C0001C040F220B69A2402CEA0202A3401A431E
:1011D000F251D1F804C00CF00307026807FA08F3D3
:1011E00002EA0B021A431CF4403F0260A2D0002224
:1011F00043F644030292C4F202031A6843F6004421
:1012000042F480421A601A68C4F2010402F4804277
:101210000292029A29F003024FF6084C2244CFF6BC
:10122000FF7C52F80C3005F00C070F26BE40B3438C
:10123000019E06FA07F73B4342F80C30A2684B6860
:1012400042EA0A0743F60C4CDE0258BF22EA0A07BC
:10125000A760C4F2010CDCF800209E0242EA0A07F3
:1012600058BF22EA0A07CCF8007062689E0342EA7F
:101270000A0758BF22EA0A0767602268DB0342EACE
:101280000A0758BF22EA0A07276053E703B0BDE800
:10129000F08F0000002A08BF090481617047000038
:1012A00041F22850C2F200000068704740F2280066
:1012B00041F22851C2F20000C2F2000100780A682F
:1012C000104408607047000080B543F60040C4F247
:1012D0000200016841F400710160016841F480611D
:1012E0000160016841F480710160032000F086F81C
:1012F0000F2000F005F800F027F8002080BD000066
:1013000070B540F22806C2F2000640F23001327891
:10131000C2F200014FF47A730968B3FBF2F204469B
:10132000B1FBF2F1084600F05FFB0F2C4FF0010516
:1013300008D838B94FF0FF3021460022002500F0D0
:1013400031F87460284670BD82B0002043F6400139
:101350000190C4F202014A6842F480424A604A683D
:1013600002F480420192019A0090086840F0805097
:101370000860086800F080500090009802B0704744
:10138000002848BF704700F01F01012202FA01F156
:101390001C2202EAD0004EF20012CEF2000281506E
:1013A0007047000010B54EF60C5CCEF2000CDCF875
:1013B0000030C3F3022E8EF00704042C28BF04244F
:1013C000BEF103034FF0FF3E0EFA04F438BF0023D2
:1013D000A14399400EFA03F39A43114300F00F0220
:1013E00000F160430901043A03F5644362440028B4
:1013F00048BF02F10C03197010BD00004EF60C51ED
:10140000CEF200010A684FF6FF031A4060F30A2289
:1014100042F0806040F0FD7008607047002804BF13
:10142000012070472DE9F04143F60808C4F2020894
:101430000446D8F8F8030D4600F00700884207D2AA
:1014400088F8F853D8F8F80300F00700A84277D1DD
:101450002068810717D5410705D5D8F8001041F459
:10146000E051C8F80010010705D5D8F8001041F484
:101470006041C8F80010D8F80010A26821F0F0010F
:101480001143C8F80010C00740D1D8F8F80300F0A5
:101490000700A84207D988F8F853D8F8F80300F0F5
:1014A0000700A8424CD12068410707D5D8F80010A2
:1014B000E26821F4E0511143C8F80010000708D594
:1014C000D8F80000216920F4604040EAC100C8F863
:1014D000000000F07DF8D8F8001047F28862C1F3F0
:1014E0000311C0F60002515C40F2300220FA01F113
:1014F00040F22C00C2F200000068C2F2000211604B
:10150000FFF7FEFE0020BDE8F08100BF6068811E8D
:10151000022907D258F8081C89015CBF0120BDE8E8
:10152000F08111E0012807D158F8081C89035CBF3D
:101530000120BDE8F08107E058F8081C890703D4B2
:101540000120BDE8F08100BFD8F8001021F00301B0
:101550000843C8F80000FFF7A3FE064641F28837AB
:10156000D8F80000616800F00C00B0EB810F8CD05F
:10157000FFF796FE801BB842F2D90320BDE8F08148
:1015800040F2300043F60801C2F20000C4F202014A
:101590000068096847F29862C1F38221C0F6000230
:1015A000515CC8407047000040F2300043F608012B
:1015B000C2F20000C4F202010068096847F29862B2
:1015C000C1F34231C0F60002515CC84070470000D0
:1015D00010B543F60404C4F20204606800F00C0184
:1015E00042F200400829C0F2F40007D0042918BFD5
:1015F00010BD41F20020C0F27A0010BD216801F058
:101600003F02216823684902C3F3881106D4A1FB75
:1016100000010023FEF7C4FE07E000BF41F20020F6
:10162000C0F27A004843B0FBF2F021680222C1F315
:10163000014102EB4101B0FBF1F010BD002804BFF5
:10164000012070472DE9F04182B00446007843F64E
:101650000006C007C4F202060CD0B06800F00C000F
:10166000042840F081803068800303D5606800283A
:1016700000F06881207880071BD5B06810F00C0F4F
:1016800009D0B06800F00C00082840F0878070682E
:10169000400200F183803068800703D5E0680128AC
:1016A00040F050813068216920F0F80040EAC10024
:1016B00030602078000713D4207840072AD4A56929
:1016C000002D00F03A81B06800F00C00082840F0CE
:1016D000A580012D40F00E81012002B0BDE8F0810F
:1016E0006069002800F082800020C4F247200121B8
:1016F000C0F8801EFFF7D4FD054600BF706F80075D
:10170000DAD4FFF7CDFD401B0228F7D9032002B041
:10171000BDE8F081306C5FEAC0080AD40020019077
:10172000306C40F080503064306C00F0805001909C
:10173000019847F20007C4F200073868C00547D493
:10174000386840F480703860FFF7AAFD054600BF96
:101750003868C0053CD4FFF7A3FD401B0228F7D929
:10176000032002B0BDE8F081B06800F00C0008284A
:1017700003D1706840023FF576AF61683068B1F51B
:10178000803F07D0B1F5A02F40F09A8040F4802030
:101790003060306840F4803030609AE0E0680028C3
:1017A00040F20000C4F247205CD001210160FFF745
:1017B00077FD0546306880073FF574AFFFF770FD91
:1017C000401B0228F6D9032002B0BDE8F08100BF1B
:1017D000A168306F012905D0052955D140F00400DA
:1017E0003067306F40F00100306756E00020C4F2EF
:1017F00047200021C0F8801EFFF752FD054600BFBC
:10180000706F80077FF558AFFFF74AFD401B022835
:10181000F6D9032002B0BDE8F08100BF0027C4F272
:10182000472700203866FFF73BFD022D05460DD106
:101830003068800140F18A80FFF732FD401B0228AA
:101840004FF00300F4D902B0BDE8F08130688001A8
:1018500073D5FFF725FD401B02284FF00300F5D993
:10186000F1E700BF00210160FFF71AFD054600BF48
:10187000306880077FF51DAFFFF712FD401B02287F
:101880004FF00300F4D9DEE720F001003067306F3D
:10189000002920F0040030677AD0FFF701FD0546EB
:1018A00041F28837306F800700F18480FFF7F8FC41
:1018B000401BB842F6D9032002B0BDE8F08100BF5A
:1018C00020F4803030603068002920F480203060BF
:1018D0007AD0FFF7E5FC0546306880033FF5CAAED5
:1018E000FFF7DEFC401B6428F6D9032002B0BDE8F8
:1018F000F08100BF7068E16900F480028A4221D162
:10190000216A00F03F028A421CD147F6C071626A28
:101910000140B1EB821F15D1A16A4FF6FF73C903D5
:10192000994300F44032A1F580318A420AD1E16A3C
:1019300000F07060B0EB016F04D1002002B0BDE890
:10194000F08100BF012002B0BDE8F08104F11C0568
:101950002FCD084340EA8210D9034FF6FF7291431E
:10196000A1F5803140EA05600843706001203866C7
:10197000FFF796FC044600BF30688001DDD4FFF716
:101980008FFC001B02284FF00300F5D95BE700BF76
:10199000FFF786FC054641F2883700BF306F8007AD
:1019A00008D5FFF77DFC401BB8424FF00300F5D986
:1019B00049E700BFB8F1000F3FF581AE306C20F071
:1019C000805030647BE600BFFFF76AFC054600BF2D
:1019D000306880037FF54EAEFFF762FC401B642841
:1019E0004FF00300F4D92EE7411E0020B0EB116F39
:1019F0001CBF012070474EF21002CEF2000251606F
:101A00004EF62351CEF20001F0230B7007219060B7
:101A100011607047704700007047000090F83C204C
:101A2000012A4FF0020254D010B580F83D20026820
:101A3000D2F804E0D2F808C00C682EF070032343FB
:101A400041F2FF74C4F20004A24253600EDC40F283
:101A5000FF73C4F200039A4216DCB2F1804F2BD020
:101A600040F20043C4F2000324E000BF40F2FF3321
:101A7000C4F201039A4213DC41F60003C4F20003EE
:101A80009A4219D0002313E040F60003C4F2000389
:101A90009A4211D040F60043C4F200030AE000BFAE
:101AA00044F20003C4F201039A4205D040F200431D
:101AB000C4F201039A4204D149682CF0800319430F
:101AC00091600121002280F83D1080F83C20BDE8A3
:101AD0001040104670470000002804BF01207047E6
:101AE00010B5044690F83D0028B9002084F83C0069
:101AF000204600F01FF8022084F83D002068211DD8
:101B000001F028FD012084F8460084F83E0084F8A6
:101B10003F0084F8400084F8410084F8420084F8D3
:101B2000430084F8440084F8450084F83D00002018
:101B300010BD0000006841F20001C4F200018842BB
:101B400018BF704780B582B00020019043F6400076
:101B5000C4F202000168002241F010010160006837
:101B6000002100F01000019001983620FFF71AFCC8
:101B7000362002B0BDE88040FFF702BC90F83D106F
:101B800001291CBF01207047022180F83D10006828
:101B900041F2FF72C168C4F20002904241F00101BB
:101BA000C1600DDC40F2FF71C4F20001884215DC17
:101BB000B0F1804F2AD040F20041C4F2000123E08E
:101BC00040F2FF31C4F20101884213DC41F600010A
:101BD000C4F20001884219D0002113E040F6000150
:101BE000C4F20001884211D040F60041C4F2000165
:101BF0000AE000BF44F20001C4F20101884205D0AE
:101C000040F20041C4F20101884206D1816801F02E
:101C10000701062904BF00207047016841F0010157
:101C20000160002070470000002804BF01207047B9
:101C30002DE9F047044690F83D000D4628B90020F4
:101C400084F83C00204600F049F8022084F83D006A
:101C5000206844F20702816891438160211D01F0F0
:101C600079FC20684FF6FF7881688269D0F820C03F
:101C7000D5E9003ED5E9026A43EA0109AB6922EAE7
:101C8000080246EA03234FF6FC46B343D5E907674B
:101C900042EA0A0229691A4342EA062242EA01118B
:101CA0002CF0AA026B6942EA0E0241EA073142EACD
:101CB0000312C0F8089081610262012084F8460096
:101CC00084F83E0084F83F0084F8420084F8430022
:101CD00084F83D000020BDE8F0870000F0B587B033
:101CE000006840F600020024C4F20002C4F20204BC
:101CF00000219042CDE90511CDE90311029139D0BF
:101D0000B0F1804F5AD1002543F630000195C4F25E
:101D100002000169022641F0010101610169012708
:101D200001F00101019101990195016841F0010162
:101D30000160016801F001010191019901950168BB
:101D400041F002010160006802A900F00200019068
:101D500001984FF4004002902046CDE903650595B7
:101D60000697FFF7C7F90820CDE90206CDE904552B
:101D700006971EE043F630000191C4F202000269AA
:101D800042F004020261026902F004020192019A27
:101D90000191026842F002020260006800F0020055
:101DA00001900198C02002900220CDE90301CDE905
:101DB000051004F5806002A9FFF79CF907B0F0BD9B
:101DC00080B590F83E2090F83F3090F842E090F8CF
:101DD00043C004290AD0B9B9012A4FF0010208BF53
:101DE000BEF1010F34D0104680BD00BF012B4FF073
:101DF000010208BFBCF1010FF5D1022180F83F10AC
:101E000080F8431000681EE0012A4FF0010208BF6D
:101E1000012BE8D1BEF1010FE5D1BCF1010FE2D1F8
:101E2000022280F83E2080F83F2080F8422080F88F
:101E3000432091B10068016A21F001010162016A49
:101E400041F00101016210216FF0100209E000BFB2
:101E5000022180F83E1080F84210006801216FF0E6
:101E60000102036A1A400262026A114301620168B8
:101E7000002241F001010160104680BD7047000062
:101E800070B504460068C5680669B10716D515F037
:101E9000020113D06FF002010161012121778069F5
:101EA000800703D02046FFF7E9FF05E0204600F059
:101EB0008FF8204600F0F0F900202077700719D540
:101EC00015F0040016D020686FF0040101610221B2
:101ED0002177806910F4407F04D02046FFF7CEFFC1
:101EE00006E000BF204600F073F8204600F0D4F969
:101EF00000202077300717D515F0080014D020688F
:101F00006FF00801016104212177C069800703D0C7
:101F10002046FFF7B3FF05E0204600F059F82046C1
:101F200000F0BAF900202077F00619D515F010005E
:101F300016D020686FF01001016108212177C06977
:101F400010F4407F04D02046FFF798FF06E000BF62
:101F5000204600F03DF8204600F09EF90020207752
:101F6000F00718BF15F0010002D1300609D412E0C5
:101F700020686FF001010161204600F017FA300679
:101F800009D515F0800006D020686FF0800101614E
:101F90002046FFF73FFD700609D515F0400006D03A
:101FA00020686FF040010161204600F009FAB00698
:101FB00058BF70BD15F0200008D021686FF02002D6
:101FC00020460A61BDE87040FFF726BD70BD0000E5
:101FD0007047000090F83C30012B04BF022070478E
:101FE0004FEAB202032A00F2FF802DE9F043DFE856
:101FF00002F003B13F7F00BF036840F200461C6A55
:102000001A6A24F0020422F001021A621A46D3F876
:1020100004C052F818EF8F6843F48065C4F20106DB
:10202000B54244EA070405D1CF6824F00C0427F038
:1020300004073C430F68B54206D1D1E905582CF49A
:1020400040762E4346EA080C2EF073063743C3F859
:1020500004C09F614F6809695F631C629F6947F014
:1020600008079F619F6927F004079F61B1E000BFE7
:10207000036840F200481C6A1A6A24F4007422F4CF
:1020800080721A621A46D3F804C052F81CEF8F68A7
:1020900043F48065C4F20108454544EA072408D1A9
:1020A000CF6840F2FF463F0224F4406427EA060668
:1020B0003443D1F80090454506D1D1E905562CF4BA
:1020C00040572E4347EA061C2EF0730747EA0907DC
:1020D000C3F804C0DF614F680969DF631C62DF6910
:1020E00047F00807DF61DF6927F00407DF6170E070
:1020F000036840F20045D3F820C01A6A43F48067B1
:1021000022F480521A621A465C6852F81C8FD1F889
:1021100000E08E68C4F20105AF4204D14D6924F499
:10212000804444EA85142CF4005747EA063728F423
:10213000E64646EA0E265C60DE614E6809691E646A
:102140001F62DF6947F40067DF61DF6927F480679A
:10215000DF613DE0036840F200481C6A1A6A24F01F
:10216000200422F010021A621A46D3F804C052F872
:1021700018EF8F6843F48065C4F20108454544EACE
:10218000071407D1CF686FF0400624F0C00406EAB8
:1021900007163443D1F80090454506D1D1E90556DC
:1021A0002CF440672E4347EA860C2EF4E64747EAB4
:1021B0000927C3F804C09F614F6809699F631C62C7
:1021C0009F6947F400679F619F6927F480679F615B
:1021D00009021368194311600021BDE8F043002291
:1021E00080F83C20084670470121002280F83C20FE
:1021F00008467047002804BF0120704710B5044608
:1022000090F83D0028B9002084F83C00204600F0FA
:102210001FF8022084F83D002068211D01F09AF982
:10222000012084F8460084F83E0084F83F0084F8DA
:10223000400084F8410084F8420084F8430084F8A8
:10224000440084F8450084F83D00002010BD0000E3
:10225000006840F20041C4F20001884218BF704794
:1022600080B582B00020019043F64000C4F2020025
:102270000168002241F0020101600068002100F0C5
:102280000200019001981D20FFF78CF81D2002B07C
:10229000BDE88040FFF774B870470000C1B1042961
:1022A00008D0082914BF41224022825C012A05D0AF
:1022B00016E000BF3F22825C012A11D102220829C8
:1022C00010D0042914BF80F8412080F83F200BE093
:1022D00090F83E20012A03D1022280F83E2003E03C
:1022E0000120704780F84020006801F01F010122A2
:1022F000036A02FA01F123EA01020262026A11434F
:1023000041F2FF72C4F20002904201620CDC40F222
:10231000FF71C4F20001884214DCB0F1804F37D065
:1023200040F2004116E000BF40F2FF31C4F201016B
:10233000884215DC41F60001C4F20001884227D032
:10234000002115E040F60001C4F2000188421FD0D0
:1023500040F60041C4F20001884219D01FE000BFDE
:1023600044F20001C4F20101884211D040F2004160
:10237000C4F20101884212D1416C40F2004340F4A2
:102380008062C4F2010341F400419A42416406D1E3
:10239000816801F00701062904BF00207047016829
:1023A00041F001010160002070470000006841F227
:1023B0000001C4F20001884218BF7047FEF740BB1D
:1023C000704700007047000070470000B0B582B051
:1023D00001680A68CC684B6902F02F05202D04F0D3
:1023E000200505D125B102B0BDE8B04001F0D0BA5A
:1023F0005FEA027C1EBF03F0010E04F4907313EB3E
:102400000E0341D1036BD50618D5012B16D114F05C
:10241000100313D0002201920A6801924A680192C7
:10242000019A496949064BD4818DC28DC38D002B19
:1024300018BF914240F0068202B0B0BD13062DD500
:1024400014F080032AD090F84120212AF4D1826828
:10245000B2F5805F03D10269002A00F07982026A36
:10246000531C036212784A60C28C013A1304C2847E
:10247000E2D1C86820F08000C860C86840F0400021
:10248000C86002B0B0BD00BFD30718BF14F480739A
:1024900040F0E280530700F1E580EAE05206CBD538
:1024A00014F04002C8D0CA6822F04002CA6020215D
:1024B00080F8411002B0BDE8B04000F005BD00BF9B
:1024C000C26B11684B68858D99B2002900F0B48009
:1024D000A94280F0B180C385D169B1F5807F00F059
:1024E000A080016851E8031F026821F4807142E86E
:1024F0000313DBB1016851E8031F026821F4807106
:1025000042E8031393B1016851E8031F026821F404
:10251000807142E803134BB1016851E8031F026860
:1025200021F4807142E80313002BDAD1016851E8ED
:10253000051F026821F0010142E80513BBB30168E1
:1025400051E8051F026821F0010142E8051373B349
:10255000016851E8051F026821F0010142E80513F6
:102560002BB3016851E8051F026821F0010142E820
:102570000513002BDAD11AE0016851E8051F026843
:1025800021F0400142E80513DBB1016851E8051F65
:10259000026821F0400142E8051393B1016851E857
:1025A000051F026821F0400142E805134BB10168A4
:1025B00051E8051F026821F0400142E80513002B95
:1025C000DAD1202180F8421000210163016851E82E
:1025D000031F026821F0100142E80313DBB1016818
:1025E00051E8031F026821F0100142E8031393B180
:1025F000016851E8031F026821F0100142E803134B
:102600004BB1016851E8031F026821F0100142E854
:102610000313002BDAD1C16B04460846FEF72AFBF0
:10262000204602214163818DC28D891A89B202B090
:10263000BDE8B040FFF7C6BE8D427FF4FDAED26963
:10264000B2F5807F7FF4F8AE0222426302B0BDE8AB
:10265000B040FFF7B7BE00BF436C43F001034364D3
:10266000530706D5BEF1000F03D0436C43F00203BD
:102670004364930706D5BEF1000F03D0436C43F0CB
:1026800004034364BCF1000F06D55EEA050303D0E2
:10269000436C43F008034364436C002B3FF4CCAE1F
:1026A000920605D525B1044601F072F9216820464D
:1026B0004969426C01F0400102F00802891800F0FB
:1026C000B98000BF016851E8031F026821F49071CE
:1026D00042E80313BBB3016851E8031F026821F409
:1026E000907142E8031373B3016851E8031F026855
:1026F00021F4907142E803132BB3016851E8031FE2
:10270000026821F4907142E80313002BDAD11AE039
:10271000016851E8051F026821F0010142E8051334
:10272000DBB1016851E8051F026821F0010142E8B0
:10273000051393B1016851E8051F026821F00101FA
:1027400042E805134BB1016851E8051F026821F00A
:10275000010142E80513002BDAD1016B012924D1D4
:10276000016851E8031F026821F0100142E80313D9
:10277000DBB1016851E8031F026821F0100142E853
:10278000031393B1016851E8031F026821F010019F
:1027900042E803134BB1016851E8031F026821F0BE
:1027A000100142E80313002BDAD1202180F84210F7
:1027B0000021016301684969490640F1C38001684D
:1027C00051E8051F026821F0400142E80513DBB122
:1027D000016851E8051F026821F0400142E8051335
:1027E00093B1016851E8051F026821F0400142E8F9
:1027F00005134BB1016851E8051F026821F0400143
:1028000042E80513002BDAD1C16B002900F09A8051
:1028100043F29162C0F60002044608460A65FEF7DC
:1028200071FA00283FF408AEE06B016D02B0BDE81C
:10283000B04008470446FFF7C7FD0020606402B0BF
:10284000B0BD00BF891A00BF026852E8032F0368B9
:1028500022F4907243E80325BDB3026852E8032FC7
:10286000036822F4907243E8032575B3026852E8C6
:10287000032F036822F4907243E803252DB3026806
:1028800052E8032F036822F4907243E80325002DD9
:10289000DAD11AE0026852E8052F036822F001023B
:1028A00043E80525DDB1026852E8052F036822F0F0
:1028B000010243E8052595B1026852E8052F036837
:1028C00022F0010243E805254DB1026852E8052FC8
:1028D000036822F0010243E80525002DDAD1202209
:1028E00080F8422000220263026852E8032F036846
:1028F00022F0100243E80325DDB1026852E8032FFD
:10290000036822F0100243E8032595B1026852E8FB
:10291000032F036822F0100243E803254DB102683B
:1029200052E8032F036822F0100243E80325002D2C
:10293000DAD1022289B2426302B0BDE8B040FFF7AB
:1029400041BD00BF02B0BDE8B040FFF73DBD00BFD4
:10295000026A32F8023B6FF35F234B60026283E549
:10296000002804BF0120704710B5044690F84100CC
:1029700028B9002084F84000204600F021F82420E7
:1029800084F841002068C16821F40051C1602046EC
:1029900001F07EF82068016921F4904101614169EC
:1029A00021F02A014161C16841F40051C160002059
:1029B0002021606484F8411084F84210606310BDE7
:1029C0002DE9F04387B00446006844F60001C4F2E4
:1029D000000100268842CDE90566CDE9036602962E
:1029E00032D041F20001C4F20101884240F09C80E3
:1029F000002043F630010190C4F202014A6942F01E
:102A000010024A614A6902F010020192019A019093
:102A10000A6842F001020A60096801F001010191AF
:102A200001994FF4C06102910221CDE90310032006
:102A30000590072006900020C4F2020002A9FEF7CC
:102A400059FB252468E000BF43F630000196C4F22C
:102A50000200016946F2280841F480210161016900
:102A6000C4F2020801F480210191019901960168E4
:102A700041F002010160006802A900F0020001902B
:102A800001984FF4406002900220CDE90306032034
:102A90000590072006900020C4F2020000F5806037
:102AA000FEF728FB41F2B825C2F200054FF4807012
:102AB0004FF000674FF48069C5E906602846C5E914
:102AC0000087C5E90266C5E90496C5E90866FEF710
:102AD0000DFA002818BFFEF7C9F8E563AC6341F2B0
:102AE000183508F13000C2F200054021C5E90007A1
:102AF00005F10800002280E806022846C5E9052203
:102B0000C5E907226A62FEF7F1F9002818BFFEF74F
:102B1000ADF8A563AC632724204600210022FEF710
:102B200041FC2046FEF72CFC07B0BDE8F083000016
:102B300070B582B090F84250202D0BD113460A4652
:102B40000146002A4FF0010018BF002B06D102B049
:102B500070BD00BF022002B070BD00BF0026222061
:102B60000E638A628B854E6481F842000C680D46C4
:102B7000C86B43F6190C43F67911C0F6000CC0F689
:102B80000001C0E90FC143F29D61C0F60001C0E938
:102B90001316211DFEF75CFA40B110206864202056
:102BA00085F84200012002B070BD00BF0196286880
:102BB000294602680192406801900198286928B36B
:102BC000086850E8030F0A6840F4807042E8030385
:102BD000E3B1086850E8030F0A6840F4807042E8E7
:102BE00003039BB1086850E8030F0A6840F4807043
:102BF00042E8030353B1086850E8030F0A6840F441
:102C0000807042E80303002BDAD100BF086850E867
:102C1000050F0A6840F0010042E80503DBB30868CD
:102C200050E8050F0A6840F0010042E8050393B33D
:102C3000086850E8050F0A6840F0010042E8050303
:102C40004BB3086850E8050F0A6840F0010042E8FD
:102C50000503002BDAD11EE0086850E8050F0A686A
:102C600040F0400042E80503FBB1086850E8050F5A
:102C70000A6840F0400042E80503B3B1086850E834
:102C8000050F0A6840F0400042E80503002B4FF0B2
:102C900000003FF45CAF086850E8050F0A6840F098
:102CA000400042E80503002BD6D1002002B070BDE1
:102CB00090F84230202B07D100294FF0010318BFB4
:102CC000002A05D11846704702231846704700BFF6
:102CD00000230363816222218285C285436480F8D8
:102CE00042100169006819B1C16841F48071C16086
:102CF000416941F001014161C16841F02001C160B9
:102D000018467047006841F20001C4F20101884290
:102D100018BF704741F2402141F29840C2F20001D1
:102D20000123C2F2000001224B70FFF7C1BF000077
:102D3000704700002DE9F04381B0044690F841004F
:102D4000202809D100294FF0010018BF002A07D11F
:102D500001B0BDE8F08300BF022001B0BDE8F08300
:102D60000020606421201D460E4684F8410017466D
:102D7000FEF796FAA784E784A1688146B1F5805FE3
:102D800002D1206900285DD037460020E28C2168FE
:102D9000002A5DD06A1C24D0002D4AD0804600BF96
:102DA0000868000608D4FEF77BFAA0EB0900A842E9
:102DB0007AD82168C868F3E717B117F8010B04E067
:102DC00038F8020B00276FF35F204860E08C013871
:102DD000E084E08C0028E3D13AE000BF0A681206E4
:102DE00009D40A68120606D40A6812065CBF0A688B
:102DF0005FEA0262F2D51FB117F8012B05E000BFB0
:102E000030F8022B00276FF35F224A60E28C013A10
:102E1000E284E28C002AE4D11AE000BF30F8022BF1
:102E200000276FF35F224A60E28C013AE284E28C71
:102E300072B10A68120635D5002FEFD017F8012BB2
:102E4000F1E700BF00273046E28C2168002AA1D1BB
:102E5000086840061ED42DB3681C14D108684006CB
:102E60002AD40868400627D40868400624D4086895
:102E700040064FF00000F1D50DE000BF2068C168AA
:102E80000068400618D4FEF70BFAA0EB0900A84230
:102E9000F4D909E00020202184F8411001B0BDE8F8
:102EA000F08300BFFEF7FCF90320202184F84110D5
:102EB00001B0BDE8F08300BF0020202184F841105C
:102EC00001B0BDE8F083000070470000FEE700009D
:102ED0007047000080B582B00020019043F63000BA
:102EE000C4F202000168002241F400110160006890
:102EF000002100F40010019001980C20FEF752FA16
:102F00000C20FEF73DFA0E2000210022FEF74AFABF
:102F10000E2002B0BDE88040FEF732BA2DE9F04F36
:102F200087B0002443F630000694CDE90444CDE98F
:102F300002440194C4F20200016840F2004841F0EA
:102F4000100101600168C4F2020801F01001019152
:102F500001990194016808F5805541F00401016070
:102F60000168012201F004010191019901940168B5
:102F70004FF0010941F020010160016801F02001DA
:102F8000019101990194016841F08001016001689B
:102F900001F08001019101990194016841F0020161
:102FA0000160016801F00201019101990194016839
:102FB00041F00101016000684FF4007100F0010070
:102FC000019001982846FEF765F908F580663046BD
:102FD000302100224FF0300AFEF75CF940464FF4F2
:102FE000404100224FF4404BFEF754F9102002A953
:102FF00002AF81E8110208F540603946FEF77AF821
:103000004FF40070CDE9020928463946CDE9044461
:10301000FEF770F830463946CDE902A9CDE90444FF
:10302000FEF768F840463946CDE902B9CDE90444D7
:10303000FEF760F807B0BDE8F08F000080B58CB0F7
:1030400041F278300021C2F200004FF08042C0E926
:10305000002103224FF0FF33CDE903210122CDE906
:103060000011C0E9021301618161CDE90521CDE9BB
:103070000711CDE909210B9103A9FEF7D5FD002821
:1030800018BFFDF7F3FD41F27830C2F20000694647
:10309000FEF7C4FC002818BFFDF7E8FD0CB080BDAA
:1030A000B0B590B040F2004541F2C030C4F2000526
:1030B0000021C2F2000029226323CDE90811CDE9E5
:1030C0000611CDE90411C0E90052C0E90213016103
:1030D0008161FFF78FF8002818BFFDF7C7FD41F2A7
:1030E000C030C2F2000008A9FEF798FC002818BF03
:1030F000FDF7BCFD602001900020CDE902000590A5
:1031000041F2C030C2F2000001A90822FEF762FFBE
:10311000002818BFFDF7AAFD41F2C034C2F2000436
:1031200001A920460C22FEF755FF002818BFFDF725
:103130009DFD21680020A9420F90CDE90D000C9063
:103140000B9001D010B0B0BD43F630010A90C4F22C
:1031500002010A6842F002020A60096801F00201F5
:103160000A910A9903210B910221CDE90C10CDE9B6
:103170000E0105F500300BA9FDF7BCFF10B0B0BD86
:1031800080B58CB041F2084040F600020021C2F246
:103190000000C4F20002C0E9002103224FF6FF73D1
:1031A000CDE903210122CDE90011C0E9021301613B
:1031B0008161CDE90521CDE90711CDE909210B9107
:1031C00003A9FEF731FD002818BFFDF74FFD41F2BE
:1031D0000840C2F200006946FEF720FC002818BF34
:1031E000FDF744FD0CB080BD80B582B041F2504087
:1031F00041F200020021C2F20000C4F20002532397
:1032000040F2E73CCDE90011C0E90023C0E9021C0F
:103210008161FEF761FC002818BFFDF727FD41F230
:103220005040C2F200006946FEF7F8FB002818BFC4
:10323000FDF71CFD02B080BD80B541F2984041F21F
:103240000001C2F20000C4F2010100234FF00C0C97
:103250004FF4E13280E80E00C0E90333C0E905C352
:10326000C361FFF77DFB002808BF80BDBDE880403B
:10327000FDF7FCBC80B541F2E04044F60001C2F22B
:103280000000C4F2000100234FF00C0C4FF4E132B7
:1032900080E80E00C0E90333C0E905C3C361FFF74E
:1032A0005FFB002808BF80BDBDE88040FDF7DEBCA5
:1032B000FEE7000010B541F2C034C2F2000420461F
:1032C0000821FEF7EBFF20460C21FEF7E7FF41F255
:1032D0000840C2F200003C21FEF772FD41F2783056
:1032E000C2F200003C21BDE81040FEF769BD0000BD
:1032F000B0B56428054640F60004A8BF642515F162
:10330000640FC4F20204D8BF6FF0630500282046A2
:103310004FF0100108D40022FDF7BCFF2046202109
:103320000122FDF7B7FF08E00122FDF7B3FF2046B9
:1033300020210022FDF7AEFF6D4241F2C030C2F203
:10334000000000680564B0BDB0B56428054640F2D1
:103350000044A8BF642515F1640FC4F20204D8BF6D
:103360006FF06305002820464FF480410AD4002204
:10337000FDF790FF20464FF400410122FDF78AFF40
:103380000AE000BF0122FDF785FF20464FF400410F
:103390000022FDF77FFF6D4241F2C030C2F2000013
:1033A0000068C563B0BD0000FEE7000000F10C013D
:1033B00081EC030A0021C0ED091A80ED0A2AC0E958
:1033C00006110162C0E900118160704790ED042A86
:1033D00090ED061AB5EE402A80EC020A30EE600A43
:1033E000F1EE10FA80ED060A80ED071A04D090ED98
:1033F000083A30EE033A01E09FED163A90ED034AA9
:1034000090ED055A80ED083A22EE033A24EE004A88
:1034100030EE410A90ED092A34EE033A25EE000A17
:1034200030EE030AB4EE420AF1EE10FA80ED020A21
:10343000C4BF80ED022AB0EE420A90ED0A1AB4EE43
:10344000410AF1EE10FABCBF80ED021AB0EE410A5B
:10345000704700BF00000000704700007047000088
:1034600041F2984041F24021C2F20000C2F2000154
:103470000122FFF71DBC0000FDF718BF70B592B028
:1034800006AC20463021FDF7DBF8002543F640006E
:103490000595CDE90355CDE901550095C4F202002B
:1034A0000168022641F080510160006800F0805000
:1034B0000090009847F200000095C4F200000168F7
:1034C00041F480410160006800F480400090009861
:1034D000012006904FF4803007904FF480000D904B
:1034E00008200E904FF4A870CDE90F06042011902B
:1034F00020460C96FEF7A2F810B172B6FEE700BFA8
:103500000F20CDE901064FF4A05004904FF48050F5
:10351000059001A805210395FDF780FF10B172B653
:10352000FEE700BF12B070BD4EF68850CEF200002C
:10353000016841F4700101607047000041F2C03041
:10354000C2F20000FEF79CBC41F25040C2F2000003
:10355000FEF796BCB0B540F6FF3E0568C4F2000E1B
:1035600040F2004C7045C4F2010C25DCB0F1804FF4
:103570002FD040F20043C4F20003984229D040F615
:103580000003C4F20003984223D041F6FF73C4F253
:103590000003984228DC70453ADCB0F1804F5BD0E4
:1035A00040F20043C4F20003984255D040F60003B5
:1035B000C4F200034EE000BF40F60043C4F2000333
:1035C000984206D0604504D00023C4F2010398421B
:1035D000DBD14B6825F0700243EA020541F6FF7328
:1035E000C4F200039842D6DD43F6FF73C4F2010330
:1035F00098421FDC42F20003C4F2000398422BD031
:103600000023C4F20103984226D0604524D028E06C
:1036100040F60043C4F2000398421DD041F6000377
:10362000C4F20003984217D041F60043C4F20003ED
:1036300010E000BF44F20003C4F2010398420BD033
:1036400044F60003C4F20103984205D044F200435B
:10365000C4F20103984204D1CB6825F4407243EAD6
:1036600002050A688C684B69C46240F48064826217
:10367000644504BF09690163026825F0800142F0D6
:10368000040219430260012242610160B0BD0000E2
:10369000806B0021C185FEF797BE0000806B01683A
:1036A0004A6990F84130212B2DD112F080022AD0A6
:1036B0000021C184016851E8031F026821F0C001A4
:1036C00042E80313DBB1016851E8031F026821F0EF
:1036D000C00142E8031393B1016851E8031F026877
:1036E00021F0C00142E803134BB1016851E8031F08
:1036F000026821F0C00142E80313002BDAD1202137
:1037000080F841100168496990F84220222A40F06F
:103710007D8011F0400179D00021C185016851E818
:10372000031F026821F4907142E80313BBB30168E0
:1037300051E8031F026821F4907142E8031373B348
:10374000016851E8031F026821F4907142E80313F5
:103750002BB3016851E8031F026821F4907142E81D
:103760000313002BDAD11AE0016851E8051F026843
:1037700021F0010142E80513DBB1016851E8051FA2
:10378000026821F0010142E8051393B1016851E894
:10379000051F026821F0010142E805134BB10168E1
:1037A00051E8051F026821F0010142E80513002BD2
:1037B000DAD1016B012924D1016851E8031F0268A5
:1037C00021F0100142E80313DBB1016851E8031F47
:1037D000026821F0100142E8031393B1016851E837
:1037E000031F026821F0100142E803134BB1016886
:1037F00051E8031F026821F0100142E80313002B77
:10380000DAD1202180F8421000210163416C41F09F
:1038100010014164FEF7D8BD0168806B0968C905D5
:1038200000F19F800021C185016851E8031F0268F3
:1038300021F4807142E80313E3B1016851E8031FEA
:10384000026821F4807142E803139BB1016851E8DA
:10385000031F026821F4807142E8031353B1016829
:1038600051E8031F026821F4807142E80313002B22
:10387000DAD100BF016851E8051F026821F001019B
:1038800042E80513BBB3016851E8051F026821F047
:10389000010142E8051373B3016851E8051F02688E
:1038A00021F0010142E805132BB3016851E8051F1F
:1038B000026821F0010142E80513002BDAD11AE079
:1038C000016851E8051F026821F0400142E8051334
:1038D000DBB1016851E8051F026821F0400142E8B0
:1038E000051393B1016851E8051F026821F04001FA
:1038F00042E805134BB1016851E8051F026821F049
:10390000400142E80513002BDAD1202180F8421053
:10391000016B012925D100BF016851E8031F02682E
:1039200021F0100142E80313DBB1016851E8031FE5
:10393000026821F0100142E8031393B1016851E8D5
:10394000031F026821F0100142E803134BB1016824
:1039500051E8031F026821F0100142E80313002B15
:10396000DAD100214163016B012918BFFFF7CAB901
:10397000818DFEF727BD0000806B01214163016B43
:10398000012918BFFFF7D4B9818D4908FEF71ABD88
:1039900081B090F84210222921D183680246B3F504
:1039A000805F09D152F8281F52F8183C002B63D0D1
:1039B00003685B680AE000BF52F8281F13B9036967
:1039C000002BF5D003685B6803F07F030B70116870
:1039D00001311160C18D01390A04C18502D001B0E5
:1039E000704700BF0168CA6822F02002CA60CA6836
:1039F00022F48072CA604A6922F001024A612021E1
:103A000080F8421000214163026B012A3CD101631E
:103A1000016851E8031F026821F0100142E8031316
:103A2000DBB1016851E8031F026821F0100142E890
:103A3000031393B1016851E8031F026821F01001DC
:103A400042E803134BB1016851E8031F026821F0FB
:103A5000100142E80313002BDAD101680A68D2068C
:103A600006D5002200920A680092496800910099E8
:103A7000818D01B0FEF7A6BC026852686FF35F2229
:103A800021F8022B8162A5E701B0FFF73BB90000E6
:103A9000B0B50446006804F108030ECB056919436C
:103AA00025F440552A4302616269E3691143C26803
:103AB000194349F20C639A431143C1604169A269F9
:103AC00021F4407141F20043114340F48062C4F29A
:103AD00001039A42416103D1FDF766FD02E000BF98
:103AE000FDF74EFDE1694FF69C7563681922C0F63B
:103AF000FF75B1F5004FA0FB02011FD15A00DB0F8B
:103B0000FCF74EFC48F21F51C5F2EB11A0FB01235C
:103B10005A0905F1805302FB0300322303EBC00076
:103B2000A0FB01014FF4F87000EA111000EB021045
:103B3000C1F34211084421688860B0BD9A009B0F10
:103B4000FCF72EFC48F21F51C5F2EB11A0FB01233C
:103B50005A0902FB0500322303EB0010A0FB010110
:103B6000F02000EA511000EB0210C1F343110844A9
:103B700021688860B0BD000041F29840C2F20000A8
:103B8000FEF724BC41F2E040C2F200000068016888
:103B9000C9060DD580B582B000210191016801915F
:103BA00040680190019802F08BFA02B0BDE88040B5
:103BB00041F2E040C2F20000FEF708BCFEE7000060
:103BC00010B52DED028B90ED040B90ED108B51ECA8
:103BD000100B02F0B9FF41F2B024C2F200042060E1
:103BE00051EC180B02F0B0FF6060BDEC028B10BD11
:103BF000024648680B68C2E90230C8688B68C2E9AF
:103C0000043048690B69C2E90630C86989695062A5
:103C1000202011627047000000A0704761373739DB
:103C20003837396661646630313630373334663957
:103C30003036623863313963373030340000000089
:103C400000A0704767656F6D657472795F6D73670B
:103C5000732F5175617465726E696F6E000000009C
:103C60002DE9F041044604300D4601F045FA29588B
:103C7000021D5618B24233D211F00308A1F1010C13
:103C80001CD0AB5CAF18B8F1010F00F1050E07F8BE
:103C9000013C14D015F80E3005EB0E07B8F1020FF9
:103CA00000F1060E07F8013C09D015F80E3005EBBF
:103CB0000E0700F1070E07F8013C00E09646BCF144
:103CC000030F0DD308440EEB0503A0EB0E00043BDD
:103CD000043000BF53F8041F043843F8011CF9D125
:103CE000A919002001F8010CA8180138A06104F1FD
:103CF000200000F0A1F93044BDE8F08100A0704739
:103D0000623537363461333362666562333538384D
:103D1000666562633236383238353235373962306B
:103D20000000000000A0704767656F6D65747279D0
:103D30005F6D7367732F5472616E73666F726D532C
:103D400074616D7065640000F0B581B0074608309D
:103D50000D4600F0C3F84FF6E0612A18CFF6FF7168
:103D60005518D5F82041D5F824617B18C3E95E4683
:103D7000D5F82C61D5F828413031C3E96046D5F833
:103D80003461D5F83041C3E96246D5F83C61D5F8D5
:103D90003841C3E96446D5F84461D5F84041C3E9E8
:103DA0006646D5F84C61D5F84851C3F8A461C3F80C
:103DB000A051D5D1084400F5907001B0F0BD0000CD
:103DC00000A0704763323365383438636631623738
:103DD00035333361386437633235393037336139DD
:103DE000376536660000000000A0704767656F6D9C
:103DF000657472795F6D7367732F506F7365576960
:103E00007468436F76617269616E636500000000DB
:103E1000B0B5054608300C4600F0C2F84FF6E06237
:103E200005F1500C04EB000ECFF6FF720EEB02040E
:103E3000D4F82011D4F824310CEB0205C5E948135D
:103E4000D4F82C11D4F828313032C5E94A31D4F8ED
:103E50003411D4F83031C5E94C31D4F83C11D4F8E0
:103E60003831C5E94E31D4F84411D4F84031C5E9B0
:103E70005031D4F84C11D4F84831C5F84C11C5F87C
:103E80004831D3D1104400F59070B0BD00A0704708
:103E9000316665386132386536383930613463638C
:103EA0003361653463336361356337643832653653
:103EB0000000000000A0704767656F6D657472793F
:103EC0005F6D7367732F54776973745769746843B0
:103ED0006F76617269616E63650000000246486832
:103EE0000B68C2E90430C8688B68C2E906304869CB
:103EF0000B69C2E90830C8698B69C2E90C30486AAD
:103F00000B6AC2E90E30C86A8B6AC2E91030486B8E
:103F1000096BD064382091647047000000A070479E
:103F200065343564343561356131636535393762FF
:103F3000323439653233666233306663383731661E
:103F40000000000000A0704767656F6D65747279AE
:103F50005F6D7367732F506F73650000024648688A
:103F60000B68C2E90230C8688B68C2E9043048694E
:103F70000969D061182091617047000047F6700010
:103F8000C0F600007047000000A0704767656F6DC5
:103F9000657472795F6D7367732F506F696E74000B
:103FA000024648680B68C2E90430C8688B68C2E9F9
:103FB000063048690B69C2E90830C8698B69C2E9F3
:103FC0000C30486A0B6AC2E90E30C86A896A5064CC
:103FD000302011647047000047F69100C0F60000E1
:103FE0007047000047F6C400C0F6000070470000AC
:103FF000024648680B68C2E90230C8688B68C2E9AB
:10400000043048690969D061182091617047000047
:1040100047F67000C0F600007047000000A070472F
:1040200067656F6D657472795F6D7367732F566521
:1040300063746F7233000000024648680B68C2E97F
:104040000430C8688B68C2E9063048690B69C2E968
:104050000830C8698B69C2E90C30486A0B6AC2E94A
:104060000E30C86A8B6AC2E91030486B096BD064A5
:10407000382091647047000000A070476163396583
:10408000666634346162663731343231343131320C
:104090006230356435346133636639620000000094
:1040A00000A0704767656F6D657472795F6D7367A7
:1040B000732F5472616E73666F726D002DE9F04755
:1040C00005460C6840688846844207D9E868A10024
:1040D000FCF704F9E8606C6002E000BF6C605CB360
:1040E00000206FF0030100BF08EB010208EB800322
:1040F0005F79167A9B79D27A46EA072747EA034323
:1041000043EA0262EB68AA6043F820206A68013043
:10411000904201F10401E7D301F1080658F8064086
:10412000286984420ED9A869A100FCF7D7F8A861D4
:104130002C61301D0AE000BF042658F806402869AB
:104140008442F0D806F104002C618CB108F1010121
:10415000002200BF0B1853F8013CAF696B6147F8B0
:1041600022302B6901329A4200F10400F2D3061F7B
:1041700058F80040E8690836844207D9686AA10007
:10418000FCF7ACF86862EC6103E000BF002CEC6166
:104190004ED0A8F10109A8F1040C4FF0000E002246
:1041A0000FE000BF09F800E009EB03016B6A296228
:1041B00043F82210E96901328A42064628BFBDE869
:1041C000F08758F80670331DF8188342EAD217F0CA
:1041D000030A1BD018F8034008EB030101F8014C57
:1041E000BAF1010F06F1050411D018F80410444487
:1041F00004F8011CBAF1020F06F1060407D018F802
:104200000410444404F8011CF41D00E01C46791E0F
:104210000329C7D33E440CEB0401341B043400BF14
:1042200051F8046F043C41F8016CF9D1BAE700BFC2
:104230003046BDE8F087000000A070473966306561
:1042400039386264613635393831393836646466F4
:104250003533616661376134306534390000000000
:1042600047F2A060C0F60000704700002DE9F04161
:104270000E4609783546017115F8041F804615F879
:10428000030C15F8022C15F8013C40EA022747EA16
:10429000034747EA0164671D062F0BD34FEA022C40
:1042A0001B040A061A4342EA0C02711D0243284607
:1042B000FCF752F93019002101713846C8F808504E
:1042C000BDE8F08100A0704731316162643733315D
:1042D00063323539333332363163643631383362E1
:1042E00064313264363239350000000000A0704776
:1042F000726F7373657269616C5F6D7367732F4C56
:104300006F6700002DE9F04F83B00D4609788146B4
:10431000818068782E4641EA0020A9F8040016F84A
:10432000050F16F803BC16F8021C16F8012C4FEA0C
:1043300001284BEA012141EA024141EA0067791E66
:10434000140411F1080F4FEA006A09D84AEA040080
:1043500040EA0800A91D40EA0B023046FCF7FCF8D1
:10436000E8194FF0000C80F805C0C9F80860CDE9E5
:104370000148D0F8068007F10A0308EB03018B42DD
:1043800032D218F00306A8F1010E17D0E85CEA1843
:1043900002F8010C012E07F10B0210D0A85C2A4490
:1043A00002F8010C022E07F10C0208D0A85C2A4486
:1043B00002F8010C07F10D0201E000BF1A46BEF140
:1043C000030F11D35019019E071F08EB0A00304458
:1043D000029E30445844801A0A3000BF57F8042F18
:1043E000043847F8012CF9D1681800F801CCE81816
:1043F0000138C9F80C006F580B1DFA18934233D2DC
:1044000017F0030EA7F1010C18D0EE5CE81800F8C5
:10441000016CBEF1010F01F1050610D0A85D2E441C
:1044200006F8010CBEF1020F01F1060607D0A85DE7
:104430002E4406F8010CCE1D01E000BF1E46BCF163
:10444000030F11D37019011F08EB0700019F50449F
:104450003844029F38445844801B0E3051F8047F82
:10446000043841F8017CF9D1A818002100F8011C9A
:10447000E8180138C9F81000A958101DC9F814101F
:1044800003B0BDE8F08F000000A0704730616435D4
:1044900031663838666334343839326638633130DF
:1044A0003638343037373634363030350000000097
:1044B00000A07047726F7373657269616C5F6D7392
:1044C00067732F546F706963496E666F0000000058
:1044D0002DE9F04F83B082460C6840680D46844257
:1044E0000CD9DAF87800C4EBC4010901FBF7F6FE39
:1044F000CAF87800CAF8044004E000BF002CCAF8EB
:1045000004406DD00AF10C000AF1080602900AF18D
:104510002809E81E04244FF0000B01901FE000BFA3
:1045200007EB0801002001F8010CB8180138CAF89F
:1045300020004846FFF780FD08EB04010C18DAF86C
:104540007800CBEBCB0100EB011031467022FCF779
:1045500045F8DAF804000BF1010B834541D22F191D
:104560000298394600F0C8FD3958021D02EB0108D7
:104570004245D5D2B64611F003061BD0BB5CAC4613
:10458000BD1805F8013C012E00F105030CD0FD5CBF
:104590003B4403F8015C022E00F1060304D0FE5CEC
:1045A0003B4403F8016CC31D65464E1E032E764640
:1045B000B6D304E013464E1E032E7646B0D308440D
:1045C000C01A1919019B0430194400BFD1F80330F7
:1045D0000438C1F8023001F10401F7D1A0E700BFAF
:1045E0000424204603B0BDE8F08F000000A070470F
:1045F000393438313065646461353833613530348D
:1046000064666461333832396537306437656563B1
:104610000000000000A0704774662F74664D65733B
:10462000736167650000000047F6C400C0F6000033
:1046300070470000C06D7047B0B500F1100504462A
:104640002846FFF7ADFCA16D2846BDE8B0400847FD
:1046500047F69100C0F60000704700002DE9F041D8
:1046600086B0044647F2C470C0F6000008300090DF
:1046700047F6D700C0F60000CDE90300002040F265
:1046800007364FF480676D46059003E00136B6F5B6
:10469000487F1FD054F826100029F7D0D1E9002018
:1046A0008968036802929A68ADF80410904754F83C
:1046B0002610039049680A680846D2689047CDE9F9
:1046C000040754F8260022680169136820462A4628
:1046D0009847DBE74FF4487640F239374FF480686B
:1046E0006D4602E00136BE4222D054F82600002872
:1046F000F8D08268D0E9001302928968ADF80430DE
:10470000884754F8261003900A680846D2689047F4
:1047100054F8261004900868CDF8148042680846C2
:10472000904721682A460B68014620469847D9E7FA
:10473000012084F8F80C06B0BDE8F0812DE9F047BF
:1047400084B00E466429814608DB99F8F80C28B934
:104750000024204604B0BDE8F08700BF106809F6C9
:1047600023010368104609F61C0898474FF6FF61BD
:10477000A9F81C18010A89F81F1800EB1021C94379
:1047800089F82018310A10F1020F00F1070E89F89C
:104790001E0889F8216889F8221811DD7346BEF1D8
:1047A000060FD8BF06235A1F063B032B02F0030C4B
:1047B0000AD200230522BCF1000F22D12FE000BF56
:1047C000FF2208F80E2030E022F0030209F502660D
:1047D000C2F1000A0022002316F8047F043A16F8FA
:1047E000031C16F8024C16F8015C194421442944B4
:1047F000924501EB0703EFD1C2F10502BCF1000FB6
:104800000DD018F80260BCF1010F334407D04244C8
:104810005678BCF1020F33441CBF92781344DA433C
:10482000B0F57E7F08F80E200EDCD9F8041000F1F8
:104830000804A2B2084641466423FEF77BFA2046EC
:1048400004B0BDE8F08700BF47F2AC70C0F60000CE
:104850000830019003208DF8080007A0D9F8001057
:1048600003900B6801AA4846072198474FF0FF3490
:10487000204604B0BDE8F0874D657373616765201D
:1048800066726F6D206465766963652064726F700F
:104890007065643A206D657373616765206C617241
:1048A000676572207468616E206275666665722E37
:1048B000000000002DE9F04F8BB00446FCF7F0FC3F
:1048C000D4F8001D0546401A42F6F921884224BF5B
:1048D000002084F8F80CD4F8E40C30B1D4F8040DBE
:1048E000854284BF0020C4F8E40C04F60C5002900A
:1048F00004F58260059004F21440049004F54860C9
:10490000039005F11400079047F63800FF27C0F622
:104910000000C8F2000704F1080A04F21C494FF035
:10492000000808304FF0000B00260690D4F8180459
:1049300038B1FCF7B5FCD4F81814401B884200F2DB
:1049400046816068C06B0168D4F808044968494230
:104950006FF39F21884200F00F81411CC4F80814B6
:104960006FF39F211AF80000C4F80814D4F8F41C5F
:10497000D4F8E42C0144082AC4F8F41CD6D8DFE8A3
:1049800002F00F3F192305454D2D5D0001EA070098
:10499000FF2812BFC4F8E48C0520C4F8E40CC5E776
:1049A000FF2840F067800120C4F8E40C0798C4F8A1
:1049B000040DBBE70321C4F8E41CC4F8E80CC4F8F8
:1049C000F08CC4F8F40CB1E7D4F8E81C01EB00203B
:1049D0000421C4F8E41CC4F8E80CA7E7D4F8F01CE0
:1049E0004A1CC4F8F02C09F80100D4F8E80C01388E
:1049F000C4F8E80C7FF49AAF0820C4F8E40C95E7FB
:104A0000FE2841D10220C4F8E40C8FE70621C4F847
:104A1000EC0CC4F8E41CC4F8F40C87E7D4F8EC1CE4
:104A2000D4F8E82C01EB0020C4F8EC0C0720002A95
:104A300008BF0820C4F8E40C78E700BF01EA0700CB
:104A4000FF28C4F8E48C7FF471AFD4F8EC0C0B2889
:104A500000F28280DFE800F0C080808080800680E5
:104A60008080327A02984946FFF728FB012084F8BB
:104A7000080D5BE7FCF714FC401B41F289318842CA
:104A8000FFF454AFA0E000BF94F8F80CC4F8E48C35
:104A900000287FF44BAF0698002108902068099108
:104AA0000A91036820460A2108AA4FF00008984797
:104AB000FCF7F6FBC4F80C0438E700BFFCF7F0FB8A
:104AC000D4F80C14D4F82034401A44F6D351C1F26F
:104AD0006201A0FB0112D4F81C14009393094FF457
:104AE0007A77CDF804B003FB170701EB921BFCF7B4
:104AF000D7FB44F6D351C1F26201A0FB0112910928
:104B00004FF47A735943081A384443F6095148431D
:104B100000996FEA921201EB80104CF60021C3F667
:104B20009A310844C4F81404DDE904105A44FF27FC
:104B3000DDF804B0C8F20007C4F8102400F0ACF9A6
:104B4000FCF7AEFBC4F8000D0126EFE684F8F88C04
:104B50004FF0010BEAE600BF039901EB80004FF62E
:104B60007061CFF6FF71405800283FF4DFAE016856
:104B70000A6849469047D9E694F8F80CB8B1D4F8D9
:104B8000FC0C40F6C511281A884210D306982168FB
:104B90000890002009900A900B6808AA20460A2174
:104BA0009847FCF77DFBC4F80C04C4F8FC5C1BF0D0
:104BB000010018BF6FF00200F10718BF6FF003008B
:104BC0000BB0BDE8F08F00BF002084F8F80C6FF048
:104BD00001000BB0BDE8F08F069821680890002016
:104BE00009900A900B6808AA20460A219847FCF70A
:104BF00057FBC4F80C042046FFF730FDC4F8FC5CFA
:104C0000C4F8005D4FF0FF300BB0BDE8F08F00003E
:104C1000D0F81C2C002A63D0D0F8202C002A61D0B8
:104C2000D0F8242C002A5FD0D0F8282C002A5DD0A0
:104C3000D0F82C2C002A5BD0D0F8302C002A59D088
:104C4000D0F8342C002A57D0D0F8382C002A55D070
:104C5000D0F83C2C002A53D0D0F8402C002A51D058
:104C6000D0F8442C002A4FD0D0F8482C002A4DD040
:104C7000D0F84C2C002A4BD0D0F8502C002A49D028
:104C8000D0F8542C002A47D0D0F8582C002A45D010
:104C9000D0F85C2C002A43D0D0F8602C002A41D0F8
:104CA000D0F8642C002A3FD0D0F8682C002A3DD0E0
:104CB000D0F86C2C002A3BD0D0F8702C002A39D0C8
:104CC000D0F8742C002A37D0D0F8782C002A35D0B0
:104CD000D0F87C2C002A1CBF0020704718222EE040
:104CE00000222CE001222AE0022228E0032226E012
:104CF000042224E0052222E0062220E007221EE012
:104D000008221CE009221AE00A2218E00B2216E011
:104D10000C2214E00D2212E00E2210E00F220EE011
:104D200010220CE011220AE0122208E0132206E011
:104D3000142204E0152202E0162200E0172200F6F9
:104D40001C4343F822107D32C1E902200120704744
:104D500090F8F80C70470000D0F8802C002A63D03F
:104D6000D0F8842C002A61D0D0F8882C002A5FD09B
:104D7000D0F88C2C002A5DD0D0F8902C002A5BD083
:104D8000D0F8942C002A59D0D0F8982C002A57D06B
:104D9000D0F89C2C002A55D0D0F8A02C002A53D053
:104DA000D0F8A42C002A51D0D0F8A82C002A4FD03B
:104DB000D0F8AC2C002A4DD0D0F8B02C002A4BD023
:104DC000D0F8B42C002A49D0D0F8B82C002A47D00B
:104DD000D0F8BC2C002A45D0D0F8C02C002A43D0F3
:104DE000D0F8C42C002A41D0D0F8C82C002A3FD0DB
:104DF000D0F8CC2C002A3DD0D0F8D02C002A3BD0C3
:104E0000D0F8D42C002A39D0D0F8D82C002A37D0AA
:104E1000D0F8DC2C002A35D0D0F8E02C002A1CBFBA
:104E20000020704718222EE000222CE001222AE008
:104E3000022228E0032226E0042224E0052222E0C8
:104E4000062220E007221EE008221CE009221AE0C8
:104E50000A2218E00B2216E00C2214E00D2212E0C8
:104E60000E2210E00F220EE010220CE011220AE0C8
:104E7000122208E0132206E0142204E0152202E0C8
:104E8000162200E0172200F5486040F8221002F1D7
:104E9000640048600120704710B5D1F800E044F686
:104EA00083334FEA5E2CC0F20403ACFB03324CF6B2
:104EB000002CD309C3F69A3C046803FB1CE304EB03
:104EC000D21202600B6010BD2DE9F04F81B0834615
:104ED00004308A4600F010F95AF800900646043073
:104EE00000EB0905A8422FD219F00303A9F1010133
:104EF0001AD01AF800200AEB000707F8012C012B42
:104F000006F1050211D01AF80270524402F8017C31
:104F1000022B06F1060208D01AF80230524402F8B9
:104F2000013CF21D01E000BF024603290CD306EB51
:104F3000090302EB0A019A1A0439043251F8043FBA
:104F4000043A41F8013CF9D1504400950AEB0508B8
:104F50000025013808F8015CCBF818000BF1280097
:104F60004146FEF7BBFF821902EB09060BF1780CF4
:104F70000AEB060408EB000258F8003057680CEB07
:104F8000C5014CF835304F60D36897680635C1E9E4
:104F90000273536917693030C1E90473D3699769A3
:104FA0003034C1E90673536A176A242DC1E90873C6
:104FB000D36A926A06F13006C1E90A23DAD1009970
:104FC00008440AEB00010BF5D070FEF7E9FF4FF63D
:104FD000E0612218CFF6FF715718D7F82451D7F89F
:104FE00028410BEB0103C3E9C254D7F83051D7F87D
:104FF0002C413031C3E9C445D7F83851D7F8344192
:10500000C3E9C645D7F84051D7F83C41C3E9C84584
:10501000D7F84851D7F84441C3E9CA45D7F85051A9
:10502000D7F84C71C3F83453C3F83073D4D130443B
:10503000084400F5927001B0BDE8F08F00A0704701
:105040006364356537336431393064373431613204
:10505000663932653831656461353733616361378C
:105060000000000000A070476E61765F6D7367738B
:105070002F4F646F6D657472790000000B780246E3
:105080004360487843EA002050608B7840EA034050
:105090005060CB7840EA03605060087990604B79AB
:1050A00040EA032090608B7940EA03409060C97920
:1050B00040EA0161082091607047000000A070473D
:1050C00063643731363663373463353532633331B1
:1050D00031666263633266653561376263323839DF
:1050E0000000000000A070477374645F6D73677305
:1050F0002F54696D650000002DE9F0410D460978D7
:105100000446416068782E4641EA00206060A97834
:1051100040EA01406060E97840EA01606060287917
:10512000A060697940EA0120A060A97940EA0140C5
:10513000A060E97940EA0160A060287AE060697ABD
:1051400040EA0120E060A97A40EA0140E060E97AA3
:1051500040EA0160E06016F80F1F16F8030C16F81D
:10516000022C16F8013C40EA022747EA034747EAC7
:10517000016707F11008B8F1110F0CD34FEA022CA8
:105180001B040A061A4342EA0C0205F1100102430D
:105190003046FBF7E1F9E8190021C173404626616A
:1051A000BDE8F08100A07047323137366465636135
:1051B0006563626365373861626333623936656699
:1051C00030343966616265640000000000A07047F9
:1051D0007374645F6D7367732F48656164657200F3
:1051E00010B5D0E9022E130A140C0A704FEA1E2CD7
:1051F0004B704FEA1E438C704FEA1E64120ECA7049
:1052000081F804E081F805C08B71CC71D0E90423EA
:10521000140A4C72140C0A724FEA132C4FEA134E04
:105220008C721C0E120ECA720B7381F80DC081F8BD
:105230000EE0CC73D0E90623140A4C74140C0A74E3
:105240004FEA132C4FEA134E8C741C0E120ECA74C4
:105250000B7581F815C081F816E0CC75D0E90820EF
:10526000140A130C0A764FEA102C4C76040C8B7639
:10527000030E120E08772020CA7681F81DC08C77A5
:10528000CB7710BDF0B581B0044680680D4608703C
:10529000A068000A487060898870E07AC870E06889
:1052A0000871E068000A4871E0898871E07BC87184
:1052B000206908722069000A4872608A8872E07C5E
:1052C000C8726069FBF7E4F8E8600646616905F1B9
:1052D00010003246FBF7FBF8A069FBF7D9F8074648
:1052E000A81907611436A169A8193A46FBF7EFF827
:1052F0003E4404F12000A91900F0C2FA304401B084
:10530000F0BD00002DE9F041804608300D4600F068
:1053100011F94FF6E06105EB000CCFF6FF7100BF0D
:1053200008EB0105D5E95E460CEB0103220A270CC8
:1053300083F820414FEA162E83F82121320C83F89E
:105340002271370E240E83F8234183F8246183F8F9
:1053500025E183F8262183F82771D5E960272031DC
:105360004FEA12244FEA124683F828214FEA172EFB
:1053700083F829414FEA174483F82A614FEA1766F8
:105380004FEA126283F82B2183F82C7183F82DE108
:1053900083F82E4183F82F61D5E962274FEA122462
:1053A0004FEA124683F830214FEA172E83F8314135
:1053B0004FEA174483F832614FEA17664FEA1262E8
:1053C00083F8332183F8347183F835E183F836416B
:1053D00083F83761D5E964274FEA12254FEA124472
:1053E00083F838214FEA172683F839514FEA1745D9
:1053F00083F83A414FEA17644FEA126283F83B217F
:1054000083F83C7183F83D6183F83E5183F83F4156
:1054100086D1084400F59070BDE8F0812DE9F04197
:10542000804608300D4600F065F94FF6E06105EB67
:10543000000CCFF6FF7100BF08EB0105D5E95C4613
:105440000CEB0103220A270C83F820414FEA162EA9
:1054500083F82121320C83F82271370E240E83F851
:10546000234183F8246183F825E183F8262183F81A
:105470002771D5E95E2720314FEA12244FEA124600
:1054800083F828214FEA172E83F829414FEA174461
:1054900083F82A614FEA17664FEA126283F82B21DC
:1054A00083F82C7183F82DE183F82E4183F82F6166
:1054B000D5E960274FEA12244FEA124683F83021DB
:1054C0004FEA172E83F831414FEA174483F83261CF
:1054D0004FEA17664FEA126283F8332183F834717A
:1054E00083F835E183F8364183F83761D5E96227DF
:1054F0004FEA12254FEA124483F838214FEA172663
:1055000083F839514FEA174583F83A414FEA176457
:105510004FEA126283F83B2183F83C7183F83D61C6
:1055200083F83E5183F83F4186D1084400F59070DE
:10553000BDE8F08110B5D0E9042E130A140C0A70EE
:105540004FEA1E2C4B704FEA1E438C704FEA1E64CC
:10555000120ECA7081F804E081F805C08B71CC711D
:10556000D0E90623140A4C72140C0A724FEA132C69
:105570004FEA134E8C721C0E120ECA720B7381F816
:105580000DC081F80EE0CC73D0E90823140A4C74E6
:10559000140C0A744FEA132C4FEA134E8C741C0E31
:1055A000120ECA740B7581F815C081F816E0CC751F
:1055B000D0E90C23140A4C76140C0A764FEA132C0B
:1055C0004FEA134E8C761C0E120ECA760B7781F8BA
:1055D0001DC081F81EE0CC77D0E90E23140A81F8B3
:1055E0002140140C81F820204FEA132C4FEA134E6F
:1055F00081F822401C0E120E81F8232081F82430FD
:1056000081F825C081F826E081F82740D0E91023F1
:10561000140A81F82940140C81F828204FEA132C31
:105620004FEA134E81F82A401C0E120E81F82B20EF
:1056300081F82C3081F82DC081F82EE081F82F40C0
:10564000D0E91220140A130C81F830204FEA102CF4
:1056500081F83140040C81F83230030E120E81F8CB
:105660003400382081F8332081F835C081F8364085
:1056700081F8373010BD000010B5D0E9022E130AB2
:10568000140C0A704FEA1E2C4B704FEA1E438C70AC
:105690004FEA1E64120ECA7081F804E081F805C05A
:1056A0008B71CC71D0E90423140A4C72140C0A7269
:1056B0004FEA132C4FEA134E8C721C0E120ECA7254
:1056C0000B7381F80DC081F80EE0CC73D0E9062091
:1056D000140A130C0A744FEA102C4C74040C8B74CB
:1056E000030E120E08751820CA7481F815C08C7547
:1056F000CB7510BD10B5D0E9042E130A140C0A7036
:105700004FEA1E2C4B704FEA1E438C704FEA1E640A
:10571000120ECA7081F804E081F805C08B71CC715B
:10572000D0E90623140A4C72140C0A724FEA132CA7
:105730004FEA134E8C721C0E120ECA720B7381F854
:105740000DC081F80EE0CC73D0E90823140A4C7424
:10575000140C0A744FEA132C4FEA134E8C741C0E6F
:10576000120ECA740B7581F815C081F816E0CC755D
:10577000D0E90C23140A4C76140C0A764FEA132C49
:105780004FEA134E8C761C0E120ECA760B7781F8F8
:105790001DC081F81EE0CC77D0E90E23140A81F8F1
:1057A0002140140C81F820204FEA132C4FEA134EAD
:1057B00081F822401C0E120E81F8232081F824303B
:1057C00081F825C081F826E081F82740D0E9102033
:1057D000140A130C81F828204FEA102C81F8294074
:1057E000040C81F82A30030E120E81F82C003020B0
:1057F00081F82B2081F82DC081F82E4081F82F30C0
:1058000010BD000010B5D0E9022E130A140C0A7066
:105810004FEA1E2C4B704FEA1E438C704FEA1E64F9
:10582000120ECA7081F804E081F805C08B71CC714A
:10583000D0E90423140A4C72140C0A724FEA132C98
:105840004FEA134E8C721C0E120ECA720B7381F843
:105850000DC081F80EE0CC73D0E90620140A130CB9
:105860000A744FEA102C4C74040C8B74030E120E45
:1058700008751820CA7481F815C08C75CB7510BDD9
:1058800010B5D0E9042E130A140C0A704FEA1E2C2E
:105890004B704FEA1E438C704FEA1E64120ECA70A2
:1058A00081F804E081F805C08B71CC71D0E9062342
:1058B000140A4C72140C0A724FEA132C4FEA134E5E
:1058C0008C721C0E120ECA720B7381F80DC081F817
:1058D0000EE0CC73D0E90823140A4C74140C0A743B
:1058E0004FEA132C4FEA134E8C741C0E120ECA741E
:1058F0000B7581F815C081F816E0CC75D0E90C2342
:10590000140A4C76140C0A764FEA132C4FEA134E05
:105910008C761C0E120ECA760B7781F81DC081F8AA
:105920001EE0CC77D0E90E23140A81F82140140C34
:1059300081F820204FEA132C4FEA134E81F82240C1
:105940001C0E120E81F8232081F8243081F825C026
:1059500081F826E081F82740D0E91023140A81F865
:105960002940140C81F828204FEA132C4FEA134EDB
:1059700081F82A401C0E120E81F82B2081F82C3061
:1059800081F82DC081F82EE081F82F40D0E9122057
:10599000140A130C81F830204FEA102C81F83140A2
:1059A000040C81F83230030E120E81F834003820D6
:1059B00081F8332081F835C081F8364081F83730DE
:1059C00010BD00002DE9F04104464068884608708B
:1059D0006068000A4870E0888870E079C870606884
:1059E000D0B100206FF00301E26808EB010352F828
:1059F000202008EB8006170A1A727771170C120E16
:105A0000B771DA7262680130904201F10401EBD3A0
:105A100001F1080001E000BF0420216908F800102E
:105A2000226908EB0001120A4A70628A8A70E27CDD
:105A3000CA70226962B10022002300BFA7698E18D4
:105A4000BF580133776027690432BB42F6D3104454
:105A5000E269011D08F80120E2694144120A4A7016
:105A6000E28B00F108068A70E27FCA70E169B9B181
:105A7000002500BF606A50F82500FAF709FD48F8D4
:105A800006000746606A043650F8251008EB060049
:105A90003A46FAF71CFDE069013585423E44E9D3F8
:105AA0003046BDE8F081000070B5044600790D462F
:105AB0000870A068FAF7ECFCC5F801000646A1687A
:105AC000681D3246FAF703FD701D70BDF0B581B058
:105AD000054600790C46087068794870A868FAF79E
